{
  "address": "0x8fC8CFB7f7362E44E472c690A6e025B80E406458",
  "abi": [
    {
      "inputs": [],
      "name": "NoController",
      "type": "error"
    },
    {
      "anonymous": false,
      "inputs": [
        {
          "indexed": true,
          "internalType": "address",
          "name": "previousOwner",
          "type": "address"
        },
        {
          "indexed": true,
          "internalType": "address",
          "name": "newOwner",
          "type": "address"
        }
      ],
      "name": "OwnershipTransferred",
      "type": "event"
    },
    {
      "anonymous": false,
      "inputs": [
        {
          "indexed": true,
          "internalType": "bytes32",
          "name": "identifier",
          "type": "bytes32"
        },
        {
          "indexed": false,
          "internalType": "address",
          "name": "logic",
          "type": "address"
        },
        {
          "indexed": false,
          "internalType": "address",
          "name": "creator",
          "type": "address"
        }
      ],
      "name": "ProxyDeployed",
      "type": "event"
    },
    {
      "inputs": [],
      "name": "FEE_DISTRIBUTOR",
      "outputs": [
        {
          "internalType": "bytes32",
          "name": "",
          "type": "bytes32"
        }
      ],
      "stateMutability": "view",
      "type": "function"
    },
    {
      "inputs": [],
      "name": "FNFT_COLLECTION_FACTORY",
      "outputs": [
        {
          "internalType": "bytes32",
          "name": "",
          "type": "bytes32"
        }
      ],
      "stateMutability": "view",
      "type": "function"
    },
    {
      "inputs": [],
      "name": "FNFT_SINGLE_FACTORY",
      "outputs": [
        {
          "internalType": "bytes32",
          "name": "",
          "type": "bytes32"
        }
      ],
      "stateMutability": "view",
      "type": "function"
    },
    {
      "inputs": [],
      "name": "IFO_FACTORY",
      "outputs": [
        {
          "internalType": "bytes32",
          "name": "",
          "type": "bytes32"
        }
      ],
      "stateMutability": "view",
      "type": "function"
    },
    {
      "inputs": [],
      "name": "INVENTORY_STAKING",
      "outputs": [
        {
          "internalType": "bytes32",
          "name": "",
          "type": "bytes32"
        }
      ],
      "stateMutability": "view",
      "type": "function"
    },
    {
      "inputs": [],
      "name": "LP_STAKING",
      "outputs": [
        {
          "internalType": "bytes32",
          "name": "",
          "type": "bytes32"
        }
      ],
      "stateMutability": "view",
      "type": "function"
    },
    {
      "inputs": [],
      "name": "PRICE_ORACLE",
      "outputs": [
        {
          "internalType": "bytes32",
          "name": "",
          "type": "bytes32"
        }
      ],
      "stateMutability": "view",
      "type": "function"
    },
    {
      "inputs": [],
      "name": "STAKING_TOKEN_PROVIDER",
      "outputs": [
        {
          "internalType": "bytes32",
          "name": "",
          "type": "bytes32"
        }
      ],
      "stateMutability": "view",
      "type": "function"
    },
    {
      "inputs": [],
      "name": "VAULT_MANAGER",
      "outputs": [
        {
          "internalType": "bytes32",
          "name": "",
          "type": "bytes32"
        }
      ],
      "stateMutability": "view",
      "type": "function"
    },
    {
      "inputs": [
        {
          "internalType": "address",
          "name": "_logic",
          "type": "address"
        },
        {
          "internalType": "address",
          "name": "_vaultManager",
          "type": "address"
        },
        {
          "internalType": "address",
          "name": "_fnftCollection",
          "type": "address"
        }
      ],
      "name": "deployFNFTCollectionFactory",
      "outputs": [
        {
          "internalType": "address",
          "name": "factory",
          "type": "address"
        }
      ],
      "stateMutability": "nonpayable",
      "type": "function"
    },
    {
      "inputs": [
        {
          "internalType": "address",
          "name": "_logic",
          "type": "address"
        },
        {
          "internalType": "address",
          "name": "_vaultManager",
          "type": "address"
        },
        {
          "internalType": "address",
          "name": "_fnftSingle",
          "type": "address"
        }
      ],
      "name": "deployFNFTSingleFactory",
      "outputs": [
        {
          "internalType": "address",
          "name": "fnftSingleFactory",
          "type": "address"
        }
      ],
      "stateMutability": "nonpayable",
      "type": "function"
    },
    {
      "inputs": [
        {
          "internalType": "address",
          "name": "_logic",
          "type": "address"
        },
        {
          "internalType": "address",
          "name": "fnftCollectionFactory",
          "type": "address"
        }
      ],
      "name": "deployFNFTStaking",
      "outputs": [
        {
          "internalType": "address",
          "name": "fnftStaking",
          "type": "address"
        }
      ],
      "stateMutability": "nonpayable",
      "type": "function"
    },
    {
      "inputs": [
        {
          "internalType": "address",
          "name": "_logic",
          "type": "address"
        },
        {
          "internalType": "address",
          "name": "vaultManager",
          "type": "address"
        },
        {
          "internalType": "address",
          "name": "lpStaking",
          "type": "address"
        },
        {
          "internalType": "address",
          "name": "treasury",
          "type": "address"
        }
      ],
      "name": "deployFeeDistributor",
      "outputs": [
        {
          "internalType": "address",
          "name": "feeDistributor",
          "type": "address"
        }
      ],
      "stateMutability": "nonpayable",
      "type": "function"
    },
    {
      "inputs": [
        {
          "internalType": "address",
          "name": "_logic",
          "type": "address"
        }
      ],
      "name": "deployIFOFactory",
      "outputs": [
        {
          "internalType": "address",
          "name": "ifoFactory",
          "type": "address"
        }
      ],
      "stateMutability": "nonpayable",
      "type": "function"
    },
    {
      "inputs": [
        {
          "internalType": "address",
          "name": "_logic",
          "type": "address"
        },
        {
          "internalType": "address",
          "name": "vaultManager",
          "type": "address"
        },
        {
          "internalType": "address",
          "name": "stakingTokenProvider",
          "type": "address"
        }
      ],
      "name": "deployLPStaking",
      "outputs": [
        {
          "internalType": "address",
          "name": "lpStaking",
          "type": "address"
        }
      ],
      "stateMutability": "nonpayable",
      "type": "function"
    },
    {
      "inputs": [
        {
          "internalType": "address",
          "name": "_logic",
          "type": "address"
        }
      ],
      "name": "deployPriceOracle",
      "outputs": [
        {
          "internalType": "address",
          "name": "priceOracle",
          "type": "address"
        }
      ],
      "stateMutability": "nonpayable",
      "type": "function"
    },
    {
      "inputs": [
        {
          "internalType": "address",
          "name": "_logic",
          "type": "address"
        },
        {
          "internalType": "address",
          "name": "uniswapV2Factory",
          "type": "address"
        },
        {
          "internalType": "address",
          "name": "defaultPairedToken",
          "type": "address"
        },
        {
          "internalType": "string",
          "name": "defaultPrefix",
          "type": "string"
        }
      ],
      "name": "deployStakingTokenProvider",
      "outputs": [
        {
          "internalType": "address",
          "name": "stakingTokenProvider",
          "type": "address"
        }
      ],
      "stateMutability": "nonpayable",
      "type": "function"
    },
    {
      "inputs": [
        {
          "internalType": "address",
          "name": "_logic",
          "type": "address"
        },
        {
          "internalType": "address",
          "name": "_weth",
          "type": "address"
        },
        {
          "internalType": "address",
          "name": "_ifoFactory",
          "type": "address"
        },
        {
          "internalType": "address",
          "name": "_priceOracle",
          "type": "address"
        }
      ],
      "name": "deployVaultManager",
      "outputs": [
        {
          "internalType": "address",
          "name": "vaultManager",
          "type": "address"
        }
      ],
      "stateMutability": "nonpayable",
      "type": "function"
    },
    {
      "inputs": [],
      "name": "owner",
      "outputs": [
        {
          "internalType": "address",
          "name": "",
          "type": "address"
        }
      ],
      "stateMutability": "view",
      "type": "function"
    },
    {
      "inputs": [],
      "name": "proxyController",
      "outputs": [
        {
          "internalType": "contract IMultiProxyController",
          "name": "",
          "type": "address"
        }
      ],
      "stateMutability": "view",
      "type": "function"
    },
    {
      "inputs": [],
      "name": "renounceOwnership",
      "outputs": [],
      "stateMutability": "nonpayable",
      "type": "function"
    },
    {
      "inputs": [
        {
          "internalType": "address",
          "name": "_proxyController",
          "type": "address"
        }
      ],
      "name": "setProxyController",
      "outputs": [],
      "stateMutability": "nonpayable",
      "type": "function"
    },
    {
      "inputs": [
        {
          "internalType": "address",
          "name": "newOwner",
          "type": "address"
        }
      ],
      "name": "transferOwnership",
      "outputs": [],
      "stateMutability": "nonpayable",
      "type": "function"
    }
  ],
  "transactionHash": "0x6fa7a6f38ec587874577b7792ae2a2271035ba6e099bb2f481092982dfb8c5d4",
  "args": [],
  "numDeployments": 1,
  "solcInputHash": "961fec123a75984f6857e077cf799290",
  "bytecode": "0x608060405234801561001057600080fd5b5061001a3361001f565b61006f565b600080546001600160a01b038381166001600160a01b0319831681178455604051919092169283917f8be0079c531659141344cd1fd0a4f28419497f9722a3daafe3b4186f6b6457e09190a35050565b6124618061007e6000396000f3fe60806040523480156200001157600080fd5b5060043610620001695760003560e01c806377881c7b11620000d3578063bdeba89f1162000086578063bdeba89f146200031b578063c0a697c91462000332578063ef9bf15a1462000346578063f23fa7941462000361578063f2fde38b1462000380578063fdf5c976146200039757600080fd5b806377881c7b146200028d5780638da5cb5b14620002a4578063a36ab46914620002b6578063b70245f214620002cd578063b808755e14620002ed578063bc22ff4e146200030457600080fd5b80634352aa9f116200012c5780634352aa9f146200020e57806345de0f7714620002275780635da43bc9146200023c5780636910dcce1462000253578063715018a6146200026c578063727a01de146200027657600080fd5b806305009223146200016e5780630a19399a14620001a2578063114c20f014620001c757806339589c4814620001db5780633da0c13114620001f7575b600080fd5b620001856200017f36600462001743565b620003ae565b6040516001600160a01b0390911681526020015b60405180910390f35b620001b86a50726963654f7261636c6560a81b81565b60405190815260200162000199565b620001b8684c505374616b696e6760b81b81565b620001b870464e465453696e676c65466163746f727960781b81565b620001856200020836600462001743565b620005c3565b620002256200021f3660046200178d565b620007c7565b005b620001b86949464f466163746f727960b01b81565b620001856200024d36600462001743565b62000816565b620001b86d2332b2a234b9ba3934b13aba37b960911b81565b6200022562000a02565b62000185620002873660046200178d565b62000a3d565b620001856200029e366004620017c8565b62000c11565b6000546001600160a01b031662000185565b62000185620002c7366004620018bb565b62000e26565b620001b874464e4654436f6c6c656374696f6e466163746f727960581b81565b62000185620002fe36600462001918565b6200101c565b620001b86b2b30bab63a26b0b730b3b2b960a11b81565b620001856200032c366004620018bb565b62001215565b60015462000185906001600160a01b031681565b620001b86f496e76656e746f72795374616b696e6760801b81565b620001b87329ba30b5b4b733aa37b5b2b7283937bb34b232b960611b81565b62000225620003913660046200178d565b62001407565b62000185620003a83660046200178d565b620014a9565b600080546001600160a01b03163314620003e55760405162461bcd60e51b8152600401620003dc9062001950565b60405180910390fd5b6001546001600160a01b03166200040f57604051630d17f6b760e41b815260040160405180910390fd5b6000630cf0cfa660e01b84846040516024016200042e92919062001985565b604051602081830303815290604052906001600160e01b0319166020820180516001600160e01b0383818316178352505050509050843382604051620004749062001718565b6200048293929190620019ef565b604051809103906000f0801580156200049f573d6000803e3d6000fd5b5060405163f2fde38b60e01b81523360048201529092506001600160a01b0383169063f2fde38b90602401600060405180830381600087803b158015620004e557600080fd5b505af1158015620004fa573d6000803e3d6000fd5b50506001546040516353eba3ff60e11b815270464e465453696e676c65466163746f727960781b60048201526001600160a01b038681166024830152909116925063a7d747fe9150604401600060405180830381600087803b1580156200056057600080fd5b505af115801562000575573d6000803e3d6000fd5b5050505070464e465453696e676c65466163746f727960781b60001b6000805160206200240c8339815191528333604051620005b392919062001985565b60405180910390a2509392505050565b600080546001600160a01b03163314620005f15760405162461bcd60e51b8152600401620003dc9062001950565b6001546001600160a01b03166200061b57604051630d17f6b760e41b815260040160405180910390fd5b600063afccd7c360e01b84846040516024016200063a92919062001985565b604051602081830303815290604052906001600160e01b0319166020820180516001600160e01b0383818316178352505050509050843382604051620006809062001718565b6200068e93929190620019ef565b604051809103906000f080158015620006ab573d6000803e3d6000fd5b5060405163f2fde38b60e01b81523360048201529092506001600160a01b0383169063f2fde38b90602401600060405180830381600087803b158015620006f157600080fd5b505af115801562000706573d6000803e3d6000fd5b50506001546040516353eba3ff60e11b815274464e4654436f6c6c656374696f6e466163746f727960581b60048201526001600160a01b038681166024830152909116925063a7d747fe9150604401600060405180830381600087803b1580156200077057600080fd5b505af115801562000785573d6000803e3d6000fd5b5050505074464e4654436f6c6c656374696f6e466163746f727960581b60001b6000805160206200240c8339815191528333604051620005b392919062001985565b6000546001600160a01b03163314620007f45760405162461bcd60e51b8152600401620003dc9062001950565b600180546001600160a01b0319166001600160a01b0392909216919091179055565b600080546001600160a01b03163314620008445760405162461bcd60e51b8152600401620003dc9062001950565b6001546001600160a01b03166200086e57604051630d17f6b760e41b815260040160405180910390fd5b600063f79b61ba60e01b84846040516024016200088d92919062001985565b604051602081830303815290604052906001600160e01b0319166020820180516001600160e01b0383818316178352505050509050843382604051620008d39062001718565b620008e193929190620019ef565b604051809103906000f080158015620008fe573d6000803e3d6000fd5b5060405163f2fde38b60e01b81523360048201529092506001600160a01b0383169063f2fde38b90602401600060405180830381600087803b1580156200094457600080fd5b505af115801562000959573d6000803e3d6000fd5b50506001546040516353eba3ff60e11b8152684c505374616b696e6760b81b60048201526001600160a01b038681166024830152909116925063a7d747fe9150604401600060405180830381600087803b158015620009b757600080fd5b505af1158015620009cc573d6000803e3d6000fd5b50505050684c505374616b696e6760b81b60001b6000805160206200240c8339815191528333604051620005b392919062001985565b6000546001600160a01b0316331462000a2f5760405162461bcd60e51b8152600401620003dc9062001950565b62000a3b6000620016c8565b565b600080546001600160a01b0316331462000a6b5760405162461bcd60e51b8152600401620003dc9062001950565b6001546001600160a01b031662000a9557604051630d17f6b760e41b815260040160405180910390fd5b60408051600481526024810182526020810180516001600160e01b0316638cb3014960e01b179052905183903390839062000ad09062001718565b62000ade93929190620019ef565b604051809103906000f08015801562000afb573d6000803e3d6000fd5b5060405163f2fde38b60e01b81523360048201529092506001600160a01b0383169063f2fde38b90602401600060405180830381600087803b15801562000b4157600080fd5b505af115801562000b56573d6000803e3d6000fd5b50506001546040516353eba3ff60e11b81526a50726963654f7261636c6560a81b60048201526001600160a01b038681166024830152909116925063a7d747fe9150604401600060405180830381600087803b15801562000bb657600080fd5b505af115801562000bcb573d6000803e3d6000fd5b505050506a50726963654f7261636c6560a81b60001b6000805160206200240c833981519152833360405162000c0392919062001985565b60405180910390a250919050565b600080546001600160a01b0316331462000c3f5760405162461bcd60e51b8152600401620003dc9062001950565b6001546001600160a01b031662000c6957604051630d17f6b760e41b815260040160405180910390fd5b6000638a2a1e2f60e01b85858560405160240162000c8a93929190620019ef565b604051602081830303815290604052906001600160e01b0319166020820180516001600160e01b038381831617835250505050905085338260405162000cd09062001718565b62000cde93929190620019ef565b604051809103906000f08015801562000cfb573d6000803e3d6000fd5b5060405163f2fde38b60e01b81523360048201529092506001600160a01b0383169063f2fde38b90602401600060405180830381600087803b15801562000d4157600080fd5b505af115801562000d56573d6000803e3d6000fd5b50506001546040516353eba3ff60e11b81527329ba30b5b4b733aa37b5b2b7283937bb34b232b960611b60048201526001600160a01b038681166024830152909116925063a7d747fe9150604401600060405180830381600087803b15801562000dbf57600080fd5b505af115801562000dd4573d6000803e3d6000fd5b505050507329ba30b5b4b733aa37b5b2b7283937bb34b232b960611b60001b6000805160206200240c833981519152833360405162000e1592919062001985565b60405180910390a250949350505050565b600080546001600160a01b0316331462000e545760405162461bcd60e51b8152600401620003dc9062001950565b6001546001600160a01b031662000e7e57604051630d17f6b760e41b815260040160405180910390fd5b604080516001600160a01b0386811660248301528581166044830152841660648083019190915282518083039091018152608490910182526020810180516001600160e01b0316637aed47c560e01b179052905186903390839062000ee39062001718565b62000ef193929190620019ef565b604051809103906000f08015801562000f0e573d6000803e3d6000fd5b5060405163f2fde38b60e01b81523360048201529092506001600160a01b0383169063f2fde38b90602401600060405180830381600087803b15801562000f5457600080fd5b505af115801562000f69573d6000803e3d6000fd5b50506001546040516353eba3ff60e11b81526d2332b2a234b9ba3934b13aba37b960911b60048201526001600160a01b038681166024830152909116925063a7d747fe9150604401600060405180830381600087803b15801562000fcc57600080fd5b505af115801562000fe1573d6000803e3d6000fd5b505050506d2332b2a234b9ba3934b13aba37b960911b60001b6000805160206200240c833981519152833360405162000e1592919062001985565b600080546001600160a01b031633146200104a5760405162461bcd60e51b8152600401620003dc9062001950565b6001546001600160a01b03166200107457604051630d17f6b760e41b815260040160405180910390fd5b604080516001600160a01b03841660248083019190915282518083039091018152604490910182526020810180516001600160e01b0316636bf4b28d60e01b1790529051849033908390620010c99062001718565b620010d793929190620019ef565b604051809103906000f080158015620010f4573d6000803e3d6000fd5b5060405163f2fde38b60e01b81523360048201529092506001600160a01b0383169063f2fde38b90602401600060405180830381600087803b1580156200113a57600080fd5b505af11580156200114f573d6000803e3d6000fd5b50506001546040516353eba3ff60e11b81526f496e76656e746f72795374616b696e6760801b60048201526001600160a01b038681166024830152909116925063a7d747fe9150604401600060405180830381600087803b158015620011b457600080fd5b505af1158015620011c9573d6000803e3d6000fd5b505050506f496e76656e746f72795374616b696e6760801b60001b6000805160206200240c83398151915283336040516200120692919062001985565b60405180910390a25092915050565b600080546001600160a01b03163314620012435760405162461bcd60e51b8152600401620003dc9062001950565b6001546001600160a01b03166200126d57604051630d17f6b760e41b815260040160405180910390fd5b604080516001600160a01b0386811660248301528581166044830152841660648083019190915282518083039091018152608490910182526020810180516001600160e01b03166364fa9a5360e01b1790529051869033908390620012d29062001718565b620012e093929190620019ef565b604051809103906000f080158015620012fd573d6000803e3d6000fd5b5060405163f2fde38b60e01b81523360048201529092506001600160a01b0383169063f2fde38b90602401600060405180830381600087803b1580156200134357600080fd5b505af115801562001358573d6000803e3d6000fd5b50506001546040516353eba3ff60e11b81526b2b30bab63a26b0b730b3b2b960a11b60048201526001600160a01b038681166024830152909116925063a7d747fe9150604401600060405180830381600087803b158015620013b957600080fd5b505af1158015620013ce573d6000803e3d6000fd5b505050506b2b30bab63a26b0b730b3b2b960a11b60001b6000805160206200240c833981519152833360405162000e1592919062001985565b6000546001600160a01b03163314620014345760405162461bcd60e51b8152600401620003dc9062001950565b6001600160a01b0381166200149b5760405162461bcd60e51b815260206004820152602660248201527f4f776e61626c653a206e6577206f776e657220697320746865207a65726f206160448201526564647265737360d01b6064820152608401620003dc565b620014a681620016c8565b50565b600080546001600160a01b03163314620014d75760405162461bcd60e51b8152600401620003dc9062001950565b6001546001600160a01b03166200150157604051630d17f6b760e41b815260040160405180910390fd5b60408051600481526024810182526020810180516001600160e01b031663e8eb87bd60e01b17905290518390339083906200153c9062001718565b6200154a93929190620019ef565b604051809103906000f08015801562001567573d6000803e3d6000fd5b50604051633bf7365d60e21b81523360048201529092506001600160a01b0383169063efdcd97490602401600060405180830381600087803b158015620015ad57600080fd5b505af1158015620015c2573d6000803e3d6000fd5b505060405163f2fde38b60e01b81523360048201526001600160a01b038516925063f2fde38b9150602401600060405180830381600087803b1580156200160857600080fd5b505af11580156200161d573d6000803e3d6000fd5b50506001546040516353eba3ff60e11b81526949464f466163746f727960b01b60048201526001600160a01b038681166024830152909116925063a7d747fe9150604401600060405180830381600087803b1580156200167c57600080fd5b505af115801562001691573d6000803e3d6000fd5b505050506949464f466163746f727960b01b60001b6000805160206200240c833981519152833360405162000c0392919062001985565b600080546001600160a01b038381166001600160a01b0319831681178455604051919092169283917f8be0079c531659141344cd1fd0a4f28419497f9722a3daafe3b4186f6b6457e09190a35050565b6109e58062001a2783390190565b80356001600160a01b03811681146200173e57600080fd5b919050565b6000806000606084860312156200175957600080fd5b620017648462001726565b9250620017746020850162001726565b9150620017846040850162001726565b90509250925092565b600060208284031215620017a057600080fd5b620017ab8262001726565b9392505050565b634e487b7160e01b600052604160045260246000fd5b60008060008060808587031215620017df57600080fd5b620017ea8562001726565b9350620017fa6020860162001726565b92506200180a6040860162001726565b9150606085013567ffffffffffffffff808211156200182857600080fd5b818701915087601f8301126200183d57600080fd5b813581811115620018525762001852620017b2565b604051601f8201601f19908116603f011681019083821181831017156200187d576200187d620017b2565b816040528281528a60208487010111156200189757600080fd5b82602086016020830137600060208483010152809550505050505092959194509250565b60008060008060808587031215620018d257600080fd5b620018dd8562001726565b9350620018ed6020860162001726565b9250620018fd6040860162001726565b91506200190d6060860162001726565b905092959194509250565b600080604083850312156200192c57600080fd5b620019378362001726565b9150620019476020840162001726565b90509250929050565b6020808252818101527f4f776e61626c653a2063616c6c6572206973206e6f7420746865206f776e6572604082015260600190565b6001600160a01b0392831681529116602082015260400190565b6000815180845260005b81811015620019c757602081850181015186830182015201620019a9565b81811115620019da576000602083870101525b50601f01601f19169290920160200192915050565b6001600160a01b0384811682528316602082015260606040820181905260009062001a1d908301846200199f565b9594505050505056fe6080604052604051620009e5380380620009e583398101604081905262000026916200027d565b82816200005560017f360894a13ba1a3210667c828492db98dca3e2076cc3735a920a3ca505d382bbd6200035d565b600080516020620009c58339815191521462000075576200007562000383565b620000808262000168565b805115620000f7576000826001600160a01b031682604051620000a4919062000399565b600060405180830381855af49150503d8060008114620000e1576040519150601f19603f3d011682016040523d82523d6000602084013e620000e6565b606091505b5050905080620000f557600080fd5b505b5062000127905060017fb53127684a568b3173ae13b9f8a6016e243e63b6e8ee1178d6a717850b5d61046200035d565b600080516020620009a58339815191521462000147576200014762000383565b6200015f82600080516020620009a583398151915255565b505050620003b7565b6200017e816200020860201b620003a31760201c565b620001f55760405162461bcd60e51b815260206004820152603b60248201527f43616e6e6f742073657420612070726f787920696d706c656d656e746174696f60448201527f6e20746f2061206e6f6e2d636f6e747261637420616464726573730000000000606482015260840160405180910390fd5b600080516020620009c583398151915255565b6001600160a01b03163b151590565b80516001600160a01b03811681146200022f57600080fd5b919050565b634e487b7160e01b600052604160045260246000fd5b60005b83811015620002675781810151838201526020016200024d565b8381111562000277576000848401525b50505050565b6000806000606084860312156200029357600080fd5b6200029e8462000217565b9250620002ae6020850162000217565b60408501519092506001600160401b0380821115620002cc57600080fd5b818601915086601f830112620002e157600080fd5b815181811115620002f657620002f662000234565b604051601f8201601f19908116603f0116810190838211818310171562000321576200032162000234565b816040528281528960208487010111156200033b57600080fd5b6200034e8360208301602088016200024a565b80955050505050509250925092565b6000828210156200037e57634e487b7160e01b600052601160045260246000fd5b500390565b634e487b7160e01b600052600160045260246000fd5b60008251620003ad8184602087016200024a565b9190910192915050565b6105de80620003c76000396000f3fe60806040526004361061004e5760003560e01c80633659cfe6146100655780634f1ef286146100855780635c60da1b146100985780638f283970146100c9578063f851a440146100e95761005d565b3661005d5761005b6100fe565b005b61005b6100fe565b34801561007157600080fd5b5061005b6100803660046104d3565b610130565b61005b6100933660046104f5565b610163565b3480156100a457600080fd5b506100ad610208565b6040516001600160a01b03909116815260200160405180910390f35b3480156100d557600080fd5b5061005b6100e43660046104d3565b610260565b3480156100f557600080fd5b506100ad610368565b61012e6101297f360894a13ba1a3210667c828492db98dca3e2076cc3735a920a3ca505d382bbc5490565b6103b2565b565b600080516020610589833981519152546001600160a01b0316330361015b57610158816103d6565b50565b6101586100fe565b600080516020610589833981519152546001600160a01b031633036101fb5761018b836103d6565b6000836001600160a01b031683836040516101a7929190610578565b600060405180830381855af49150503d80600081146101e2576040519150601f19603f3d011682016040523d82523d6000602084013e6101e7565b606091505b50509050806101f557600080fd5b50505050565b6102036100fe565b505050565b60006102206000805160206105898339815191525490565b6001600160a01b0316330361025557507f360894a13ba1a3210667c828492db98dca3e2076cc3735a920a3ca505d382bbc5490565b61025d6100fe565b90565b600080516020610589833981519152546001600160a01b0316330361015b576001600160a01b0381166102f95760405162461bcd60e51b815260206004820152603660248201527f43616e6e6f74206368616e6765207468652061646d696e206f6620612070726f604482015275787920746f20746865207a65726f206164647265737360501b60648201526084015b60405180910390fd5b7f7e644d79422f17c01e4894b5f4f588d331ebfa28653d42ae832dc59e38c9798f6103306000805160206105898339815191525490565b604080516001600160a01b03928316815291841660208301520160405180910390a16101588160008051602061058983398151915255565b60006103806000805160206105898339815191525490565b6001600160a01b0316330361025557506000805160206105898339815191525490565b6001600160a01b03163b151590565b3660008037600080366000845af43d6000803e8080156103d1573d6000f35b3d6000fd5b6103df81610416565b6040516001600160a01b038216907fbc7cd75a20ee27fd9adebab32041f755214dbc6bffa90cc0225b39da2e5c2d3b90600090a250565b6001600160a01b0381163b6104935760405162461bcd60e51b815260206004820152603b60248201527f43616e6e6f742073657420612070726f787920696d706c656d656e746174696f60448201527f6e20746f2061206e6f6e2d636f6e74726163742061646472657373000000000060648201526084016102f0565b7f360894a13ba1a3210667c828492db98dca3e2076cc3735a920a3ca505d382bbc55565b80356001600160a01b03811681146104ce57600080fd5b919050565b6000602082840312156104e557600080fd5b6104ee826104b7565b9392505050565b60008060006040848603121561050a57600080fd5b610513846104b7565b9250602084013567ffffffffffffffff8082111561053057600080fd5b818601915086601f83011261054457600080fd5b81358181111561055357600080fd5b87602082850101111561056557600080fd5b6020830194508093505050509250925092565b818382376000910190815291905056feb53127684a568b3173ae13b9f8a6016e243e63b6e8ee1178d6a717850b5d6103a26469706673582212201247ea1a2ad59100c67468b059feaa48c2c2463619292b34a646025d4a3981f964736f6c634300080d0033b53127684a568b3173ae13b9f8a6016e243e63b6e8ee1178d6a717850b5d6103360894a13ba1a3210667c828492db98dca3e2076cc3735a920a3ca505d382bbc2dd96d0459d7a19d9973c629335d112af970ad4894b70919d288614388ef8eaea2646970667358221220fedb44833745c97440b39a2171b1821c747aa8bf91e40c3b1246d024f81b718264736f6c634300080d0033",
  "devdoc": {
    "kind": "dev",
    "methods": {
      "deployFNFTCollectionFactory(address,address,address)": {
        "params": {
          "_logic": "the implementation",
          "_vaultManager": "variable needed for FNFTCollectionFactory"
        }
      },
      "deployFNFTSingleFactory(address,address,address)": {
        "params": {
          "_logic": "the implementation",
          "_vaultManager": "variable needed for FNFTSingleFactory"
        }
      },
      "deployFNFTStaking(address,address)": {
        "params": {
          "_logic": "the implementation"
        }
      },
      "deployFeeDistributor(address,address,address,address)": {
        "params": {
          "_logic": "the implementation"
        }
      },
      "deployIFOFactory(address)": {
        "params": {
          "_logic": "the implementation"
        }
      },
      "deployLPStaking(address,address,address)": {
        "params": {
          "_logic": "the implementation"
        }
      },
      "deployPriceOracle(address)": {
        "params": {
          "_logic": "the implementation"
        }
      },
      "deployStakingTokenProvider(address,address,address,string)": {
        "params": {
          "_logic": "the implementation"
        }
      },
      "deployVaultManager(address,address,address,address)": {
        "params": {
          "_logic": "the implementation"
        }
      },
      "owner()": {
        "details": "Returns the address of the current owner."
      },
      "renounceOwnership()": {
        "details": "Leaves the contract without owner. It will not be possible to call `onlyOwner` functions anymore. Can only be called by the current owner. NOTE: Renouncing ownership will leave the contract without an owner, thereby removing any functionality that is only available to the owner."
      },
      "transferOwnership(address)": {
        "details": "Transfers ownership of the contract to a new account (`newOwner`). Can only be called by the current owner."
      }
    },
    "version": 1
  },
  "userdoc": {
    "kind": "user",
    "methods": {
      "deployFNFTCollectionFactory(address,address,address)": {
        "notice": "the function to deploy FNFTCollectionFactory"
      },
      "deployFNFTSingleFactory(address,address,address)": {
        "notice": "the function to deploy FNFTSingleFactory"
      },
      "deployFNFTStaking(address,address)": {
        "notice": "the function to deploy FNFTStaking"
      },
      "deployFeeDistributor(address,address,address,address)": {
        "notice": "the function to deploy FeeDistributor"
      },
      "deployIFOFactory(address)": {
        "notice": "the function to deploy IFOFactory"
      },
      "deployLPStaking(address,address,address)": {
        "notice": "the function to deploy LPStaking"
      },
      "deployPriceOracle(address)": {
        "notice": "the function to deploy PriceOracle"
      },
      "deployStakingTokenProvider(address,address,address,string)": {
        "notice": "the function to deploy StakingTokenProvider"
      },
      "deployVaultManager(address,address,address,address)": {
        "notice": "the function to deploy FNFTCollectionFactory"
      }
    },
    "version": 1
  },
  "storageLayout": {
    "storage": [
      {
        "astId": 2934,
        "contract": "src/contracts/proxy/Deployer.sol:Deployer",
        "label": "_owner",
        "offset": 0,
        "slot": "0",
        "type": "t_address"
      },
      {
        "astId": 26920,
        "contract": "src/contracts/proxy/Deployer.sol:Deployer",
        "label": "proxyController",
        "offset": 0,
        "slot": "1",
        "type": "t_contract(IMultiProxyController)27694"
      }
    ],
    "types": {
      "t_address": {
        "encoding": "inplace",
        "label": "address",
        "numberOfBytes": "20"
      },
      "t_contract(IMultiProxyController)27694": {
        "encoding": "inplace",
        "label": "contract IMultiProxyController",
        "numberOfBytes": "20"
      }
    }
  }
}