{
  "address": "0x683d9CDD3239E0e01E8dC6315fA50AD92aB71D2d",
  "abi": [
    {
      "inputs": [],
      "name": "FeeTooHigh",
      "type": "error"
    },
    {
      "inputs": [],
      "name": "MaxAuctionLengthOutOfBounds",
      "type": "error"
    },
    {
      "inputs": [],
      "name": "MaxReserveFactorTooLow",
      "type": "error"
    },
    {
      "inputs": [],
      "name": "MinAuctionLengthOutOfBounds",
      "type": "error"
    },
    {
      "inputs": [],
      "name": "MinBidIncreaseOutOfBounds",
      "type": "error"
    },
    {
      "inputs": [],
      "name": "MinReserveFactorTooHigh",
      "type": "error"
    },
    {
      "inputs": [],
      "name": "MinVotePercentageTooHigh",
      "type": "error"
    },
    {
      "inputs": [],
      "name": "MultiplierTooLow",
      "type": "error"
    },
    {
      "inputs": [],
      "name": "Paused",
      "type": "error"
    },
    {
      "inputs": [],
      "name": "Unauthorized",
      "type": "error"
    },
    {
      "inputs": [],
      "name": "ZeroAddress",
      "type": "error"
    },
    {
      "anonymous": false,
      "inputs": [
        {
          "indexed": false,
          "internalType": "uint256",
          "name": "governanceFee",
          "type": "uint256"
        },
        {
          "indexed": false,
          "internalType": "uint256",
          "name": "maxCuratorFee",
          "type": "uint256"
        },
        {
          "indexed": false,
          "internalType": "uint256",
          "name": "flashLoanFee",
          "type": "uint256"
        }
      ],
      "name": "FactoryFeesUpdated",
      "type": "event"
    },
    {
      "anonymous": false,
      "inputs": [
        {
          "indexed": false,
          "internalType": "uint256",
          "name": "maxAuctionLength",
          "type": "uint256"
        },
        {
          "indexed": false,
          "internalType": "uint256",
          "name": "minAuctionLength",
          "type": "uint256"
        },
        {
          "indexed": false,
          "internalType": "uint256",
          "name": "minReserveFactor",
          "type": "uint256"
        },
        {
          "indexed": false,
          "internalType": "uint256",
          "name": "maxReserveFactor",
          "type": "uint256"
        },
        {
          "indexed": false,
          "internalType": "uint256",
          "name": "minBidIncrease",
          "type": "uint256"
        },
        {
          "indexed": false,
          "internalType": "uint256",
          "name": "minVotePercentage",
          "type": "uint256"
        },
        {
          "indexed": false,
          "internalType": "uint256",
          "name": "liquidityThreshold",
          "type": "uint256"
        },
        {
          "indexed": false,
          "internalType": "uint256",
          "name": "instantBuyMultiplier",
          "type": "uint256"
        }
      ],
      "name": "FactoryThresholdsUpdated",
      "type": "event"
    },
    {
      "anonymous": false,
      "inputs": [
        {
          "indexed": false,
          "internalType": "address",
          "name": "target",
          "type": "address"
        },
        {
          "indexed": false,
          "internalType": "bool",
          "name": "excluded",
          "type": "bool"
        }
      ],
      "name": "FeeExclusionUpdated",
      "type": "event"
    },
    {
      "anonymous": false,
      "inputs": [
        {
          "indexed": false,
          "internalType": "uint8",
          "name": "version",
          "type": "uint8"
        }
      ],
      "name": "Initialized",
      "type": "event"
    },
    {
      "anonymous": false,
      "inputs": [
        {
          "indexed": true,
          "internalType": "address",
          "name": "previousOwner",
          "type": "address"
        },
        {
          "indexed": true,
          "internalType": "address",
          "name": "newOwner",
          "type": "address"
        }
      ],
      "name": "OwnershipTransferred",
      "type": "event"
    },
    {
      "anonymous": false,
      "inputs": [
        {
          "indexed": false,
          "internalType": "address",
          "name": "addr",
          "type": "address"
        },
        {
          "indexed": false,
          "internalType": "bool",
          "name": "isGuardian",
          "type": "bool"
        }
      ],
      "name": "SetIsGuardian",
      "type": "event"
    },
    {
      "anonymous": false,
      "inputs": [
        {
          "indexed": false,
          "internalType": "uint256",
          "name": "lockId",
          "type": "uint256"
        },
        {
          "indexed": false,
          "internalType": "bool",
          "name": "paused",
          "type": "bool"
        }
      ],
      "name": "SetPaused",
      "type": "event"
    },
    {
      "anonymous": false,
      "inputs": [
        {
          "indexed": true,
          "internalType": "address",
          "name": "childImplementation",
          "type": "address"
        }
      ],
      "name": "Upgraded",
      "type": "event"
    },
    {
      "anonymous": false,
      "inputs": [
        {
          "indexed": true,
          "internalType": "uint256",
          "name": "vaultId",
          "type": "uint256"
        },
        {
          "indexed": false,
          "internalType": "address",
          "name": "curator",
          "type": "address"
        },
        {
          "indexed": false,
          "internalType": "address",
          "name": "vaultAddress",
          "type": "address"
        },
        {
          "indexed": false,
          "internalType": "address",
          "name": "assetAddress",
          "type": "address"
        },
        {
          "indexed": false,
          "internalType": "uint256",
          "name": "tokenId",
          "type": "uint256"
        },
        {
          "indexed": false,
          "internalType": "uint256",
          "name": "supply",
          "type": "uint256"
        },
        {
          "indexed": false,
          "internalType": "uint256",
          "name": "listPrice",
          "type": "uint256"
        },
        {
          "indexed": false,
          "internalType": "string",
          "name": "name",
          "type": "string"
        },
        {
          "indexed": false,
          "internalType": "string",
          "name": "symbol",
          "type": "string"
        }
      ],
      "name": "VaultCreated",
      "type": "event"
    },
    {
      "anonymous": false,
      "inputs": [
        {
          "indexed": false,
          "internalType": "address",
          "name": "vaultAddress",
          "type": "address"
        },
        {
          "indexed": false,
          "internalType": "address",
          "name": "curator",
          "type": "address"
        },
        {
          "indexed": false,
          "internalType": "uint256",
          "name": "supply",
          "type": "uint256"
        },
        {
          "indexed": false,
          "internalType": "uint256",
          "name": "listPrice",
          "type": "uint256"
        },
        {
          "indexed": false,
          "internalType": "uint256",
          "name": "fee",
          "type": "uint256"
        }
      ],
      "name": "VaultCurated",
      "type": "event"
    },
    {
      "inputs": [
        {
          "internalType": "address",
          "name": "childImplementation_",
          "type": "address"
        }
      ],
      "name": "__BeaconUpgradeable__init",
      "outputs": [],
      "stateMutability": "nonpayable",
      "type": "function"
    },
    {
      "inputs": [
        {
          "internalType": "address",
          "name": "_vaultManager",
          "type": "address"
        },
        {
          "internalType": "address",
          "name": "_fnftSingle",
          "type": "address"
        }
      ],
      "name": "__FNFTSingleFactory_init",
      "outputs": [],
      "stateMutability": "nonpayable",
      "type": "function"
    },
    {
      "inputs": [],
      "name": "childImplementation",
      "outputs": [
        {
          "internalType": "address",
          "name": "",
          "type": "address"
        }
      ],
      "stateMutability": "view",
      "type": "function"
    },
    {
      "inputs": [
        {
          "internalType": "address",
          "name": "_nft",
          "type": "address"
        },
        {
          "internalType": "uint256",
          "name": "_tokenId",
          "type": "uint256"
        },
        {
          "internalType": "uint256",
          "name": "_supply",
          "type": "uint256"
        },
        {
          "internalType": "uint256",
          "name": "_listPrice",
          "type": "uint256"
        },
        {
          "internalType": "uint256",
          "name": "_fee",
          "type": "uint256"
        },
        {
          "internalType": "string",
          "name": "_name",
          "type": "string"
        },
        {
          "internalType": "string",
          "name": "_symbol",
          "type": "string"
        }
      ],
      "name": "createVault",
      "outputs": [
        {
          "internalType": "address",
          "name": "",
          "type": "address"
        }
      ],
      "stateMutability": "nonpayable",
      "type": "function"
    },
    {
      "inputs": [],
      "name": "flashLoanFee",
      "outputs": [
        {
          "internalType": "uint256",
          "name": "",
          "type": "uint256"
        }
      ],
      "stateMutability": "view",
      "type": "function"
    },
    {
      "inputs": [],
      "name": "governanceFee",
      "outputs": [
        {
          "internalType": "uint256",
          "name": "",
          "type": "uint256"
        }
      ],
      "stateMutability": "view",
      "type": "function"
    },
    {
      "inputs": [],
      "name": "instantBuyMultiplier",
      "outputs": [
        {
          "internalType": "uint256",
          "name": "",
          "type": "uint256"
        }
      ],
      "stateMutability": "view",
      "type": "function"
    },
    {
      "inputs": [
        {
          "internalType": "address",
          "name": "",
          "type": "address"
        }
      ],
      "name": "isGuardian",
      "outputs": [
        {
          "internalType": "bool",
          "name": "",
          "type": "bool"
        }
      ],
      "stateMutability": "view",
      "type": "function"
    },
    {
      "inputs": [
        {
          "internalType": "uint256",
          "name": "",
          "type": "uint256"
        }
      ],
      "name": "isPaused",
      "outputs": [
        {
          "internalType": "bool",
          "name": "",
          "type": "bool"
        }
      ],
      "stateMutability": "view",
      "type": "function"
    },
    {
      "inputs": [],
      "name": "liquidityThreshold",
      "outputs": [
        {
          "internalType": "uint256",
          "name": "",
          "type": "uint256"
        }
      ],
      "stateMutability": "view",
      "type": "function"
    },
    {
      "inputs": [],
      "name": "maxAuctionLength",
      "outputs": [
        {
          "internalType": "uint256",
          "name": "",
          "type": "uint256"
        }
      ],
      "stateMutability": "view",
      "type": "function"
    },
    {
      "inputs": [],
      "name": "maxCuratorFee",
      "outputs": [
        {
          "internalType": "uint256",
          "name": "",
          "type": "uint256"
        }
      ],
      "stateMutability": "view",
      "type": "function"
    },
    {
      "inputs": [],
      "name": "maxReserveFactor",
      "outputs": [
        {
          "internalType": "uint256",
          "name": "",
          "type": "uint256"
        }
      ],
      "stateMutability": "view",
      "type": "function"
    },
    {
      "inputs": [],
      "name": "minAuctionLength",
      "outputs": [
        {
          "internalType": "uint256",
          "name": "",
          "type": "uint256"
        }
      ],
      "stateMutability": "view",
      "type": "function"
    },
    {
      "inputs": [],
      "name": "minBidIncrease",
      "outputs": [
        {
          "internalType": "uint256",
          "name": "",
          "type": "uint256"
        }
      ],
      "stateMutability": "view",
      "type": "function"
    },
    {
      "inputs": [],
      "name": "minReserveFactor",
      "outputs": [
        {
          "internalType": "uint256",
          "name": "",
          "type": "uint256"
        }
      ],
      "stateMutability": "view",
      "type": "function"
    },
    {
      "inputs": [],
      "name": "minVotePercentage",
      "outputs": [
        {
          "internalType": "uint256",
          "name": "",
          "type": "uint256"
        }
      ],
      "stateMutability": "view",
      "type": "function"
    },
    {
      "inputs": [
        {
          "internalType": "uint256",
          "name": "lockId",
          "type": "uint256"
        }
      ],
      "name": "onlyOwnerIfPaused",
      "outputs": [],
      "stateMutability": "view",
      "type": "function"
    },
    {
      "inputs": [],
      "name": "owner",
      "outputs": [
        {
          "internalType": "address",
          "name": "",
          "type": "address"
        }
      ],
      "stateMutability": "view",
      "type": "function"
    },
    {
      "inputs": [
        {
          "internalType": "uint256",
          "name": "lockId",
          "type": "uint256"
        }
      ],
      "name": "pause",
      "outputs": [],
      "stateMutability": "nonpayable",
      "type": "function"
    },
    {
      "inputs": [],
      "name": "renounceOwnership",
      "outputs": [],
      "stateMutability": "nonpayable",
      "type": "function"
    },
    {
      "inputs": [
        {
          "internalType": "uint256",
          "name": "_governanceFee",
          "type": "uint256"
        },
        {
          "internalType": "uint256",
          "name": "_maxCuratorFee",
          "type": "uint256"
        },
        {
          "internalType": "uint256",
          "name": "_flashLoanFee",
          "type": "uint256"
        }
      ],
      "name": "setFactoryFees",
      "outputs": [],
      "stateMutability": "nonpayable",
      "type": "function"
    },
    {
      "inputs": [
        {
          "internalType": "uint256",
          "name": "_maxAuctionLength",
          "type": "uint256"
        },
        {
          "internalType": "uint256",
          "name": "_minAuctionLength",
          "type": "uint256"
        },
        {
          "internalType": "uint256",
          "name": "_minReserveFactor",
          "type": "uint256"
        },
        {
          "internalType": "uint256",
          "name": "_maxReserveFactor",
          "type": "uint256"
        },
        {
          "internalType": "uint256",
          "name": "_minBidIncrease",
          "type": "uint256"
        },
        {
          "internalType": "uint256",
          "name": "_minVotePercentage",
          "type": "uint256"
        },
        {
          "internalType": "uint256",
          "name": "_liquidityThreshold",
          "type": "uint256"
        },
        {
          "internalType": "uint256",
          "name": "_instantBuyMultiplier",
          "type": "uint256"
        }
      ],
      "name": "setFactoryThresholds",
      "outputs": [],
      "stateMutability": "nonpayable",
      "type": "function"
    },
    {
      "inputs": [
        {
          "internalType": "address",
          "name": "_address",
          "type": "address"
        },
        {
          "internalType": "bool",
          "name": "_isGuardian",
          "type": "bool"
        }
      ],
      "name": "setIsGuardian",
      "outputs": [],
      "stateMutability": "nonpayable",
      "type": "function"
    },
    {
      "inputs": [
        {
          "internalType": "address",
          "name": "newOwner",
          "type": "address"
        }
      ],
      "name": "transferOwnership",
      "outputs": [],
      "stateMutability": "nonpayable",
      "type": "function"
    },
    {
      "inputs": [
        {
          "internalType": "uint256",
          "name": "lockId",
          "type": "uint256"
        }
      ],
      "name": "unpause",
      "outputs": [],
      "stateMutability": "nonpayable",
      "type": "function"
    },
    {
      "inputs": [
        {
          "internalType": "address",
          "name": "newChildImplementation",
          "type": "address"
        }
      ],
      "name": "upgradeChildTo",
      "outputs": [],
      "stateMutability": "nonpayable",
      "type": "function"
    },
    {
      "inputs": [],
      "name": "vaultManager",
      "outputs": [
        {
          "internalType": "contract IVaultManager",
          "name": "",
          "type": "address"
        }
      ],
      "stateMutability": "view",
      "type": "function"
    }
  ],
  "transactionHash": "0xb0e4fc2faa82b34290a3211a7c9c10ff66bbdd23162be44c3038c4b6d117ea8a",
  "args": [],
  "numDeployments": 1,
  "solcInputHash": "961fec123a75984f6857e077cf799290",
  "bytecode": "0x608060405234801561001057600080fd5b50611ece806100206000396000f3fe60806040523480156200001157600080fd5b5060043610620001e95760003560e01c8063715018a6116200010d578063a0b335e311620000a3578063da525716116200007a578063da52571614620003dc578063e2386a5514620003ee578063f2fde38b14620003f8578063fabc1cbc146200040f57600080fd5b8063a0b335e314620003a2578063bdf2a43c14620003ac578063c968808614620003d257600080fd5b80638a364bc111620000e45780638a364bc1146200035b5780638a4adf2414620003655780638da5cb5b1462000379578063901a17ac146200038b57600080fd5b8063715018a614620003305780637c513c0f146200033a5780637c77b616146200034457600080fd5b80631f1713fc116200018357806332977c73116200015a57806332977c7314620002e25780634847cdc814620002ec5780635410bfc914620002f657806355b7851b146200030057600080fd5b80631f1713fc146200029d57806323845fb514620002b4578063310aefcf14620002cb57600080fd5b80630e519ef911620001c45780630e519ef9146200025b5780630ea90a12146200026557806310d25c51146200026f578063136439dd146200028657600080fd5b806309990a9614620001ee5780630c68ba21146200020b5780630cf0cfa61462000242575b600080fd5b620001f860725481565b6040519081526020015b60405180910390f35b620002316200021c3660046200110a565b60656020526000908152604090205460ff1681565b604051901515815260200162000202565b62000259620002533660046200112f565b62000426565b005b620001f8606d5481565b620001f8606a5481565b62000259620002803660046200110a565b62000558565b620002596200029736600462001167565b620005d6565b62000259620002ae3660046200110a565b6200065e565b62000259620002c536600462001181565b620006a2565b62000259620002dc366004620011c1565b6200072c565b620001f860735481565b620001f860695481565b620001f8606f5481565b620003176200031136600462001299565b62000813565b6040516001600160a01b03909116815260200162000202565b62000259620009b6565b620001f860715481565b620002596200035536600462001167565b620009f1565b620001f8606e5481565b60685462000317906001600160a01b031681565b6033546001600160a01b031662000317565b620002596200039c3660046200133d565b62000a3a565b620001f860705481565b62000231620003bd36600462001167565b60666020526000908152604090205460ff1681565b620001f8606c5481565b6067546001600160a01b031662000317565b620001f8606b5481565b62000259620004093660046200110a565b62000c21565b620002596200042036600462001167565b62000cc0565b600062000434600162000d3b565b905080156200044d576000805461ff0019166101001790555b6001600160a01b038316620004755760405163d92e233d60e01b815260040160405180910390fd5b6001600160a01b0382166200049d5760405163d92e233d60e01b815260040160405180910390fd5b620004a762000dd0565b620004b28262000558565b606880546001600160a01b0319166001600160a01b03851617905562127500606d556203f4806070556107d060725561c350606f556101f46071556103e8606e556109c46073556801a055690d9db80000606c55600f606b55801562000553576000805461ff0019169055604051600181527f7f26b83ff96e1f2b6a682f133852f6798a09c465da95921460cefb3847402498906020015b60405180910390a15b505050565b600062000566600162000d3b565b905080156200057f576000805461ff0019166101001790555b6200058a8262000e45565b8015620005d2576000805461ff0019169055604051600181527f7f26b83ff96e1f2b6a682f133852f6798a09c465da95921460cefb3847402498906020015b60405180910390a15b5050565b3360009081526065602052604090205460ff1662000606576040516282b42960e81b815260040160405180910390fd5b600081815260666020908152604091829020805460ff191660019081179091558251848152918201527f77f1fcfcce67dc392d64f842056d2ec06c80986c47c910f7e79c5b23a2738d7491015b60405180910390a150565b6033546001600160a01b03163314620006945760405162461bcd60e51b81526004016200068b9062001393565b60405180910390fd5b6200069f8162000e45565b50565b6033546001600160a01b03163314620006cf5760405162461bcd60e51b81526004016200068b9062001393565b6001600160a01b038216600081815260656020908152604091829020805460ff19168515159081179091558251938452908301527fd0b6b573d5442f7c29fd50d9735ae341581c25c6ed07748d50eda519f1ffa88a9101620005c9565b6033546001600160a01b03163314620007595760405162461bcd60e51b81526004016200068b9062001393565b6103e88311156200077d5760405163cd4e616760e01b815260040160405180910390fd5b6101f4811115620007a15760405163cd4e616760e01b815260040160405180910390fd5b6107d0821115620007c55760405163cd4e616760e01b815260040160405180910390fd5b606a839055606e829055606981905560408051848152602081018490529081018290527f9acd433700d7c453418ccd79bbddff52bbe5016e018b305f7275172df8c5d664906060016200054a565b6000620008216000620009f1565b6000620008366067546001600160a01b031690565b6001600160a01b0316036200085e5760405163d92e233d60e01b815260040160405180910390fd5b6068546001600160a01b031660006200087d85858c8c8c8c8c62000f0e565b6040516312b5ad0160e11b81526001600160a01b03808316600483015291925060009184169063256b5a02906024016020604051808303816000875af1158015620008cc573d6000803e3d6000fd5b505050506040513d601f19601f82011682018060405250810190620008f29190620013c8565b604051632142170760e11b81523360048201526001600160a01b038481166024830152604482018d9052919250908c16906342842e0e90606401600060405180830381600087803b1580156200094757600080fd5b505af11580156200095c573d6000803e3d6000fd5b50505050807f220044f302cf7fe455029c3b05386aa5d8020bdeb160379089b81b53ed95693d33848e8e8e8e8d8d604051620009a098979695949392919062001432565b60405180910390a2509998505050505050505050565b6033546001600160a01b03163314620009e35760405162461bcd60e51b81526004016200068b9062001393565b620009ef60006200102f565b565b60008181526066602052604090205460ff16801562000a1b57506033546001600160a01b03163314155b156200069f576040516313d0ff5960e31b815260040160405180910390fd5b6033546001600160a01b0316331462000a675760405162461bcd60e51b81526004016200068b9062001393565b6201518087108062000a7b5750606d548710155b1562000a9a5760405163568324c160e01b815260040160405180910390fd5b6249d40088118062000aae57506070548811155b1562000acd57604051639337d06760e01b815260040160405180910390fd5b606f54861062000af05760405163943260ad60e01b815260040160405180910390fd5b607254851162000b1357604051636db012dd60e01b815260040160405180910390fd5b6103e884118062000b245750606484105b1562000b43576040516315958edd60e21b815260040160405180910390fd5b61271083111562000b6757604051630d39c36360e11b815260040160405180910390fd5b600a81101562000b8a57604051630997be8760e21b815260040160405180910390fd5b606d88905560708790556072869055606f85905560718490556073839055606c829055606b8190556040805189815260208101899052908101879052606081018690526080810185905260a0810184905260c0810183905260e081018290527fa1927a9505419e03e733009247c2d2085634a33047cfe73787bcc983e823e311906101000160405180910390a15050505050505050565b6033546001600160a01b0316331462000c4e5760405162461bcd60e51b81526004016200068b9062001393565b6001600160a01b03811662000cb55760405162461bcd60e51b815260206004820152602660248201527f4f776e61626c653a206e6577206f776e657220697320746865207a65726f206160448201526564647265737360d01b60648201526084016200068b565b6200069f816200102f565b6033546001600160a01b0316331462000ced5760405162461bcd60e51b81526004016200068b9062001393565b6000818152606660209081526040808320805460ff191690558051848152918201929092527f77f1fcfcce67dc392d64f842056d2ec06c80986c47c910f7e79c5b23a2738d74910162000653565b60008054610100900460ff161562000d87578160ff16600114801562000d605750303b155b62000d7f5760405162461bcd60e51b81526004016200068b90620014a3565b506000919050565b60005460ff80841691161062000db15760405162461bcd60e51b81526004016200068b90620014a3565b506000805460ff191660ff92909216919091179055600190565b919050565b600062000dde600162000d3b565b9050801562000df7576000805461ff0019166101001790555b62000e0162001081565b80156200069f576000805461ff0019169055604051600181527f7f26b83ff96e1f2b6a682f133852f6798a09c465da95921460cefb38474024989060200162000653565b6001600160a01b0381163b62000ec45760405162461bcd60e51b815260206004820152603960248201527f5570677261646561626c65426561636f6e3a206368696c6420696d706c656d6560448201527f6e746174696f6e206973206e6f74206120636f6e74726163740000000000000060648201526084016200068b565b606780546001600160a01b0319166001600160a01b0383169081179091556040517fbc7cd75a20ee27fd9adebab32041f755214dbc6bffa90cc0225b39da2e5c2d3b90600090a250565b6000806386a777ab8989338a8a8a8a8a60405160240162000f37989796959493929190620014f1565b6040516020818303038152906040529060e01b6020820180516001600160e01b03838183161783525050505090506000308260405162000f7790620010e4565b62000f8492919062001559565b604051809103906000f08015801562000fa1573d6000803e3d6000fd5b509050806001600160a01b031663f2fde38b62000fc66033546001600160a01b031690565b6040516001600160e01b031960e084901b1681526001600160a01b039091166004820152602401600060405180830381600087803b1580156200100857600080fd5b505af11580156200101d573d6000803e3d6000fd5b50929c9b505050505050505050505050565b603380546001600160a01b038381166001600160a01b0319831681179093556040519116919082907f8be0079c531659141344cd1fd0a4f28419497f9722a3daafe3b4186f6b6457e090600090a35050565b600054610100900460ff16620010ab5760405162461bcd60e51b81526004016200068b9062001587565b620009ef600054610100900460ff16620010d95760405162461bcd60e51b81526004016200068b9062001587565b620009ef336200102f565b6108c680620015d383390190565b80356001600160a01b038116811462000dcb57600080fd5b6000602082840312156200111d57600080fd5b6200112882620010f2565b9392505050565b600080604083850312156200114357600080fd5b6200114e83620010f2565b91506200115e60208401620010f2565b90509250929050565b6000602082840312156200117a57600080fd5b5035919050565b600080604083850312156200119557600080fd5b620011a083620010f2565b915060208301358015158114620011b657600080fd5b809150509250929050565b600080600060608486031215620011d757600080fd5b505081359360208301359350604090920135919050565b634e487b7160e01b600052604160045260246000fd5b600082601f8301126200121657600080fd5b813567ffffffffffffffff80821115620012345762001234620011ee565b604051601f8301601f19908116603f011681019082821181831017156200125f576200125f620011ee565b816040528381528660208588010111156200127957600080fd5b836020870160208301376000602085830101528094505050505092915050565b600080600080600080600060e0888a031215620012b557600080fd5b620012c088620010f2565b96506020880135955060408801359450606088013593506080880135925060a088013567ffffffffffffffff80821115620012fa57600080fd5b620013088b838c0162001204565b935060c08a01359150808211156200131f57600080fd5b506200132e8a828b0162001204565b91505092959891949750929550565b600080600080600080600080610100898b0312156200135b57600080fd5b505086359860208801359850604088013597606081013597506080810135965060a0810135955060c0810135945060e0013592509050565b6020808252818101527f4f776e61626c653a2063616c6c6572206973206e6f7420746865206f776e6572604082015260600190565b600060208284031215620013db57600080fd5b5051919050565b6000815180845260005b818110156200140a57602081850181015186830182015201620013ec565b818111156200141d576000602083870101525b50601f01601f19169290920160200192915050565b6001600160a01b038981168252888116602083015287166040820152606081018690526080810185905260a0810184905261010060c082018190526000906200147e83820186620013e2565b905082810360e0840152620014948185620013e2565b9b9a5050505050505050505050565b6020808252602e908201527f496e697469616c697a61626c653a20636f6e747261637420697320616c72656160408201526d191e481a5b9a5d1a585b1a5e995960921b606082015260800190565b6000610100808352620015078184018c620013e2565b905082810360208401526200151d818b620013e2565b6001600160a01b03998a16604085015297909816606083015250608081019490945260a084019290925260c083015260e0909101529392505050565b6001600160a01b03831681526040602082018190526000906200157f90830184620013e2565b949350505050565b6020808252602b908201527f496e697469616c697a61626c653a20636f6e7472616374206973206e6f74206960408201526a6e697469616c697a696e6760a81b60608201526080019056fe60806040526040516108c63803806108c68339810160408190526100229161042a565b61004d60017fa3f0ad74e5423aebfd80d3ef4346578335a9a72aeaee59ff6cb3582b35133d516104ea565b600080516020610885833981519152146100695761006961050f565b610073828261007a565b505061058f565b61008d8261022660201b6100291760201c565b6100ec5760405162461bcd60e51b815260206004820152602560248201527f426561636f6e50726f78793a20626561636f6e206973206e6f74206120636f6e6044820152641d1c9858dd60da1b60648201526084015b60405180910390fd5b610160826001600160a01b031663da5257166040518163ffffffff1660e01b8152600401602060405180830381865afa15801561012d573d6000803e3d6000fd5b505050506040513d601f19601f820116820180604052508101906101519190610525565b61022660201b6100291760201c565b6101d25760405162461bcd60e51b815260206004820152603460248201527f426561636f6e50726f78793a20626561636f6e20696d706c656d656e7461746960448201527f6f6e206973206e6f74206120636f6e747261637400000000000000000000000060648201526084016100e3565b6000805160206108858339815191528281558151156102215761021f6101f6610235565b836040518060600160405280602181526020016108a5602191396102b360201b6100381760201c565b505b505050565b6001600160a01b03163b151590565b600061024d6000805160206108858339815191525490565b6001600160a01b031663da5257166040518163ffffffff1660e01b8152600401602060405180830381865afa15801561028a573d6000803e3d6000fd5b505050506040513d601f19601f820116820180604052508101906102ae9190610525565b905090565b60606001600160a01b0384163b61031b5760405162461bcd60e51b815260206004820152602660248201527f416464726573733a2064656c65676174652063616c6c20746f206e6f6e2d636f6044820152651b9d1c9858dd60d21b60648201526084016100e3565b600080856001600160a01b0316856040516103369190610540565b600060405180830381855af49150503d8060008114610371576040519150601f19603f3d011682016040523d82523d6000602084013e610376565b606091505b509092509050610387828286610393565b925050505b9392505050565b606083156103a257508161038c565b8251156103b25782518084602001fd5b8160405162461bcd60e51b81526004016100e3919061055c565b80516001600160a01b03811681146103e357600080fd5b919050565b634e487b7160e01b600052604160045260246000fd5b60005b83811015610419578181015183820152602001610401565b8381111561021f5750506000910152565b6000806040838503121561043d57600080fd5b610446836103cc565b60208401519092506001600160401b038082111561046357600080fd5b818501915085601f83011261047757600080fd5b815181811115610489576104896103e8565b604051601f8201601f19908116603f011681019083821181831017156104b1576104b16103e8565b816040528281528860208487010111156104ca57600080fd5b6104db8360208301602088016103fe565b80955050505050509250929050565b60008282101561050a57634e487b7160e01b600052601160045260246000fd5b500390565b634e487b7160e01b600052600160045260246000fd5b60006020828403121561053757600080fd5b61038c826103cc565b600082516105528184602087016103fe565b9190910192915050565b602081526000825180602084015261057b8160408501602087016103fe565b601f01601f19169190910160400192915050565b6102e78061059e6000396000f3fe60806040523661001357610011610017565b005b6100115b61002761002261011c565b6101ac565b565b6001600160a01b03163b151590565b60606001600160a01b0384163b6100a55760405162461bcd60e51b815260206004820152602660248201527f416464726573733a2064656c65676174652063616c6c20746f206e6f6e2d636f6044820152651b9d1c9858dd60d21b60648201526084015b60405180910390fd5b600080856001600160a01b0316856040516100c09190610239565b600060405180830381855af49150503d80600081146100fb576040519150601f19603f3d011682016040523d82523d6000602084013e610100565b606091505b50915091506101108282866101d0565b925050505b9392505050565b60006101467fa3f0ad74e5423aebfd80d3ef4346578335a9a72aeaee59ff6cb3582b35133d505490565b6001600160a01b031663da5257166040518163ffffffff1660e01b8152600401602060405180830381865afa158015610183573d6000803e3d6000fd5b505050506040513d601f19601f820116820180604052508101906101a79190610255565b905090565b3660008037600080366000845af43d6000803e8080156101cb573d6000f35b3d6000fd5b606083156101df575081610115565b8251156101ef5782518084602001fd5b8160405162461bcd60e51b815260040161009c919061027e565b60005b8381101561022457818101518382015260200161020c565b83811115610233576000848401525b50505050565b6000825161024b818460208701610209565b9190910192915050565b60006020828403121561026757600080fd5b81516001600160a01b038116811461011557600080fd5b602081526000825180602084015261029d816040850160208701610209565b601f01601f1916919091016040019291505056fea2646970667358221220f8229659447c762e7a87e74215956d58f6e585f6775523d0543037f8a20f99c664736f6c634300080d0033a3f0ad74e5423aebfd80d3ef4346578335a9a72aeaee59ff6cb3582b35133d50426561636f6e50726f78793a2066756e6374696f6e2063616c6c206661696c6564a2646970667358221220db76f6185e961eab1fa3fa3e87ab09f5cbac46a4b22c157cc9844a342b5f5c0b64736f6c634300080d0033",
  "devdoc": {
    "kind": "dev",
    "methods": {
      "childImplementation()": {
        "details": "Returns the current child implementation address."
      },
      "createVault(address,uint256,uint256,uint256,uint256,string,string)": {
        "params": {
          "_fee": "curator fee",
          "_listPrice": "the initial price of the NFT",
          "_name": "the desired name of the vault",
          "_nft": "the ERC721 token address",
          "_supply": "vault token supply",
          "_symbol": "the desired symbol of the vault",
          "_tokenId": "the uint256 id of the token"
        },
        "returns": {
          "_0": "vaultId"
        }
      },
      "owner()": {
        "details": "Returns the address of the current owner."
      },
      "renounceOwnership()": {
        "details": "Leaves the contract without owner. It will not be possible to call `onlyOwner` functions anymore. Can only be called by the current owner. NOTE: Renouncing ownership will leave the contract without an owner, thereby removing any functionality that is only available to the owner."
      },
      "transferOwnership(address)": {
        "details": "Transfers ownership of the contract to a new account (`newOwner`). Can only be called by the current owner."
      },
      "upgradeChildTo(address)": {
        "details": "Upgrades the beacon to a new implementation. Emits an {Upgraded} event. Requirements: - msg.sender must be the owner of the contract. - `newChildImplementation` must be a contract."
      }
    },
    "version": 1
  },
  "userdoc": {
    "kind": "user",
    "methods": {
      "createVault(address,uint256,uint256,uint256,uint256,string,string)": {
        "notice": "the function to mint a fnftSingle"
      },
      "flashLoanFee()": {
        "notice": "flash loan fee basis point"
      },
      "governanceFee()": {
        "notice": "governance fee max"
      },
      "instantBuyMultiplier()": {
        "notice": "instant buy allowed if bid > MC * instantBuyMultiplier"
      },
      "liquidityThreshold()": {
        "notice": "minimum size of FNFT-ETH LP pool for TWAP to take effect"
      },
      "maxAuctionLength()": {
        "notice": "the maximum auction length"
      },
      "maxCuratorFee()": {
        "notice": "max curator fee"
      },
      "maxReserveFactor()": {
        "notice": "the max % increase over the initial"
      },
      "minAuctionLength()": {
        "notice": "the minimum auction length"
      },
      "minBidIncrease()": {
        "notice": "the % bid increase required for a new bid"
      },
      "minReserveFactor()": {
        "notice": "the max % decrease from the initial"
      },
      "minVotePercentage()": {
        "notice": "the % of tokens required to be voting for an auction to start"
      }
    },
    "version": 1
  },
  "storageLayout": {
    "storage": [
      {
        "astId": 274,
        "contract": "src/contracts/FNFTSingleFactory.sol:FNFTSingleFactory",
        "label": "_initialized",
        "offset": 0,
        "slot": "0",
        "type": "t_uint8"
      },
      {
        "astId": 277,
        "contract": "src/contracts/FNFTSingleFactory.sol:FNFTSingleFactory",
        "label": "_initializing",
        "offset": 1,
        "slot": "0",
        "type": "t_bool"
      },
      {
        "astId": 2270,
        "contract": "src/contracts/FNFTSingleFactory.sol:FNFTSingleFactory",
        "label": "__gap",
        "offset": 0,
        "slot": "1",
        "type": "t_array(t_uint256)50_storage"
      },
      {
        "astId": 10,
        "contract": "src/contracts/FNFTSingleFactory.sol:FNFTSingleFactory",
        "label": "_owner",
        "offset": 0,
        "slot": "51",
        "type": "t_address"
      },
      {
        "astId": 122,
        "contract": "src/contracts/FNFTSingleFactory.sol:FNFTSingleFactory",
        "label": "__gap",
        "offset": 0,
        "slot": "52",
        "type": "t_array(t_uint256)49_storage"
      },
      {
        "astId": 30164,
        "contract": "src/contracts/FNFTSingleFactory.sol:FNFTSingleFactory",
        "label": "isGuardian",
        "offset": 0,
        "slot": "101",
        "type": "t_mapping(t_address,t_bool)"
      },
      {
        "astId": 30168,
        "contract": "src/contracts/FNFTSingleFactory.sol:FNFTSingleFactory",
        "label": "isPaused",
        "offset": 0,
        "slot": "102",
        "type": "t_mapping(t_uint256,t_bool)"
      },
      {
        "astId": 26709,
        "contract": "src/contracts/FNFTSingleFactory.sol:FNFTSingleFactory",
        "label": "_childImplementation",
        "offset": 0,
        "slot": "103",
        "type": "t_address"
      },
      {
        "astId": 12543,
        "contract": "src/contracts/FNFTSingleFactory.sol:FNFTSingleFactory",
        "label": "vaultManager",
        "offset": 0,
        "slot": "104",
        "type": "t_contract(IVaultManager)23264"
      },
      {
        "astId": 12547,
        "contract": "src/contracts/FNFTSingleFactory.sol:FNFTSingleFactory",
        "label": "flashLoanFee",
        "offset": 0,
        "slot": "105",
        "type": "t_uint256"
      },
      {
        "astId": 12551,
        "contract": "src/contracts/FNFTSingleFactory.sol:FNFTSingleFactory",
        "label": "governanceFee",
        "offset": 0,
        "slot": "106",
        "type": "t_uint256"
      },
      {
        "astId": 12555,
        "contract": "src/contracts/FNFTSingleFactory.sol:FNFTSingleFactory",
        "label": "instantBuyMultiplier",
        "offset": 0,
        "slot": "107",
        "type": "t_uint256"
      },
      {
        "astId": 12559,
        "contract": "src/contracts/FNFTSingleFactory.sol:FNFTSingleFactory",
        "label": "liquidityThreshold",
        "offset": 0,
        "slot": "108",
        "type": "t_uint256"
      },
      {
        "astId": 12563,
        "contract": "src/contracts/FNFTSingleFactory.sol:FNFTSingleFactory",
        "label": "maxAuctionLength",
        "offset": 0,
        "slot": "109",
        "type": "t_uint256"
      },
      {
        "astId": 12567,
        "contract": "src/contracts/FNFTSingleFactory.sol:FNFTSingleFactory",
        "label": "maxCuratorFee",
        "offset": 0,
        "slot": "110",
        "type": "t_uint256"
      },
      {
        "astId": 12571,
        "contract": "src/contracts/FNFTSingleFactory.sol:FNFTSingleFactory",
        "label": "maxReserveFactor",
        "offset": 0,
        "slot": "111",
        "type": "t_uint256"
      },
      {
        "astId": 12575,
        "contract": "src/contracts/FNFTSingleFactory.sol:FNFTSingleFactory",
        "label": "minAuctionLength",
        "offset": 0,
        "slot": "112",
        "type": "t_uint256"
      },
      {
        "astId": 12579,
        "contract": "src/contracts/FNFTSingleFactory.sol:FNFTSingleFactory",
        "label": "minBidIncrease",
        "offset": 0,
        "slot": "113",
        "type": "t_uint256"
      },
      {
        "astId": 12583,
        "contract": "src/contracts/FNFTSingleFactory.sol:FNFTSingleFactory",
        "label": "minReserveFactor",
        "offset": 0,
        "slot": "114",
        "type": "t_uint256"
      },
      {
        "astId": 12587,
        "contract": "src/contracts/FNFTSingleFactory.sol:FNFTSingleFactory",
        "label": "minVotePercentage",
        "offset": 0,
        "slot": "115",
        "type": "t_uint256"
      }
    ],
    "types": {
      "t_address": {
        "encoding": "inplace",
        "label": "address",
        "numberOfBytes": "20"
      },
      "t_array(t_uint256)49_storage": {
        "base": "t_uint256",
        "encoding": "inplace",
        "label": "uint256[49]",
        "numberOfBytes": "1568"
      },
      "t_array(t_uint256)50_storage": {
        "base": "t_uint256",
        "encoding": "inplace",
        "label": "uint256[50]",
        "numberOfBytes": "1600"
      },
      "t_bool": {
        "encoding": "inplace",
        "label": "bool",
        "numberOfBytes": "1"
      },
      "t_contract(IVaultManager)23264": {
        "encoding": "inplace",
        "label": "contract IVaultManager",
        "numberOfBytes": "20"
      },
      "t_mapping(t_address,t_bool)": {
        "encoding": "mapping",
        "key": "t_address",
        "label": "mapping(address => bool)",
        "numberOfBytes": "32",
        "value": "t_bool"
      },
      "t_mapping(t_uint256,t_bool)": {
        "encoding": "mapping",
        "key": "t_uint256",
        "label": "mapping(uint256 => bool)",
        "numberOfBytes": "32",
        "value": "t_bool"
      },
      "t_uint256": {
        "encoding": "inplace",
        "label": "uint256",
        "numberOfBytes": "32"
      },
      "t_uint8": {
        "encoding": "inplace",
        "label": "uint8",
        "numberOfBytes": "1"
      }
    }
  }
}