{
  "address": "0x1c9fD50dF7a4f066884b58A05D91e4b55005876A",
  "abi": [
    {
      "inputs": [],
      "name": "AuctionEnded",
      "type": "error"
    },
    {
      "inputs": [],
      "name": "AuctionLive",
      "type": "error"
    },
    {
      "inputs": [],
      "name": "AuctionNotEnded",
      "type": "error"
    },
    {
      "inputs": [],
      "name": "AuctionNotLive",
      "type": "error"
    },
    {
      "inputs": [],
      "name": "BidTooLow",
      "type": "error"
    },
    {
      "inputs": [],
      "name": "CanNotRaise",
      "type": "error"
    },
    {
      "inputs": [],
      "name": "ExceedsMaxFlashLoan",
      "type": "error"
    },
    {
      "inputs": [],
      "name": "FeeTooHigh",
      "type": "error"
    },
    {
      "inputs": [],
      "name": "FlashLoanNotRepaid",
      "type": "error"
    },
    {
      "inputs": [],
      "name": "InvalidAuctionLength",
      "type": "error"
    },
    {
      "inputs": [],
      "name": "InvalidFlashLoanReturnValue",
      "type": "error"
    },
    {
      "inputs": [],
      "name": "InvalidToken",
      "type": "error"
    },
    {
      "inputs": [],
      "name": "NoTokens",
      "type": "error"
    },
    {
      "inputs": [],
      "name": "NotAnUpdate",
      "type": "error"
    },
    {
      "inputs": [],
      "name": "NotCurator",
      "type": "error"
    },
    {
      "inputs": [],
      "name": "NotEnoughETH",
      "type": "error"
    },
    {
      "inputs": [],
      "name": "NotEnoughVoters",
      "type": "error"
    },
    {
      "inputs": [],
      "name": "NotOwner",
      "type": "error"
    },
    {
      "inputs": [],
      "name": "Paused",
      "type": "error"
    },
    {
      "inputs": [],
      "name": "PriceTooHigh",
      "type": "error"
    },
    {
      "inputs": [],
      "name": "PriceTooLow",
      "type": "error"
    },
    {
      "inputs": [],
      "name": "SameCurator",
      "type": "error"
    },
    {
      "inputs": [],
      "name": "ZeroAddress",
      "type": "error"
    },
    {
      "anonymous": false,
      "inputs": [
        {
          "indexed": true,
          "internalType": "address",
          "name": "owner",
          "type": "address"
        },
        {
          "indexed": true,
          "internalType": "address",
          "name": "spender",
          "type": "address"
        },
        {
          "indexed": false,
          "internalType": "uint256",
          "name": "value",
          "type": "uint256"
        }
      ],
      "name": "Approval",
      "type": "event"
    },
    {
      "anonymous": false,
      "inputs": [
        {
          "indexed": false,
          "internalType": "uint256",
          "name": "length",
          "type": "uint256"
        }
      ],
      "name": "AuctionLengthUpdated",
      "type": "event"
    },
    {
      "anonymous": false,
      "inputs": [
        {
          "indexed": true,
          "internalType": "address",
          "name": "buyer",
          "type": "address"
        },
        {
          "indexed": false,
          "internalType": "uint256",
          "name": "price",
          "type": "uint256"
        }
      ],
      "name": "AuctionStarted",
      "type": "event"
    },
    {
      "anonymous": false,
      "inputs": [
        {
          "indexed": true,
          "internalType": "address",
          "name": "buyer",
          "type": "address"
        },
        {
          "indexed": false,
          "internalType": "uint256",
          "name": "price",
          "type": "uint256"
        }
      ],
      "name": "AuctionWon",
      "type": "event"
    },
    {
      "anonymous": false,
      "inputs": [
        {
          "indexed": true,
          "internalType": "address",
          "name": "buyer",
          "type": "address"
        },
        {
          "indexed": false,
          "internalType": "uint256",
          "name": "price",
          "type": "uint256"
        }
      ],
      "name": "BidMade",
      "type": "event"
    },
    {
      "anonymous": false,
      "inputs": [
        {
          "indexed": true,
          "internalType": "address",
          "name": "owner",
          "type": "address"
        },
        {
          "indexed": false,
          "internalType": "uint256",
          "name": "shares",
          "type": "uint256"
        }
      ],
      "name": "CashWithdrawn",
      "type": "event"
    },
    {
      "anonymous": false,
      "inputs": [
        {
          "indexed": false,
          "internalType": "uint256",
          "name": "curatorFee",
          "type": "uint256"
        }
      ],
      "name": "CuratorFeeClaimed",
      "type": "event"
    },
    {
      "anonymous": false,
      "inputs": [
        {
          "indexed": false,
          "internalType": "uint256",
          "name": "curatorFee",
          "type": "uint256"
        }
      ],
      "name": "CuratorFeeUpdated",
      "type": "event"
    },
    {
      "anonymous": false,
      "inputs": [
        {
          "indexed": true,
          "internalType": "address",
          "name": "oldCurator",
          "type": "address"
        },
        {
          "indexed": true,
          "internalType": "address",
          "name": "newCurator",
          "type": "address"
        }
      ],
      "name": "CuratorKicked",
      "type": "event"
    },
    {
      "anonymous": false,
      "inputs": [
        {
          "indexed": true,
          "internalType": "address",
          "name": "oldCurator",
          "type": "address"
        },
        {
          "indexed": true,
          "internalType": "address",
          "name": "newCurator",
          "type": "address"
        }
      ],
      "name": "CuratorUpdated",
      "type": "event"
    },
    {
      "anonymous": false,
      "inputs": [
        {
          "indexed": false,
          "internalType": "uint8",
          "name": "version",
          "type": "uint8"
        }
      ],
      "name": "Initialized",
      "type": "event"
    },
    {
      "anonymous": false,
      "inputs": [
        {
          "indexed": true,
          "internalType": "address",
          "name": "previousOwner",
          "type": "address"
        },
        {
          "indexed": true,
          "internalType": "address",
          "name": "newOwner",
          "type": "address"
        }
      ],
      "name": "OwnershipTransferred",
      "type": "event"
    },
    {
      "anonymous": false,
      "inputs": [
        {
          "indexed": true,
          "internalType": "address",
          "name": "user",
          "type": "address"
        },
        {
          "indexed": false,
          "internalType": "uint256",
          "name": "price",
          "type": "uint256"
        }
      ],
      "name": "PriceUpdated",
      "type": "event"
    },
    {
      "anonymous": false,
      "inputs": [
        {
          "indexed": true,
          "internalType": "address",
          "name": "redeemer",
          "type": "address"
        }
      ],
      "name": "TokenRedeemed",
      "type": "event"
    },
    {
      "anonymous": false,
      "inputs": [
        {
          "indexed": true,
          "internalType": "address",
          "name": "from",
          "type": "address"
        },
        {
          "indexed": true,
          "internalType": "address",
          "name": "to",
          "type": "address"
        },
        {
          "indexed": false,
          "internalType": "uint256",
          "name": "value",
          "type": "uint256"
        }
      ],
      "name": "Transfer",
      "type": "event"
    },
    {
      "anonymous": false,
      "inputs": [
        {
          "indexed": false,
          "internalType": "bool",
          "name": "verified",
          "type": "bool"
        }
      ],
      "name": "Verified",
      "type": "event"
    },
    {
      "inputs": [
        {
          "internalType": "string",
          "name": "_name",
          "type": "string"
        },
        {
          "internalType": "string",
          "name": "_symbol",
          "type": "string"
        },
        {
          "internalType": "address",
          "name": "_curator",
          "type": "address"
        },
        {
          "internalType": "address",
          "name": "_token",
          "type": "address"
        },
        {
          "internalType": "uint256",
          "name": "_tokenId",
          "type": "uint256"
        },
        {
          "internalType": "uint256",
          "name": "_supply",
          "type": "uint256"
        },
        {
          "internalType": "uint256",
          "name": "_listPrice",
          "type": "uint256"
        },
        {
          "internalType": "uint256",
          "name": "_curatorFee",
          "type": "uint256"
        }
      ],
      "name": "__FNFTSingle_init",
      "outputs": [],
      "stateMutability": "nonpayable",
      "type": "function"
    },
    {
      "inputs": [
        {
          "internalType": "address",
          "name": "owner",
          "type": "address"
        },
        {
          "internalType": "address",
          "name": "spender",
          "type": "address"
        }
      ],
      "name": "allowance",
      "outputs": [
        {
          "internalType": "uint256",
          "name": "",
          "type": "uint256"
        }
      ],
      "stateMutability": "view",
      "type": "function"
    },
    {
      "inputs": [
        {
          "internalType": "address",
          "name": "spender",
          "type": "address"
        },
        {
          "internalType": "uint256",
          "name": "amount",
          "type": "uint256"
        }
      ],
      "name": "approve",
      "outputs": [
        {
          "internalType": "bool",
          "name": "",
          "type": "bool"
        }
      ],
      "stateMutability": "nonpayable",
      "type": "function"
    },
    {
      "inputs": [],
      "name": "auctionEnd",
      "outputs": [
        {
          "internalType": "uint256",
          "name": "",
          "type": "uint256"
        }
      ],
      "stateMutability": "view",
      "type": "function"
    },
    {
      "inputs": [],
      "name": "auctionLength",
      "outputs": [
        {
          "internalType": "uint256",
          "name": "",
          "type": "uint256"
        }
      ],
      "stateMutability": "view",
      "type": "function"
    },
    {
      "inputs": [],
      "name": "auctionState",
      "outputs": [
        {
          "internalType": "enum IFNFTSingle.State",
          "name": "",
          "type": "uint8"
        }
      ],
      "stateMutability": "view",
      "type": "function"
    },
    {
      "inputs": [
        {
          "internalType": "address",
          "name": "account",
          "type": "address"
        }
      ],
      "name": "balanceOf",
      "outputs": [
        {
          "internalType": "uint256",
          "name": "",
          "type": "uint256"
        }
      ],
      "stateMutability": "view",
      "type": "function"
    },
    {
      "inputs": [],
      "name": "bid",
      "outputs": [],
      "stateMutability": "payable",
      "type": "function"
    },
    {
      "inputs": [],
      "name": "buyItNow",
      "outputs": [],
      "stateMutability": "payable",
      "type": "function"
    },
    {
      "inputs": [],
      "name": "buyItNowPrice",
      "outputs": [
        {
          "internalType": "uint256",
          "name": "",
          "type": "uint256"
        }
      ],
      "stateMutability": "view",
      "type": "function"
    },
    {
      "inputs": [],
      "name": "cash",
      "outputs": [],
      "stateMutability": "nonpayable",
      "type": "function"
    },
    {
      "inputs": [],
      "name": "claimCuratorFees",
      "outputs": [],
      "stateMutability": "nonpayable",
      "type": "function"
    },
    {
      "inputs": [],
      "name": "curator",
      "outputs": [
        {
          "internalType": "address",
          "name": "",
          "type": "address"
        }
      ],
      "stateMutability": "view",
      "type": "function"
    },
    {
      "inputs": [],
      "name": "curatorFee",
      "outputs": [
        {
          "internalType": "uint256",
          "name": "",
          "type": "uint256"
        }
      ],
      "stateMutability": "view",
      "type": "function"
    },
    {
      "inputs": [],
      "name": "decimals",
      "outputs": [
        {
          "internalType": "uint8",
          "name": "",
          "type": "uint8"
        }
      ],
      "stateMutability": "view",
      "type": "function"
    },
    {
      "inputs": [
        {
          "internalType": "address",
          "name": "spender",
          "type": "address"
        },
        {
          "internalType": "uint256",
          "name": "subtractedValue",
          "type": "uint256"
        }
      ],
      "name": "decreaseAllowance",
      "outputs": [
        {
          "internalType": "bool",
          "name": "",
          "type": "bool"
        }
      ],
      "stateMutability": "nonpayable",
      "type": "function"
    },
    {
      "inputs": [],
      "name": "end",
      "outputs": [],
      "stateMutability": "nonpayable",
      "type": "function"
    },
    {
      "inputs": [],
      "name": "factory",
      "outputs": [
        {
          "internalType": "contract IFNFTSingleFactory",
          "name": "",
          "type": "address"
        }
      ],
      "stateMutability": "view",
      "type": "function"
    },
    {
      "inputs": [
        {
          "internalType": "address",
          "name": "borrowedToken",
          "type": "address"
        },
        {
          "internalType": "uint256",
          "name": "amount",
          "type": "uint256"
        }
      ],
      "name": "flashFee",
      "outputs": [
        {
          "internalType": "uint256",
          "name": "",
          "type": "uint256"
        }
      ],
      "stateMutability": "view",
      "type": "function"
    },
    {
      "inputs": [
        {
          "internalType": "contract IERC3156FlashBorrowerUpgradeable",
          "name": "receiver",
          "type": "address"
        },
        {
          "internalType": "address",
          "name": "borrowedToken",
          "type": "address"
        },
        {
          "internalType": "uint256",
          "name": "amount",
          "type": "uint256"
        },
        {
          "internalType": "bytes",
          "name": "data",
          "type": "bytes"
        }
      ],
      "name": "flashLoan",
      "outputs": [
        {
          "internalType": "bool",
          "name": "",
          "type": "bool"
        }
      ],
      "stateMutability": "nonpayable",
      "type": "function"
    },
    {
      "inputs": [],
      "name": "getAuctionPrice",
      "outputs": [
        {
          "internalType": "uint256",
          "name": "",
          "type": "uint256"
        }
      ],
      "stateMutability": "view",
      "type": "function"
    },
    {
      "inputs": [],
      "name": "getQuorum",
      "outputs": [
        {
          "internalType": "uint256",
          "name": "",
          "type": "uint256"
        }
      ],
      "stateMutability": "view",
      "type": "function"
    },
    {
      "inputs": [
        {
          "internalType": "address",
          "name": "spender",
          "type": "address"
        },
        {
          "internalType": "uint256",
          "name": "addedValue",
          "type": "uint256"
        }
      ],
      "name": "increaseAllowance",
      "outputs": [
        {
          "internalType": "bool",
          "name": "",
          "type": "bool"
        }
      ],
      "stateMutability": "nonpayable",
      "type": "function"
    },
    {
      "inputs": [],
      "name": "initialReserve",
      "outputs": [
        {
          "internalType": "uint256",
          "name": "",
          "type": "uint256"
        }
      ],
      "stateMutability": "view",
      "type": "function"
    },
    {
      "inputs": [
        {
          "internalType": "address",
          "name": "_curator",
          "type": "address"
        }
      ],
      "name": "kickCurator",
      "outputs": [],
      "stateMutability": "nonpayable",
      "type": "function"
    },
    {
      "inputs": [],
      "name": "lastClaimed",
      "outputs": [
        {
          "internalType": "uint256",
          "name": "",
          "type": "uint256"
        }
      ],
      "stateMutability": "view",
      "type": "function"
    },
    {
      "inputs": [],
      "name": "livePrice",
      "outputs": [
        {
          "internalType": "uint256",
          "name": "",
          "type": "uint256"
        }
      ],
      "stateMutability": "view",
      "type": "function"
    },
    {
      "inputs": [
        {
          "internalType": "address",
          "name": "token",
          "type": "address"
        }
      ],
      "name": "maxFlashLoan",
      "outputs": [
        {
          "internalType": "uint256",
          "name": "",
          "type": "uint256"
        }
      ],
      "stateMutability": "view",
      "type": "function"
    },
    {
      "inputs": [],
      "name": "name",
      "outputs": [
        {
          "internalType": "string",
          "name": "",
          "type": "string"
        }
      ],
      "stateMutability": "view",
      "type": "function"
    },
    {
      "inputs": [
        {
          "internalType": "address",
          "name": "",
          "type": "address"
        },
        {
          "internalType": "address",
          "name": "",
          "type": "address"
        },
        {
          "internalType": "uint256",
          "name": "",
          "type": "uint256"
        },
        {
          "internalType": "bytes",
          "name": "",
          "type": "bytes"
        }
      ],
      "name": "onERC721Received",
      "outputs": [
        {
          "internalType": "bytes4",
          "name": "",
          "type": "bytes4"
        }
      ],
      "stateMutability": "nonpayable",
      "type": "function"
    },
    {
      "inputs": [],
      "name": "owner",
      "outputs": [
        {
          "internalType": "address",
          "name": "",
          "type": "address"
        }
      ],
      "stateMutability": "view",
      "type": "function"
    },
    {
      "inputs": [],
      "name": "pair",
      "outputs": [
        {
          "internalType": "contract IUniswapV2Pair",
          "name": "",
          "type": "address"
        }
      ],
      "stateMutability": "view",
      "type": "function"
    },
    {
      "inputs": [],
      "name": "redeem",
      "outputs": [],
      "stateMutability": "nonpayable",
      "type": "function"
    },
    {
      "inputs": [
        {
          "internalType": "address",
          "name": "_user",
          "type": "address"
        }
      ],
      "name": "removeReserve",
      "outputs": [],
      "stateMutability": "nonpayable",
      "type": "function"
    },
    {
      "inputs": [],
      "name": "renounceOwnership",
      "outputs": [],
      "stateMutability": "nonpayable",
      "type": "function"
    },
    {
      "inputs": [],
      "name": "reservePrice",
      "outputs": [
        {
          "internalType": "uint256",
          "name": "",
          "type": "uint256"
        }
      ],
      "stateMutability": "view",
      "type": "function"
    },
    {
      "inputs": [],
      "name": "reserveTotal",
      "outputs": [
        {
          "internalType": "uint256",
          "name": "",
          "type": "uint256"
        }
      ],
      "stateMutability": "view",
      "type": "function"
    },
    {
      "inputs": [
        {
          "internalType": "uint256",
          "name": "_length",
          "type": "uint256"
        }
      ],
      "name": "setAuctionLength",
      "outputs": [],
      "stateMutability": "nonpayable",
      "type": "function"
    },
    {
      "inputs": [
        {
          "internalType": "address",
          "name": "_curator",
          "type": "address"
        }
      ],
      "name": "setCurator",
      "outputs": [],
      "stateMutability": "nonpayable",
      "type": "function"
    },
    {
      "inputs": [
        {
          "internalType": "uint256",
          "name": "_curatorFee",
          "type": "uint256"
        }
      ],
      "name": "setFee",
      "outputs": [],
      "stateMutability": "nonpayable",
      "type": "function"
    },
    {
      "inputs": [
        {
          "internalType": "string",
          "name": "name_",
          "type": "string"
        },
        {
          "internalType": "string",
          "name": "symbol_",
          "type": "string"
        }
      ],
      "name": "setVaultMetadata",
      "outputs": [],
      "stateMutability": "nonpayable",
      "type": "function"
    },
    {
      "inputs": [],
      "name": "start",
      "outputs": [],
      "stateMutability": "payable",
      "type": "function"
    },
    {
      "inputs": [
        {
          "internalType": "bytes4",
          "name": "interfaceId",
          "type": "bytes4"
        }
      ],
      "name": "supportsInterface",
      "outputs": [
        {
          "internalType": "bool",
          "name": "",
          "type": "bool"
        }
      ],
      "stateMutability": "pure",
      "type": "function"
    },
    {
      "inputs": [],
      "name": "symbol",
      "outputs": [
        {
          "internalType": "string",
          "name": "",
          "type": "string"
        }
      ],
      "stateMutability": "view",
      "type": "function"
    },
    {
      "inputs": [],
      "name": "toggleVerified",
      "outputs": [],
      "stateMutability": "nonpayable",
      "type": "function"
    },
    {
      "inputs": [],
      "name": "token",
      "outputs": [
        {
          "internalType": "address",
          "name": "",
          "type": "address"
        }
      ],
      "stateMutability": "view",
      "type": "function"
    },
    {
      "inputs": [],
      "name": "tokenId",
      "outputs": [
        {
          "internalType": "uint256",
          "name": "",
          "type": "uint256"
        }
      ],
      "stateMutability": "view",
      "type": "function"
    },
    {
      "inputs": [],
      "name": "totalSupply",
      "outputs": [
        {
          "internalType": "uint256",
          "name": "",
          "type": "uint256"
        }
      ],
      "stateMutability": "view",
      "type": "function"
    },
    {
      "inputs": [
        {
          "internalType": "address",
          "name": "to",
          "type": "address"
        },
        {
          "internalType": "uint256",
          "name": "amount",
          "type": "uint256"
        }
      ],
      "name": "transfer",
      "outputs": [
        {
          "internalType": "bool",
          "name": "",
          "type": "bool"
        }
      ],
      "stateMutability": "nonpayable",
      "type": "function"
    },
    {
      "inputs": [
        {
          "internalType": "address",
          "name": "from",
          "type": "address"
        },
        {
          "internalType": "address",
          "name": "to",
          "type": "address"
        },
        {
          "internalType": "uint256",
          "name": "amount",
          "type": "uint256"
        }
      ],
      "name": "transferFrom",
      "outputs": [
        {
          "internalType": "bool",
          "name": "",
          "type": "bool"
        }
      ],
      "stateMutability": "nonpayable",
      "type": "function"
    },
    {
      "inputs": [
        {
          "internalType": "address",
          "name": "newOwner",
          "type": "address"
        }
      ],
      "name": "transferOwnership",
      "outputs": [],
      "stateMutability": "nonpayable",
      "type": "function"
    },
    {
      "inputs": [
        {
          "internalType": "uint256",
          "name": "newUserReserve",
          "type": "uint256"
        }
      ],
      "name": "updateUserPrice",
      "outputs": [],
      "stateMutability": "nonpayable",
      "type": "function"
    },
    {
      "inputs": [
        {
          "internalType": "address",
          "name": "",
          "type": "address"
        }
      ],
      "name": "userReservePrice",
      "outputs": [
        {
          "internalType": "uint256",
          "name": "",
          "type": "uint256"
        }
      ],
      "stateMutability": "view",
      "type": "function"
    },
    {
      "inputs": [],
      "name": "vaultId",
      "outputs": [
        {
          "internalType": "uint256",
          "name": "",
          "type": "uint256"
        }
      ],
      "stateMutability": "view",
      "type": "function"
    },
    {
      "inputs": [],
      "name": "vaultManager",
      "outputs": [
        {
          "internalType": "contract IVaultManager",
          "name": "",
          "type": "address"
        }
      ],
      "stateMutability": "view",
      "type": "function"
    },
    {
      "inputs": [],
      "name": "verified",
      "outputs": [
        {
          "internalType": "bool",
          "name": "",
          "type": "bool"
        }
      ],
      "stateMutability": "view",
      "type": "function"
    },
    {
      "inputs": [],
      "name": "votingTokens",
      "outputs": [
        {
          "internalType": "uint256",
          "name": "",
          "type": "uint256"
        }
      ],
      "stateMutability": "view",
      "type": "function"
    },
    {
      "inputs": [],
      "name": "winning",
      "outputs": [
        {
          "internalType": "address payable",
          "name": "",
          "type": "address"
        }
      ],
      "stateMutability": "view",
      "type": "function"
    }
  ],
  "transactionHash": "0x3061649987b2058851de4c1d3994a8a3ff3a0bbff82dec751a1bbedcc70e4fe5",
  "args": [],
  "numDeployments": 1,
  "solcInputHash": "961fec123a75984f6857e077cf799290",
  "bytecode": "0x608060405234801561001057600080fd5b5061437f806100206000396000f3fe6080604052600436106103815760003560e01c80638da5cb5b116101d1578063c45a015511610102578063e0a8b97a116100a0578063efbe1c1c1161006f578063efbe1c1c146109c5578063f2fde38b146109da578063f70a0938146109fa578063fc0c546a14610a0f57600080fd5b8063e0a8b97a1461094e578063e66f53b71461096e578063e6fd29821461098e578063e90956cf146109a557600080fd5b8063d1493b28116100dc578063d1493b28146108cc578063d9d98ce4146108f9578063db2e1eed14610919578063dd62ed3e1461092e57600080fd5b8063c45a015514610880578063caf787f2146108a0578063ce525a75146108b557600080fd5b8063adc1b9561161016f578063bbb82d8911610149578063bbb82d891461082c578063be040fb01461084e578063be9a655514610863578063c26c12eb1461086b57600080fd5b8063adc1b956146107e0578063b579605b146107f7578063b76b720e1461081757600080fd5b80639a4e6d34116101ab5780639a4e6d3414610764578063a457c2d71461077b578063a8aa1b311461079b578063a9059cbb146107c057600080fd5b80638da5cb5b1461071c57806395d89b411461073a578063961be3911461074f57600080fd5b8063416429f1116102b657806370a082311161025457806380436fe01161022357806380436fe014610683578063853a1b90146106a357806386a777ab146106dc5780638a4adf24146106fc57600080fd5b806370a08231146105fa578063715018a6146106305780637b5581ed146106455780637fb450991461065c57600080fd5b8063613255ab11610290578063613255ab1461058357806369fe0e2d146105a35780636a775714146105c35780636da84e6c146105e357600080fd5b8063416429f1146105465780634bd25c6f1461054e5780635cffe9de1461056357600080fd5b806323b872dd11610323578063313ce567116102fd578063313ce567146104dc578063325c25a2146104f857806333194c0a1461050f578063395093511461052657600080fd5b806323b872dd146104855780632a24f46c146104a55780632a44f120146104bc57600080fd5b8063150b7a021161035f578063150b7a02146103fd57806317d70f7c1461044157806318160ddd146104665780631998aeef1461047b57600080fd5b806301ffc9a71461038657806306fdde03146103bb578063095ea7b3146103dd575b600080fd5b34801561039257600080fd5b506103a66103a1366004613bf1565b610a30565b60405190151581526020015b60405180910390f35b3480156103c757600080fd5b506103d0610a67565b6040516103b29190613c1b565b3480156103e957600080fd5b506103a66103f8366004613c85565b610af9565b34801561040957600080fd5b50610428610418366004613d3d565b630a85bd0160e11b949350505050565b6040516001600160e01b031990911681526020016103b2565b34801561044d57600080fd5b506104586101055481565b6040519081526020016103b2565b34801561047257600080fd5b50606754610458565b610483610b11565b005b34801561049157600080fd5b506103a66104a0366004613dbd565b610ccd565b3480156104b157600080fd5b506104586101025481565b3480156104c857600080fd5b506104836104d7366004613dfe565b610cf1565b3480156104e857600080fd5b50604051601281526020016103b2565b34801561050457600080fd5b506104586101035481565b34801561051b57600080fd5b5061045861010a5481565b34801561053257600080fd5b506103a6610541366004613c85565b610dae565b610483610ded565b34801561055a57600080fd5b50610458610ffe565b34801561056f57600080fd5b506103a661057e366004613e64565b61100d565b34801561058f57600080fd5b5061045861059e366004613dfe565b6110b9565b3480156105af57600080fd5b506104836105be366004613ed7565b6110e1565b3480156105cf57600080fd5b506104836105de366004613ed7565b6111e8565b3480156105ef57600080fd5b506104586101085481565b34801561060657600080fd5b50610458610615366004613dfe565b6001600160a01b031660009081526065602052604090205490565b34801561063c57600080fd5b50610483611437565b34801561065157600080fd5b506104586101095481565b34801561066857600080fd5b5060fc546106769060ff1681565b6040516103b29190613f06565b34801561068f57600080fd5b5061048361069e366004613dfe565b61146d565b3480156106af57600080fd5b50610101546106c4906001600160a01b031681565b6040516001600160a01b0390911681526020016103b2565b3480156106e857600080fd5b506104836106f7366004613f4e565b6115a7565b34801561070857600080fd5b5060fd546106c4906001600160a01b031681565b34801561072857600080fd5b506033546001600160a01b03166106c4565b34801561074657600080fd5b506103d0611962565b34801561075b57600080fd5b50610483611971565b34801561077057600080fd5b5061045861010b5481565b34801561078757600080fd5b506103a6610796366004613c85565b611a51565b3480156107a757600080fd5b5060fc546106c49061010090046001600160a01b031681565b3480156107cc57600080fd5b506103a66107db366004613c85565b611ae3565b3480156107ec57600080fd5b506104586101075481565b34801561080357600080fd5b50610483610812366004613ed7565b611af1565b34801561082357600080fd5b50610483611c46565b34801561083857600080fd5b50610101546103a690600160a01b900460ff1681565b34801561085a57600080fd5b50610483611c58565b610483611d55565b34801561087757600080fd5b50610458611e39565b34801561088c57600080fd5b5060fe546106c4906001600160a01b031681565b3480156108ac57600080fd5b50610483611e43565b3480156108c157600080fd5b506104586101045481565b3480156108d857600080fd5b506104586108e7366004613dfe565b60fb6020526000908152604090205481565b34801561090557600080fd5b50610458610914366004613c85565b611ebe565b34801561092557600080fd5b50610458611f7f565b34801561093a57600080fd5b50610458610949366004613ffb565b611fa4565b34801561095a57600080fd5b50610483610969366004614034565b611fcf565b34801561097a57600080fd5b5060ff546106c4906001600160a01b031681565b34801561099a57600080fd5b506104586101065481565b3480156109b157600080fd5b506104836109c0366004613dfe565b612050565b3480156109d157600080fd5b506104836120e2565b3480156109e657600080fd5b506104836109f5366004613dfe565b61221a565b348015610a0657600080fd5b506104586122b5565b348015610a1b57600080fd5b50610100546106c4906001600160a01b031681565b60006001600160e01b03198216632db6e07160e21b1480610a6157506001600160e01b031982166301ffc9a760e01b145b92915050565b606060688054610a76906140a0565b80601f0160208091040260200160405190810160405280929190818152602001828054610aa2906140a0565b8015610aef5780601f10610ac457610100808354040283529160200191610aef565b820191906000526020600020905b815481529060010190602001808311610ad257829003601f168201915b5050505050905090565b600033610b0781858561234c565b5060019392505050565b610b1b6004612470565b600160fc5460ff166003811115610b3457610b34613ef0565b14610b52576040516358fd8d1160e01b815260040160405180910390fd5b60fe5460408051637c513c0f60e01b815290516000926001600160a01b031691637c513c0f9160048083019260209291908290030181865afa158015610b9c573d6000803e3d6000fd5b505050506040513d601f19601f82011682018060405250810190610bc091906140da565b610bcc90612710614109565b90508061010854610bdd9190614121565b610be934612710614121565b1015610c0857604051635069375b60e11b815260040160405180910390fd5b610102544210610c2b5760405163283a4a6160e21b815260040160405180910390fd5b6103844261010254610c3d9190614140565b11610c5d576103846101026000828254610c579190614109565b90915550505b6101015461010854610c78916001600160a01b031690612511565b3461010881905561010180546001600160a01b03191633908117909155604051918252907ff656495f96f16470da4a66d53837918bf922ec6c93e4bd9d393463fd535987f4906020015b60405180910390a250565b600033610cdb85828561265b565b610ce68585856126cf565b506001949350505050565b6033546001600160a01b03163314610d245760405162461bcd60e51b8152600401610d1b90614157565b60405180910390fd5b60ff546001600160a01b03808316911603610d5257604051635e39359760e01b815260040160405180910390fd5b60ff546040516001600160a01b038084169216907f742c208dc7291d402fbf5e5dbb8774ad7f5d0bc924fc32f148277bedbf08c73190600090a360ff80546001600160a01b0319166001600160a01b0392909216919091179055565b3360008181526066602090815260408083206001600160a01b0387168452909152812054909190610b079082908690610de8908790614109565b61234c565b610df76003612470565b600060fc5460ff166003811115610e1057610e10613ef0565b14610e2e57604051631c2ce4fd60e01b815260040160405180910390fd5b6000610e386122b5565b905080600003610e5b57604051636dddf41160e11b815260040160405180910390fd5b80341015610e7c57604051632c1d501360e11b815260040160405180910390fd5b610e846128ae565b60fd60009054906101000a90046001600160a01b03166001600160a01b031663ad5c46486040518163ffffffff1660e01b8152600401602060405180830381865afa158015610ed7573d6000803e3d6000fd5b505050506040513d601f19601f82011682018060405250810190610efb919061418c565b6001600160a01b031663d0e30db0346040518263ffffffff1660e01b81526004016000604051808303818588803b158015610f3557600080fd5b505af1158015610f49573d6000803e3d6000fd5b505061010054610105546040516323b872dd60e01b815230600482015233602482015260448101919091526001600160a01b0390911693506323b872dd92506064019050600060405180830381600087803b158015610fa757600080fd5b505af1158015610fbb573d6000803e3d6000fd5b505060fc805460ff19166002179055505060405181815233907fa7f57fa38c1f675856eb8c2460c87aa01ecd63c51d4c817d4389cd5789ccc44b90602001610cc2565b6000611008612b2d565b905090565b60006110196005612470565b60fd546040516306df336560e51b81526001600160a01b038881166004830152600092169063dbe66ca090602401602060405180830381865afa158015611064573d6000803e3d6000fd5b505050506040513d601f19601f8201168201806040525081019061108891906141a9565b61109b576110968686611ebe565b61109e565b60005b90506110ae878787848888612dd0565b979650505050505050565b60006001600160a01b03821630146110d2576000610a61565b606754610a6190600019614140565b6110e9612f32565b61010454811061110c5760405163309f796760e21b815260040160405180910390fd5b60fe60009054906101000a90046001600160a01b03166001600160a01b0316638a364bc16040518163ffffffff1660e01b8152600401602060405180830381865afa15801561115f573d6000803e3d6000fd5b505050506040513d601f19601f8201168201806040525081019061118391906140da565b8111156111a35760405163cd4e616760e01b815260040160405180910390fd5b6111ab6128ae565b6101048190556040518181527f6d69e3b0ce68b50a3e467e01c3d62795f90673a3caded8ccf93f44c4832187f0906020015b60405180910390a150565b6111f26007612470565b600060fc5460ff16600381111561120b5761120b613ef0565b1461122957604051631c2ce4fd60e01b815260040160405180910390fd5b33600090815260fb602052604090205480820361125957604051630b5571c160e11b815260040160405180910390fd5b3360009081526065602052604081205461010b5490910361129a576112816101065484612f98565b61010b8190556112918382614121565b610109556113e6565b61010b54811480156112ab57508115155b156112c4576112ba8284612f98565b6112918382614121565b8160000361132d57600061010b54610109546112e091906141cb565b90506112ec8185612f98565b8161010b60008282546112ff9190614109565b9091555061130f90508483614121565b61010960008282546113219190614109565b909155506113e6915050565b82600003611375578061010b60008282546113489190614140565b9091555061135890508282614121565b610109600082825461136a9190614140565b909155506113e69050565b60008161010b546113869190614140565b6113908385614121565b6101095461139e9190614140565b6113a891906141cb565b90506113b48185612f98565b6113be8383614121565b6113c88584614121565b610109546113d69190614109565b6113e09190614140565b61010955505b33600081815260fb602052604090819020859055517f0d86730737b142fc160892fa8a0f2db687a92a0e294d1ad70624cf5acef03b849061142a9086815260200190565b60405180910390a2505050565b6033546001600160a01b031633146114615760405162461bcd60e51b8152600401610d1b90614157565b61146b60006130fe565b565b6033546001600160a01b031633146114975760405162461bcd60e51b8152600401610d1b90614157565b600060fc5460ff1660038111156114b0576114b0613ef0565b146114ce57604051631c2ce4fd60e01b815260040160405180910390fd5b6001600160a01b038116600090815260fb60205260408120549081900361150857604051630b5571c160e11b815260040160405180910390fd5b6001600160a01b03821660009081526065602052604081205490508061010b60008282546115369190614140565b9091555061154690508282614121565b61010960008282546115589190614140565b90915550506001600160a01b038316600081815260fb60209081526040808320839055519182527f0d86730737b142fc160892fa8a0f2db687a92a0e294d1ad70624cf5acef03b84910161142a565b60006115b36001613150565b905080156115cb576000805461ff0019166101001790555b6001600160a01b0387166115f25760405163d92e233d60e01b815260040160405180910390fd5b6001600160a01b0386166116195760405163d92e233d60e01b815260040160405180910390fd5b6116216131dd565b61162b898961320c565b61163361323d565b60003390506000816001600160a01b0316638a4adf246040518163ffffffff1660e01b8152600401602060405180830381865afa158015611678573d6000803e3d6000fd5b505050506040513d601f19601f8201168201806040525081019061169c919061418c565b9050816001600160a01b0316638a364bc16040518163ffffffff1660e01b8152600401602060405180830381865afa1580156116dc573d6000803e3d6000fd5b505050506040513d601f19601f8201168201806040525081019061170091906140da565b8411156117205760405163cd4e616760e01b815260040160405180910390fd5b60fe80546001600160a01b038085166001600160a01b03199283161790925560fd805484841690831681179091556101008054938c1693909216929092179055604080516304c94c4160e31b8152905163264a6208916004808201926020929091908290030181865afa15801561179b573d6000803e3d6000fd5b505050506040513d601f19601f820116820180604052508101906117bf91906140da565b61010a556101058790556203f4806101035560ff80546001600160a01b0319166001600160a01b038b81169182179092556101048690554261010755600090815260fb60209081526040918290208890556101068890558151632630c12f60e01b8152915192841692632630c12f9260048181019392918290030181865afa15801561184f573d6000803e3d6000fd5b505050506040513d601f19601f82011682018060405250810190611873919061418c565b6040516394b26a1b60e01b81523060048201526001600160a01b0391909116906394b26a1b906024016020604051808303816000875af11580156118bb573d6000803e3d6000fd5b505050506040513d601f19601f820116820180604052508101906118df919061418c565b60fc60016101000a8154816001600160a01b0302191690836001600160a01b0316021790555061190f8987613264565b50508015611957576000805461ff0019169055604051600181527f7f26b83ff96e1f2b6a682f133852f6798a09c465da95921460cefb38474024989060200160405180910390a15b505050505050505050565b606060698054610a76906140a0565b61197b6004612470565b600260fc5460ff16600381111561199457611994613ef0565b146119b257604051636463738960e01b815260040160405180910390fd5b33600090815260656020526040812054908190036119e35760405163df95788360e01b815260040160405180910390fd5b60006119ee60675490565b6119f84784614121565b611a0291906141cb565b9050611a0e3383613357565b611a183382612511565b60405181815233907f1d63055f2391fc3a61f120d9da75cb686b1384a1a477aafb6bc7cbbceca233599060200160405180910390a25050565b3360008181526066602090815260408083206001600160a01b038716845290915281205490919083811015611ad65760405162461bcd60e51b815260206004820152602560248201527f45524332303a2064656372656173656420616c6c6f77616e63652062656c6f77604482015264207a65726f60d81b6064820152608401610d1b565b610ce6828686840361234c565b600033610b078185856126cf565b611af9612f32565b60fe60009054906101000a90046001600160a01b03166001600160a01b031663a0b335e36040518163ffffffff1660e01b8152600401602060405180830381865afa158015611b4c573d6000803e3d6000fd5b505050506040513d601f19601f82011682018060405250810190611b7091906140da565b811080611bf2575060fe60009054906101000a90046001600160a01b03166001600160a01b0316630e519ef96040518163ffffffff1660e01b8152600401602060405180830381865afa158015611bcb573d6000803e3d6000fd5b505050506040513d601f19601f82011682018060405250810190611bef91906140da565b81115b15611c10576040516321029bc560e11b815260040160405180910390fd5b6101038190556040518181527f26d6292d6fb0e786778ddcd15ee4e4ee219a7b892d1bf667e1c497c85bbcddcb906020016111dd565b611c506006612470565b61146b6128ae565b611c626002612470565b600060fc5460ff166003811115611c7b57611c7b613ef0565b14611c9957604051631c2ce4fd60e01b815260040160405180910390fd5b611cab33611ca660675490565b613357565b61010054610105546040516323b872dd60e01b815230600482015233602482015260448101919091526001600160a01b03909116906323b872dd90606401600060405180830381600087803b158015611d0357600080fd5b505af1158015611d17573d6000803e3d6000fd5b505060fc805460ff19166003179055505060405133907f50e4d08b22725f7499f6c76e6e202566b690bb1eba93836a6bacea781f8f783d90600090a2565b611d5f6004612470565b600060fc5460ff166003811115611d7857611d78613ef0565b14611d9657604051631c2ce4fd60e01b815260040160405180910390fd5b6000611da0612b2d565b9050801580611dae57508034105b15611dcc57604051635069375b60e11b815260040160405180910390fd5b61010354611dda9042614109565b6101025560fc805460ff191660011790553461010881905561010180546001600160a01b03191633908117909155604051918252907fc087c4cdb16906b5ff7016a6bf927618f24ff32eb1de5e86eeaeb08b94831a6890602001610cc2565b60006110086134bd565b6033546001600160a01b03163314611e6d5760405162461bcd60e51b8152600401610d1b90614157565b610101805460ff60a01b198116600160a01b9182900460ff1615918202179091556040518181527f31f0cd2056cb14961826087872d64b913fa6118127d4fceade8a9cfe80cce5f5906020016111dd565b60006001600160a01b0383163014611ee95760405163c1ab6dc160e01b815260040160405180910390fd5b6127108260fe60009054906101000a90046001600160a01b03166001600160a01b0316634847cdc86040518163ffffffff1660e01b8152600401602060405180830381865afa158015611f40573d6000803e3d6000fd5b505050506040513d601f19601f82011682018060405250810190611f6491906140da565b611f6e9190614121565b611f7891906141cb565b9392505050565b600061010b54600014611f9e5761010b546101095461100891906141cb565b50600090565b6001600160a01b03918216600090815260666020908152604080832093909416825291909152205490565b611fd7612f32565b61204a84848080601f01602080910402602001604051908101604052809392919081815260200183838082843760009201919091525050604080516020601f8801819004810282018101909252868152925086915085908190840183828082843760009201919091525061372192505050565b50505050565b612058612f32565b60ff546001600160a01b0380831691160361208657604051635e39359760e01b815260040160405180910390fd5b60ff546040516001600160a01b038084169216907fbc21df13ae8a32d7d89d87c70c0d02240cd4fb9554c57522bbbf6f27bfc2dacd90600090a360ff80546001600160a01b0319166001600160a01b0392909216919091179055565b6120ec6004612470565b600160fc5460ff16600381111561210557612105613ef0565b14612123576040516358fd8d1160e01b815260040160405180910390fd5b6101025442101561214757604051636463738960e01b815260040160405180910390fd5b61214f6128ae565b6101005461010154610105546040516323b872dd60e01b81523060048201526001600160a01b03928316602482015260448101919091529116906323b872dd90606401600060405180830381600087803b1580156121ac57600080fd5b505af11580156121c0573d6000803e3d6000fd5b505060fc805460ff19166002179055505061010154610108546040519081526001600160a01b03909116907fa7f57fa38c1f675856eb8c2460c87aa01ecd63c51d4c817d4389cd5789ccc44b9060200160405180910390a2565b6033546001600160a01b031633146122445760405162461bcd60e51b8152600401610d1b90614157565b6001600160a01b0381166122a95760405162461bcd60e51b815260206004820152602660248201527f4f776e61626c653a206e6577206f776e657220697320746865207a65726f206160448201526564647265737360d01b6064820152608401610d1b565b6122b2816130fe565b50565b6000600a60fe60009054906101000a90046001600160a01b03166001600160a01b031663e2386a556040518163ffffffff1660e01b8152600401602060405180830381865afa15801561230c573d6000803e3d6000fd5b505050506040513d601f19601f8201168201806040525081019061233091906140da565b612338612b2d565b6123429190614121565b61100891906141cb565b6001600160a01b0383166123ae5760405162461bcd60e51b8152602060048201526024808201527f45524332303a20617070726f76652066726f6d20746865207a65726f206164646044820152637265737360e01b6064820152608401610d1b565b6001600160a01b03821661240f5760405162461bcd60e51b815260206004820152602260248201527f45524332303a20617070726f766520746f20746865207a65726f206164647265604482015261737360f01b6064820152608401610d1b565b6001600160a01b0383811660008181526066602090815260408083209487168084529482529182902085905590518481527f8c5be1e5ebec7d5bd14f71427d1e84f3dd0314c0f7b2291e5b200ac8c7c3b925910160405180910390a3505050565b6033546001600160a01b031633148015906124f3575060fe54604051632f7ca90f60e21b8152600481018390526001600160a01b039091169063bdf2a43c90602401602060405180830381865afa1580156124cf573d6000803e3d6000fd5b505050506040513d601f19601f820116820180604052508101906124f391906141a9565b156122b2576040516313d0ff5960e31b815260040160405180910390fd5b61251b8282613748565b6126575760fd54604080516315ab88c960e31b815290516000926001600160a01b03169163ad5c46489160048083019260209291908290030181865afa158015612569573d6000803e3d6000fd5b505050506040513d601f19601f8201168201806040525081019061258d919061418c565b9050806001600160a01b031663d0e30db0836040518263ffffffff1660e01b81526004016000604051808303818588803b1580156125ca57600080fd5b505af11580156125de573d6000803e3d6000fd5b505060405163a9059cbb60e01b81526001600160a01b038781166004830152602482018790528516935063a9059cbb925060440190506020604051808303816000875af1158015612633573d6000803e3d6000fd5b505050506040513d601f19601f8201168201806040525081019061204a91906141a9565b5050565b60006126678484611fa4565b9050600019811461204a57818110156126c25760405162461bcd60e51b815260206004820152601d60248201527f45524332303a20696e73756666696369656e7420616c6c6f77616e63650000006044820152606401610d1b565b61204a848484840361234c565b6001600160a01b0383166127335760405162461bcd60e51b815260206004820152602560248201527f45524332303a207472616e736665722066726f6d20746865207a65726f206164604482015264647265737360d81b6064820152608401610d1b565b6001600160a01b0382166127955760405162461bcd60e51b815260206004820152602360248201527f45524332303a207472616e7366657220746f20746865207a65726f206164647260448201526265737360e81b6064820152608401610d1b565b6127a08383836137ab565b6001600160a01b038316600090815260656020526040902054818110156128185760405162461bcd60e51b815260206004820152602660248201527f45524332303a207472616e7366657220616d6f756e7420657863656564732062604482015265616c616e636560d01b6064820152608401610d1b565b6001600160a01b0380851660009081526065602052604080822085850390559185168152908120805484929061284f908490614109565b92505081905550826001600160a01b0316846001600160a01b03167fddf252ad1be2c89b69c2b068fc378daa952ba7f163c4a11628f55a4df523b3ef8460405161289b91815260200190565b60405180910390a361204a8484846138b0565b600260fc5460ff1660038111156128c7576128c7613ef0565b036128e55760405163283a4a6160e21b815260040160405180910390fd5b60006127106128f360675490565b610104546129019190614121565b61290b91906141cb565b9050600061291d6301e13380836141cb565b9050600061010754426129309190614140565b9050600061293e8383614121565b9050600060fd60009054906101000a90046001600160a01b03166001600160a01b031663b3f006746040518163ffffffff1660e01b8152600401602060405180830381865afa158015612995573d6000803e3d6000fd5b505050506040513d601f19601f820116820180604052508101906129b9919061418c565b9050600060fe60009054906101000a90046001600160a01b03166001600160a01b0316630ea90a126040518163ffffffff1660e01b8152600401602060405180830381865afa158015612a10573d6000803e3d6000fd5b505050506040513d601f19601f82011682018060405250810190612a3491906140da565b9050612710612a4260675490565b612a4c9083614121565b612a5691906141cb565b9550612a666301e13380876141cb565b94506000612a748686614121565b426101075560ff549091506001600160a01b031615612ad75760ff54612aa3906001600160a01b031685613264565b6040518481527f1e0cd0975cff39cd66cb9c3e27bed07e184c573eca2148dee12e741e43df59da9060200160405180910390a15b6001600160a01b03831615612b2457612af08382613264565b6040518181527f1e0cd0975cff39cd66cb9c3e27bed07e184c573eca2148dee12e741e43df59da9060200160405180910390a15b50505050505050565b60008060fd60009054906101000a90046001600160a01b03166001600160a01b0316632630c12f6040518163ffffffff1660e01b8152600401602060405180830381865afa158015612b83573d6000803e3d6000fd5b505050506040513d601f19601f82011682018060405250810190612ba7919061418c565b9050600060fe60009054906101000a90046001600160a01b03166001600160a01b03166332977c736040518163ffffffff1660e01b8152600401602060405180830381865afa158015612bfe573d6000803e3d6000fd5b505050506040513d601f19601f82011682018060405250810190612c2291906140da565b612c2a6134bd565b1190506000612c37611f7f565b90506001600160a01b03831615612db857600060fc60019054906101000a90046001600160a01b03166001600160a01b0316630902f1ac6040518163ffffffff1660e01b8152600401606060405180830381865afa158015612c9d573d6000803e3d6000fd5b505050506040513d601f19601f82011682018060405250810190612cc19190614204565b506001600160701b0316915050600060fe60009054906101000a90046001600160a01b03166001600160a01b031663c96880866040518163ffffffff1660e01b8152600401602060405180830381865afa158015612d23573d6000803e3d6000fd5b505050506040513d601f19601f82011682018060405250810190612d4791906140da565b612d52836002614121565b1190508015612d9a576000612d6561398e565b90508415612d8757838111612d7a5783612d7c565b805b965050505050505090565b610106548111612d7a5761010654612d7c565b8315612daa575090949350505050565b610106549550505050505090565b81612dc65761010654612dc8565b805b935050505090565b6000612ddb866110b9565b851115612dfb57604051634b29c39b60e11b815260040160405180910390fd5b612e058786613264565b6040516323e30c8b60e01b81527f439148f0bbc682ca079e46d6e2c2f0c1e3b820f1a291b069d8882abf8cf18dd9906001600160a01b038916906323e30c8b90612e5d9033908b908b908b908b908b90600401614254565b6020604051808303816000875af1158015612e7c573d6000803e3d6000fd5b505050506040513d601f19601f82011682018060405250810190612ea091906140da565b14612ebe57604051637679356b60e01b815260040160405180910390fd5b6000612eca8830611fa4565b905080612ed78688614109565b1115612ef657604051633fe269db60e11b815260040160405180910390fd5b612f10883087612f068a86614140565b610de89190614140565b612f1a8887613357565b612f248886613a83565b506001979650505050505050565b60ff546001600160a01b0316612f6d576033546001600160a01b0316331461146b576040516330cd747160e01b815260040160405180910390fd5b60ff546001600160a01b0316331461146b576040516356b381a560e01b815260040160405180910390fd5b600061271060fe60009054906101000a90046001600160a01b03166001600160a01b03166309990a966040518163ffffffff1660e01b8152600401602060405180830381865afa158015612ff0573d6000803e3d6000fd5b505050506040513d601f19601f8201168201806040525081019061301491906140da565b61301e9085614121565b61302891906141cb565b90508082101561304b57604051636dddf41160e11b815260040160405180910390fd5b600061271060fe60009054906101000a90046001600160a01b03166001600160a01b0316635410bfc96040518163ffffffff1660e01b8152600401602060405180830381865afa1580156130a3573d6000803e3d6000fd5b505050506040513d601f19601f820116820180604052508101906130c791906140da565b6130d19086614121565b6130db91906141cb565b90508083111561204a5760405163127f08c960e11b815260040160405180910390fd5b603380546001600160a01b038381166001600160a01b0319831681179093556040519116919082907f8be0079c531659141344cd1fd0a4f28419497f9722a3daafe3b4186f6b6457e090600090a35050565b60008054610100900460ff1615613197578160ff1660011480156131735750303b155b61318f5760405162461bcd60e51b8152600401610d1b906142b0565b506000919050565b60005460ff8084169116106131be5760405162461bcd60e51b8152600401610d1b906142b0565b506000805460ff191660ff92909216919091179055600190565b919050565b600054610100900460ff166132045760405162461bcd60e51b8152600401610d1b906142fe565b61146b613b0a565b600054610100900460ff166132335760405162461bcd60e51b8152600401610d1b906142fe565b6126578282613b3a565b600054610100900460ff1661146b5760405162461bcd60e51b8152600401610d1b906142fe565b6001600160a01b0382166132ba5760405162461bcd60e51b815260206004820152601f60248201527f45524332303a206d696e7420746f20746865207a65726f2061646472657373006044820152606401610d1b565b6132c6600083836137ab565b80606760008282546132d89190614109565b90915550506001600160a01b03821660009081526065602052604081208054839290613305908490614109565b90915550506040518181526001600160a01b038316906000907fddf252ad1be2c89b69c2b068fc378daa952ba7f163c4a11628f55a4df523b3ef9060200160405180910390a3612657600083836138b0565b6001600160a01b0382166133b75760405162461bcd60e51b815260206004820152602160248201527f45524332303a206275726e2066726f6d20746865207a65726f206164647265736044820152607360f81b6064820152608401610d1b565b6133c3826000836137ab565b6001600160a01b038216600090815260656020526040902054818110156134375760405162461bcd60e51b815260206004820152602260248201527f45524332303a206275726e20616d6f756e7420657863656564732062616c616e604482015261636560f01b6064820152608401610d1b565b6001600160a01b0383166000908152606560205260408120838303905560678054849290613466908490614140565b90915550506040518281526000906001600160a01b038516907fddf252ad1be2c89b69c2b068fc378daa952ba7f163c4a11628f55a4df523b3ef9060200160405180910390a36134b8836000846138b0565b505050565b60008060fd60009054906101000a90046001600160a01b03166001600160a01b0316631ca683a46040518163ffffffff1660e01b8152600401602060405180830381865afa158015613513573d6000803e3d6000fd5b505050506040513d601f19601f82011682018060405250810190613537919061418c565b604051633154782f60e01b81523060048201526001600160a01b039190911690633154782f90602401602060405180830381865afa15801561357d573d6000803e3d6000fd5b505050506040513d601f19601f820116820180604052508101906135a1919061418c565b90506001600160a01b038116158015906136185750806001600160a01b03166312fa6feb6040518163ffffffff1660e01b8152600401602060405180830381865afa1580156135f4573d6000803e3d6000fd5b505050506040513d601f19601f8201168201806040525081019061361891906141a9565b80156136815750806001600160a01b0316636727b0da6040518163ffffffff1660e01b8152600401602060405180830381865afa15801561365d573d6000803e3d6000fd5b505050506040513d601f19601f8201168201806040525081019061368191906141a9565b1561371557806001600160a01b031663ca5c7b916040518163ffffffff1660e01b8152600401602060405180830381865afa1580156136c4573d6000803e3d6000fd5b505050506040513d601f19601f820116820180604052508101906136e891906140da565b6067546136f59190614140565b61010b5461370590612710614121565b61370f91906141cb565b91505090565b6067546136f5565b5090565b8151613734906068906020850190613b61565b5080516134b8906069906020840190613b61565b600080836001600160a01b03168361753090604051600060405180830381858888f193505050503d806000811461379b576040519150601f19603f3d011682016040523d82523d6000602084013e6137a0565b606091505b509095945050505050565b600060fc5460ff1660038111156137c4576137c4613ef0565b036134b8576001600160a01b03808416600090815260fb60205260408082205492851682529020548082146138a9578060000361383b578261010b600082825461380e9190614140565b9091555061381e90508284614121565b61010960008282546138309190614140565b909155506138a99050565b81600003613878578261010b60008282546138569190614109565b9091555061386690508184614121565b61010960008282546138309190614109565b6138828284614121565b61388c8285614121565b6101095461389a9190614109565b6138a49190614140565b610109555b5050505050565b60fd5460408051632630c12f60e01b815290516000926001600160a01b031691632630c12f9160048083019260209291908290030181865afa1580156138fa573d6000803e3d6000fd5b505050506040513d601f19601f8201168201806040525081019061391e919061418c565b90506001600160a01b0381161561204a57604051636f0f4fdf60e01b81523060048201526001600160a01b03821690636f0f4fdf90602401600060405180830381600087803b15801561397057600080fd5b505af1158015613984573d6000803e3d6000fd5b5050505050505050565b60fd5460408051632630c12f60e01b815290516000926001600160a01b031691632630c12f9160048083019260209291908290030181865afa1580156139d8573d6000803e3d6000fd5b505050506040513d601f19601f820116820180604052508101906139fc919061418c565b6001600160a01b031663a0cbb06230613a1460675490565b6040516001600160e01b031960e085901b1681526001600160a01b0390921660048301526024820152604401602060405180830381865afa925050508015613a79575060408051601f3d908101601f19168201909252613a76918101906140da565b60015b6131d85750600090565b80600003613a8f575050565b60fd5460408051630d43e8ad60e01b815290516000926001600160a01b031691630d43e8ad9160048083019260209291908290030181865afa158015613ad9573d6000803e3d6000fd5b505050506040513d601f19601f82011682018060405250810190613afd919061418c565b90506134b88382846126cf565b600054610100900460ff16613b315760405162461bcd60e51b8152600401610d1b906142fe565b61146b336130fe565b600054610100900460ff166137215760405162461bcd60e51b8152600401610d1b906142fe565b828054613b6d906140a0565b90600052602060002090601f016020900481019282613b8f5760008555613bd5565b82601f10613ba857805160ff1916838001178555613bd5565b82800160010185558215613bd5579182015b82811115613bd5578251825591602001919060010190613bba565b5061371d9291505b8082111561371d5760008155600101613bdd565b600060208284031215613c0357600080fd5b81356001600160e01b031981168114611f7857600080fd5b600060208083528351808285015260005b81811015613c4857858101830151858201604001528201613c2c565b81811115613c5a576000604083870101525b50601f01601f1916929092016040019392505050565b6001600160a01b03811681146122b257600080fd5b60008060408385031215613c9857600080fd5b8235613ca381613c70565b946020939093013593505050565b634e487b7160e01b600052604160045260246000fd5b600067ffffffffffffffff80841115613ce257613ce2613cb1565b604051601f8501601f19908116603f01168101908282118183101715613d0a57613d0a613cb1565b81604052809350858152868686011115613d2357600080fd5b858560208301376000602087830101525050509392505050565b60008060008060808587031215613d5357600080fd5b8435613d5e81613c70565b93506020850135613d6e81613c70565b925060408501359150606085013567ffffffffffffffff811115613d9157600080fd5b8501601f81018713613da257600080fd5b613db187823560208401613cc7565b91505092959194509250565b600080600060608486031215613dd257600080fd5b8335613ddd81613c70565b92506020840135613ded81613c70565b929592945050506040919091013590565b600060208284031215613e1057600080fd5b8135611f7881613c70565b60008083601f840112613e2d57600080fd5b50813567ffffffffffffffff811115613e4557600080fd5b602083019150836020828501011115613e5d57600080fd5b9250929050565b600080600080600060808688031215613e7c57600080fd5b8535613e8781613c70565b94506020860135613e9781613c70565b935060408601359250606086013567ffffffffffffffff811115613eba57600080fd5b613ec688828901613e1b565b969995985093965092949392505050565b600060208284031215613ee957600080fd5b5035919050565b634e487b7160e01b600052602160045260246000fd5b6020810160048310613f2857634e487b7160e01b600052602160045260246000fd5b91905290565b600082601f830112613f3f57600080fd5b611f7883833560208501613cc7565b600080600080600080600080610100898b031215613f6b57600080fd5b883567ffffffffffffffff80821115613f8357600080fd5b613f8f8c838d01613f2e565b995060208b0135915080821115613fa557600080fd5b50613fb28b828c01613f2e565b9750506040890135613fc381613c70565b95506060890135613fd381613c70565b979a969950949760808101359660a0820135965060c0820135955060e0909101359350915050565b6000806040838503121561400e57600080fd5b823561401981613c70565b9150602083013561402981613c70565b809150509250929050565b6000806000806040858703121561404a57600080fd5b843567ffffffffffffffff8082111561406257600080fd5b61406e88838901613e1b565b9096509450602087013591508082111561408757600080fd5b5061409487828801613e1b565b95989497509550505050565b600181811c908216806140b457607f821691505b6020821081036140d457634e487b7160e01b600052602260045260246000fd5b50919050565b6000602082840312156140ec57600080fd5b5051919050565b634e487b7160e01b600052601160045260246000fd5b6000821982111561411c5761411c6140f3565b500190565b600081600019048311821515161561413b5761413b6140f3565b500290565b600082821015614152576141526140f3565b500390565b6020808252818101527f4f776e61626c653a2063616c6c6572206973206e6f7420746865206f776e6572604082015260600190565b60006020828403121561419e57600080fd5b8151611f7881613c70565b6000602082840312156141bb57600080fd5b81518015158114611f7857600080fd5b6000826141e857634e487b7160e01b600052601260045260246000fd5b500490565b80516001600160701b03811681146131d857600080fd5b60008060006060848603121561421957600080fd5b614222846141ed565b9250614230602085016141ed565b9150604084015163ffffffff8116811461424957600080fd5b809150509250925092565b6001600160a01b03878116825286166020820152604081018590526060810184905260a06080820181905281018290526000828460c0840137600060c0848401015260c0601f19601f8501168301019050979650505050505050565b6020808252602e908201527f496e697469616c697a61626c653a20636f6e747261637420697320616c72656160408201526d191e481a5b9a5d1a585b1a5e995960921b606082015260800190565b6020808252602b908201527f496e697469616c697a61626c653a20636f6e7472616374206973206e6f74206960408201526a6e697469616c697a696e6760a81b60608201526080019056fea2646970667358221220ecaf4c8c527f958ab4dc8711d00db458a6da9f0479e38e2f6a4c4573f2ce1c8664736f6c634300080d0033",
  "devdoc": {
    "kind": "dev",
    "methods": {
      "allowance(address,address)": {
        "details": "See {IERC20-allowance}."
      },
      "approve(address,uint256)": {
        "details": "See {IERC20-approve}. NOTE: If `amount` is the maximum `uint256`, the allowance is not updated on `transferFrom`. This is semantically equivalent to an infinite approval. Requirements: - `spender` cannot be the zero address."
      },
      "balanceOf(address)": {
        "details": "See {IERC20-balanceOf}."
      },
      "decimals()": {
        "details": "Returns the number of decimals used to get its user representation. For example, if `decimals` equals `2`, a balance of `505` tokens should be displayed to a user as `5.05` (`505 / 10 ** 2`). Tokens usually opt for a value of 18, imitating the relationship between Ether and Wei. This is the value {ERC20} uses, unless this function is overridden; NOTE: This information is only used for _display_ purposes: it in no way affects any of the arithmetic of the contract, including {IERC20-balanceOf} and {IERC20-transfer}."
      },
      "decreaseAllowance(address,uint256)": {
        "details": "Atomically decreases the allowance granted to `spender` by the caller. This is an alternative to {approve} that can be used as a mitigation for problems described in {IERC20-approve}. Emits an {Approval} event indicating the updated allowance. Requirements: - `spender` cannot be the zero address. - `spender` must have allowance for the caller of at least `subtractedValue`."
      },
      "increaseAllowance(address,uint256)": {
        "details": "Atomically increases the allowance granted to `spender` by the caller. This is an alternative to {approve} that can be used as a mitigation for problems described in {IERC20-approve}. Emits an {Approval} event indicating the updated allowance. Requirements: - `spender` cannot be the zero address."
      },
      "kickCurator(address)": {
        "params": {
          "_curator": "the new curator"
        }
      },
      "maxFlashLoan(address)": {
        "details": "Returns the maximum amount of tokens available for loan.",
        "params": {
          "token": "The address of the token that is requested."
        },
        "returns": {
          "_0": "The amont of token that can be loaned."
        }
      },
      "name()": {
        "details": "Returns the name of the token."
      },
      "onERC721Received(address,address,uint256,bytes)": {
        "details": "See {IERC721Receiver-onERC721Received}. Always returns `IERC721Receiver.onERC721Received.selector`."
      },
      "owner()": {
        "details": "Returns the address of the current owner."
      },
      "renounceOwnership()": {
        "details": "Leaves the contract without owner. It will not be possible to call `onlyOwner` functions anymore. Can only be called by the current owner. NOTE: Renouncing ownership will leave the contract without an owner, thereby removing any functionality that is only available to the owner."
      },
      "setAuctionLength(uint256)": {
        "params": {
          "_length": "the new base price"
        }
      },
      "setCurator(address)": {
        "params": {
          "_curator": "the new curator"
        }
      },
      "setFee(uint256)": {
        "params": {
          "_curatorFee": "the new fee"
        }
      },
      "supportsInterface(bytes4)": {
        "details": "Returns true if this contract implements the interface defined by `interfaceId`. See the corresponding https://eips.ethereum.org/EIPS/eip-165#how-interfaces-are-identified[EIP section] to learn more about how these ids are created. This function call must use less than 30 000 gas."
      },
      "symbol()": {
        "details": "Returns the symbol of the token, usually a shorter version of the name."
      },
      "totalSupply()": {
        "details": "See {IERC20-totalSupply}."
      },
      "transfer(address,uint256)": {
        "details": "See {IERC20-transfer}. Requirements: - `to` cannot be the zero address. - the caller must have a balance of at least `amount`."
      },
      "transferFrom(address,address,uint256)": {
        "details": "See {IERC20-transferFrom}. Emits an {Approval} event indicating the updated allowance. This is not required by the EIP. See the note at the beginning of {ERC20}. NOTE: Does not update the allowance if the current allowance is the maximum `uint256`. Requirements: - `from` and `to` cannot be the zero address. - `from` must have a balance of at least `amount`. - the caller must have allowance for ``from``'s tokens of at least `amount`."
      },
      "transferOwnership(address)": {
        "details": "Transfers ownership of the contract to a new account (`newOwner`). Can only be called by the current owner."
      },
      "updateUserPrice(uint256)": {
        "params": {
          "newUserReserve": "the desired price in ETH"
        }
      }
    },
    "version": 1
  },
  "userdoc": {
    "events": {
      "AuctionStarted(address,uint256)": {
        "notice": "An event emitted when an auction starts"
      },
      "AuctionWon(address,uint256)": {
        "notice": "An event emitted when an auction is won"
      },
      "BidMade(address,uint256)": {
        "notice": "An event emitted when a bid is made"
      },
      "CashWithdrawn(address,uint256)": {
        "notice": "An event emitted when someone cashes in ERC20 tokens for ETH from an ERC721 token sale"
      },
      "PriceUpdated(address,uint256)": {
        "notice": "An event emitted when a user updates their price"
      },
      "TokenRedeemed(address)": {
        "notice": "An event emitted when someone redeems all tokens for the NFT"
      }
    },
    "kind": "user",
    "methods": {
      "auctionEnd()": {
        "notice": "the unix timestamp end time of the token auction"
      },
      "auctionLength()": {
        "notice": "the length of auctions"
      },
      "bid()": {
        "notice": "an external function to bid on purchasing the vaults NFT. The msg.value is the bid amount"
      },
      "cash()": {
        "notice": "an external function to burn ERC20 tokens to receive ETH from ERC721 token purchase"
      },
      "claimCuratorFees()": {
        "notice": "external function to claim fees for the curator and governance"
      },
      "curator()": {
        "notice": "the address who initially deposited the NFT"
      },
      "curatorFee()": {
        "notice": "the AUM fee paid to the curator yearly. 3 decimals. ie. 100 = 10%"
      },
      "end()": {
        "notice": "an external function to end an auction after the timer has run out"
      },
      "factory()": {
        "notice": "the governance contract which gets paid in ETH"
      },
      "initialReserve()": {
        "notice": "initial price of NFT set by curator on creation"
      },
      "kickCurator(address)": {
        "notice": "allow governance to boot a bad actor curator"
      },
      "lastClaimed()": {
        "notice": "the last timestamp where fees were claimed"
      },
      "livePrice()": {
        "notice": "the current price of the token during an auction"
      },
      "redeem()": {
        "notice": "an external function to burn all ERC20 tokens to receive the ERC721 token"
      },
      "removeReserve(address)": {
        "notice": "allow governance to remove bad reserve prices"
      },
      "reserveTotal()": {
        "notice": "reservePrice * votingTokens"
      },
      "setAuctionLength(uint256)": {
        "notice": "allow curator to update the auction length"
      },
      "setCurator(address)": {
        "notice": "allow curator to update the curator address"
      },
      "setFee(uint256)": {
        "notice": "allow the curator to change their fee"
      },
      "start()": {
        "notice": "kick off an auction. Must send reservePrice in ETH"
      },
      "token()": {
        "notice": "the ERC721 token address of the vault's token"
      },
      "tokenId()": {
        "notice": "the ERC721 token id of the nft's token"
      },
      "updateUserPrice(uint256)": {
        "notice": "a function for an end user to update their desired sale price"
      },
      "userReservePrice(address)": {
        "notice": "a mapping of users to their desired token price"
      },
      "vaultManager()": {
        "notice": "the governance contract for all FNFTSingles"
      },
      "verified()": {
        "notice": "whether or not this FNFTSingle has been verified by DAO"
      },
      "votingTokens()": {
        "notice": "the number of ownership tokens voting on the reserve price at any given time"
      },
      "winning()": {
        "notice": "the current user winning the token auction"
      }
    },
    "version": 1
  },
  "storageLayout": {
    "storage": [
      {
        "astId": 274,
        "contract": "src/contracts/FNFTSingle.sol:FNFTSingle",
        "label": "_initialized",
        "offset": 0,
        "slot": "0",
        "type": "t_uint8"
      },
      {
        "astId": 277,
        "contract": "src/contracts/FNFTSingle.sol:FNFTSingle",
        "label": "_initializing",
        "offset": 1,
        "slot": "0",
        "type": "t_bool"
      },
      {
        "astId": 2270,
        "contract": "src/contracts/FNFTSingle.sol:FNFTSingle",
        "label": "__gap",
        "offset": 0,
        "slot": "1",
        "type": "t_array(t_uint256)50_storage"
      },
      {
        "astId": 10,
        "contract": "src/contracts/FNFTSingle.sol:FNFTSingle",
        "label": "_owner",
        "offset": 0,
        "slot": "51",
        "type": "t_address"
      },
      {
        "astId": 122,
        "contract": "src/contracts/FNFTSingle.sol:FNFTSingle",
        "label": "__gap",
        "offset": 0,
        "slot": "52",
        "type": "t_array(t_uint256)49_storage"
      },
      {
        "astId": 28705,
        "contract": "src/contracts/FNFTSingle.sol:FNFTSingle",
        "label": "_balances",
        "offset": 0,
        "slot": "101",
        "type": "t_mapping(t_address,t_uint256)"
      },
      {
        "astId": 28711,
        "contract": "src/contracts/FNFTSingle.sol:FNFTSingle",
        "label": "_allowances",
        "offset": 0,
        "slot": "102",
        "type": "t_mapping(t_address,t_mapping(t_address,t_uint256))"
      },
      {
        "astId": 28713,
        "contract": "src/contracts/FNFTSingle.sol:FNFTSingle",
        "label": "_totalSupply",
        "offset": 0,
        "slot": "103",
        "type": "t_uint256"
      },
      {
        "astId": 28715,
        "contract": "src/contracts/FNFTSingle.sol:FNFTSingle",
        "label": "_name",
        "offset": 0,
        "slot": "104",
        "type": "t_string_storage"
      },
      {
        "astId": 28717,
        "contract": "src/contracts/FNFTSingle.sol:FNFTSingle",
        "label": "_symbol",
        "offset": 0,
        "slot": "105",
        "type": "t_string_storage"
      },
      {
        "astId": 29314,
        "contract": "src/contracts/FNFTSingle.sol:FNFTSingle",
        "label": "__gap",
        "offset": 0,
        "slot": "106",
        "type": "t_array(t_uint256)45_storage"
      },
      {
        "astId": 28685,
        "contract": "src/contracts/FNFTSingle.sol:FNFTSingle",
        "label": "__gap",
        "offset": 0,
        "slot": "151",
        "type": "t_array(t_uint256)50_storage"
      },
      {
        "astId": 1985,
        "contract": "src/contracts/FNFTSingle.sol:FNFTSingle",
        "label": "__gap",
        "offset": 0,
        "slot": "201",
        "type": "t_array(t_uint256)50_storage"
      },
      {
        "astId": 10746,
        "contract": "src/contracts/FNFTSingle.sol:FNFTSingle",
        "label": "userReservePrice",
        "offset": 0,
        "slot": "251",
        "type": "t_mapping(t_address,t_uint256)"
      },
      {
        "astId": 10750,
        "contract": "src/contracts/FNFTSingle.sol:FNFTSingle",
        "label": "auctionState",
        "offset": 0,
        "slot": "252",
        "type": "t_enum(State)20372"
      },
      {
        "astId": 10754,
        "contract": "src/contracts/FNFTSingle.sol:FNFTSingle",
        "label": "pair",
        "offset": 1,
        "slot": "252",
        "type": "t_contract(IUniswapV2Pair)22972"
      },
      {
        "astId": 10759,
        "contract": "src/contracts/FNFTSingle.sol:FNFTSingle",
        "label": "vaultManager",
        "offset": 0,
        "slot": "253",
        "type": "t_contract(IVaultManager)23264"
      },
      {
        "astId": 10764,
        "contract": "src/contracts/FNFTSingle.sol:FNFTSingle",
        "label": "factory",
        "offset": 0,
        "slot": "254",
        "type": "t_contract(IFNFTSingleFactory)20911"
      },
      {
        "astId": 10768,
        "contract": "src/contracts/FNFTSingle.sol:FNFTSingle",
        "label": "curator",
        "offset": 0,
        "slot": "255",
        "type": "t_address"
      },
      {
        "astId": 10772,
        "contract": "src/contracts/FNFTSingle.sol:FNFTSingle",
        "label": "token",
        "offset": 0,
        "slot": "256",
        "type": "t_address"
      },
      {
        "astId": 10776,
        "contract": "src/contracts/FNFTSingle.sol:FNFTSingle",
        "label": "winning",
        "offset": 0,
        "slot": "257",
        "type": "t_address_payable"
      },
      {
        "astId": 10780,
        "contract": "src/contracts/FNFTSingle.sol:FNFTSingle",
        "label": "verified",
        "offset": 20,
        "slot": "257",
        "type": "t_bool"
      },
      {
        "astId": 10784,
        "contract": "src/contracts/FNFTSingle.sol:FNFTSingle",
        "label": "auctionEnd",
        "offset": 0,
        "slot": "258",
        "type": "t_uint256"
      },
      {
        "astId": 10788,
        "contract": "src/contracts/FNFTSingle.sol:FNFTSingle",
        "label": "auctionLength",
        "offset": 0,
        "slot": "259",
        "type": "t_uint256"
      },
      {
        "astId": 10792,
        "contract": "src/contracts/FNFTSingle.sol:FNFTSingle",
        "label": "curatorFee",
        "offset": 0,
        "slot": "260",
        "type": "t_uint256"
      },
      {
        "astId": 10796,
        "contract": "src/contracts/FNFTSingle.sol:FNFTSingle",
        "label": "tokenId",
        "offset": 0,
        "slot": "261",
        "type": "t_uint256"
      },
      {
        "astId": 10800,
        "contract": "src/contracts/FNFTSingle.sol:FNFTSingle",
        "label": "initialReserve",
        "offset": 0,
        "slot": "262",
        "type": "t_uint256"
      },
      {
        "astId": 10804,
        "contract": "src/contracts/FNFTSingle.sol:FNFTSingle",
        "label": "lastClaimed",
        "offset": 0,
        "slot": "263",
        "type": "t_uint256"
      },
      {
        "astId": 10808,
        "contract": "src/contracts/FNFTSingle.sol:FNFTSingle",
        "label": "livePrice",
        "offset": 0,
        "slot": "264",
        "type": "t_uint256"
      },
      {
        "astId": 10812,
        "contract": "src/contracts/FNFTSingle.sol:FNFTSingle",
        "label": "reserveTotal",
        "offset": 0,
        "slot": "265",
        "type": "t_uint256"
      },
      {
        "astId": 10815,
        "contract": "src/contracts/FNFTSingle.sol:FNFTSingle",
        "label": "vaultId",
        "offset": 0,
        "slot": "266",
        "type": "t_uint256"
      },
      {
        "astId": 10819,
        "contract": "src/contracts/FNFTSingle.sol:FNFTSingle",
        "label": "votingTokens",
        "offset": 0,
        "slot": "267",
        "type": "t_uint256"
      }
    ],
    "types": {
      "t_address": {
        "encoding": "inplace",
        "label": "address",
        "numberOfBytes": "20"
      },
      "t_address_payable": {
        "encoding": "inplace",
        "label": "address payable",
        "numberOfBytes": "20"
      },
      "t_array(t_uint256)45_storage": {
        "base": "t_uint256",
        "encoding": "inplace",
        "label": "uint256[45]",
        "numberOfBytes": "1440"
      },
      "t_array(t_uint256)49_storage": {
        "base": "t_uint256",
        "encoding": "inplace",
        "label": "uint256[49]",
        "numberOfBytes": "1568"
      },
      "t_array(t_uint256)50_storage": {
        "base": "t_uint256",
        "encoding": "inplace",
        "label": "uint256[50]",
        "numberOfBytes": "1600"
      },
      "t_bool": {
        "encoding": "inplace",
        "label": "bool",
        "numberOfBytes": "1"
      },
      "t_contract(IFNFTSingleFactory)20911": {
        "encoding": "inplace",
        "label": "contract IFNFTSingleFactory",
        "numberOfBytes": "20"
      },
      "t_contract(IUniswapV2Pair)22972": {
        "encoding": "inplace",
        "label": "contract IUniswapV2Pair",
        "numberOfBytes": "20"
      },
      "t_contract(IVaultManager)23264": {
        "encoding": "inplace",
        "label": "contract IVaultManager",
        "numberOfBytes": "20"
      },
      "t_enum(State)20372": {
        "encoding": "inplace",
        "label": "enum IFNFTSingle.State",
        "numberOfBytes": "1"
      },
      "t_mapping(t_address,t_mapping(t_address,t_uint256))": {
        "encoding": "mapping",
        "key": "t_address",
        "label": "mapping(address => mapping(address => uint256))",
        "numberOfBytes": "32",
        "value": "t_mapping(t_address,t_uint256)"
      },
      "t_mapping(t_address,t_uint256)": {
        "encoding": "mapping",
        "key": "t_address",
        "label": "mapping(address => uint256)",
        "numberOfBytes": "32",
        "value": "t_uint256"
      },
      "t_string_storage": {
        "encoding": "bytes",
        "label": "string",
        "numberOfBytes": "32"
      },
      "t_uint256": {
        "encoding": "inplace",
        "label": "uint256",
        "numberOfBytes": "32"
      },
      "t_uint8": {
        "encoding": "inplace",
        "label": "uint8",
        "numberOfBytes": "1"
      }
    }
  }
}