{
  "address": "0xc9952Fc93Fa9bE383ccB39008c786b9f94eAc95d",
  "abi": [
    {
      "inputs": [],
      "name": "FeeTooHigh",
      "type": "error"
    },
    {
      "inputs": [
        {
          "internalType": "address",
          "name": "nft",
          "type": "address"
        }
      ],
      "name": "IFOExists",
      "type": "error"
    },
    {
      "inputs": [],
      "name": "InvalidDuration",
      "type": "error"
    },
    {
      "inputs": [],
      "name": "ZeroAddress",
      "type": "error"
    },
    {
      "anonymous": false,
      "inputs": [
        {
          "indexed": false,
          "internalType": "bool",
          "name": "oldCreatorIFOLock",
          "type": "bool"
        },
        {
          "indexed": false,
          "internalType": "bool",
          "name": "newCreatorIFOLock",
          "type": "bool"
        }
      ],
      "name": "CreatorIFOLockUpdated",
      "type": "event"
    },
    {
      "anonymous": false,
      "inputs": [
        {
          "indexed": false,
          "internalType": "address",
          "name": "oldCreatorUtilityContract",
          "type": "address"
        },
        {
          "indexed": false,
          "internalType": "address",
          "name": "newCreatorUtilityContract",
          "type": "address"
        }
      ],
      "name": "CreatorUtilityContractUpdated",
      "type": "event"
    },
    {
      "anonymous": false,
      "inputs": [
        {
          "indexed": false,
          "internalType": "address",
          "name": "oldFeeReceiver",
          "type": "address"
        },
        {
          "indexed": false,
          "internalType": "address",
          "name": "newFeeReceiver",
          "type": "address"
        }
      ],
      "name": "FeeReceiverUpdated",
      "type": "event"
    },
    {
      "anonymous": false,
      "inputs": [
        {
          "indexed": false,
          "internalType": "uint256",
          "name": "oldGovernanceFee",
          "type": "uint256"
        },
        {
          "indexed": false,
          "internalType": "uint256",
          "name": "newGovernanceFee",
          "type": "uint256"
        }
      ],
      "name": "GovernanceFeeUpdated",
      "type": "event"
    },
    {
      "anonymous": false,
      "inputs": [
        {
          "indexed": true,
          "internalType": "address",
          "name": "ifo",
          "type": "address"
        },
        {
          "indexed": true,
          "internalType": "address",
          "name": "fnft",
          "type": "address"
        },
        {
          "indexed": false,
          "internalType": "uint256",
          "name": "amountForSale",
          "type": "uint256"
        },
        {
          "indexed": false,
          "internalType": "uint256",
          "name": "price",
          "type": "uint256"
        },
        {
          "indexed": false,
          "internalType": "uint256",
          "name": "cap",
          "type": "uint256"
        },
        {
          "indexed": false,
          "internalType": "uint256",
          "name": "duration",
          "type": "uint256"
        },
        {
          "indexed": false,
          "internalType": "bool",
          "name": "allowWhitelisting",
          "type": "bool"
        }
      ],
      "name": "IFOCreated",
      "type": "event"
    },
    {
      "anonymous": false,
      "inputs": [
        {
          "indexed": false,
          "internalType": "uint8",
          "name": "version",
          "type": "uint8"
        }
      ],
      "name": "Initialized",
      "type": "event"
    },
    {
      "anonymous": false,
      "inputs": [
        {
          "indexed": false,
          "internalType": "uint256",
          "name": "oldMaximumDuration",
          "type": "uint256"
        },
        {
          "indexed": false,
          "internalType": "uint256",
          "name": "newMaximumDuration",
          "type": "uint256"
        }
      ],
      "name": "MaximumDurationUpdated",
      "type": "event"
    },
    {
      "anonymous": false,
      "inputs": [
        {
          "indexed": false,
          "internalType": "uint256",
          "name": "oldMinimumDuration",
          "type": "uint256"
        },
        {
          "indexed": false,
          "internalType": "uint256",
          "name": "newMinimumDuration",
          "type": "uint256"
        }
      ],
      "name": "MinimumDurationUpdated",
      "type": "event"
    },
    {
      "anonymous": false,
      "inputs": [
        {
          "indexed": true,
          "internalType": "address",
          "name": "previousOwner",
          "type": "address"
        },
        {
          "indexed": true,
          "internalType": "address",
          "name": "newOwner",
          "type": "address"
        }
      ],
      "name": "OwnershipTransferred",
      "type": "event"
    },
    {
      "anonymous": false,
      "inputs": [
        {
          "indexed": false,
          "internalType": "address",
          "name": "account",
          "type": "address"
        }
      ],
      "name": "Paused",
      "type": "event"
    },
    {
      "anonymous": false,
      "inputs": [
        {
          "indexed": false,
          "internalType": "address",
          "name": "account",
          "type": "address"
        }
      ],
      "name": "Unpaused",
      "type": "event"
    },
    {
      "anonymous": false,
      "inputs": [
        {
          "indexed": true,
          "internalType": "address",
          "name": "childImplementation",
          "type": "address"
        }
      ],
      "name": "Upgraded",
      "type": "event"
    },
    {
      "inputs": [],
      "name": "MAX_GOV_FEE",
      "outputs": [
        {
          "internalType": "uint256",
          "name": "",
          "type": "uint256"
        }
      ],
      "stateMutability": "view",
      "type": "function"
    },
    {
      "inputs": [
        {
          "internalType": "address",
          "name": "childImplementation_",
          "type": "address"
        }
      ],
      "name": "__BeaconUpgradeable__init",
      "outputs": [],
      "stateMutability": "nonpayable",
      "type": "function"
    },
    {
      "inputs": [],
      "name": "__IFOFactory_init",
      "outputs": [],
      "stateMutability": "nonpayable",
      "type": "function"
    },
    {
      "inputs": [],
      "name": "childImplementation",
      "outputs": [
        {
          "internalType": "address",
          "name": "",
          "type": "address"
        }
      ],
      "stateMutability": "view",
      "type": "function"
    },
    {
      "inputs": [
        {
          "internalType": "address",
          "name": "_fnft",
          "type": "address"
        },
        {
          "internalType": "uint256",
          "name": "_amountForSale",
          "type": "uint256"
        },
        {
          "internalType": "uint256",
          "name": "_price",
          "type": "uint256"
        },
        {
          "internalType": "uint256",
          "name": "_cap",
          "type": "uint256"
        },
        {
          "internalType": "uint256",
          "name": "_duration",
          "type": "uint256"
        },
        {
          "internalType": "bool",
          "name": "_allowWhitelisting",
          "type": "bool"
        }
      ],
      "name": "create",
      "outputs": [
        {
          "internalType": "address",
          "name": "",
          "type": "address"
        }
      ],
      "stateMutability": "nonpayable",
      "type": "function"
    },
    {
      "inputs": [],
      "name": "creatorIFOLock",
      "outputs": [
        {
          "internalType": "bool",
          "name": "",
          "type": "bool"
        }
      ],
      "stateMutability": "view",
      "type": "function"
    },
    {
      "inputs": [],
      "name": "creatorUtilityContract",
      "outputs": [
        {
          "internalType": "address",
          "name": "",
          "type": "address"
        }
      ],
      "stateMutability": "view",
      "type": "function"
    },
    {
      "inputs": [],
      "name": "feeReceiver",
      "outputs": [
        {
          "internalType": "address payable",
          "name": "",
          "type": "address"
        }
      ],
      "stateMutability": "view",
      "type": "function"
    },
    {
      "inputs": [],
      "name": "governanceFee",
      "outputs": [
        {
          "internalType": "uint256",
          "name": "",
          "type": "uint256"
        }
      ],
      "stateMutability": "view",
      "type": "function"
    },
    {
      "inputs": [
        {
          "internalType": "address",
          "name": "",
          "type": "address"
        }
      ],
      "name": "ifos",
      "outputs": [
        {
          "internalType": "address",
          "name": "",
          "type": "address"
        }
      ],
      "stateMutability": "view",
      "type": "function"
    },
    {
      "inputs": [],
      "name": "maximumDuration",
      "outputs": [
        {
          "internalType": "uint256",
          "name": "",
          "type": "uint256"
        }
      ],
      "stateMutability": "view",
      "type": "function"
    },
    {
      "inputs": [],
      "name": "minimumDuration",
      "outputs": [
        {
          "internalType": "uint256",
          "name": "",
          "type": "uint256"
        }
      ],
      "stateMutability": "view",
      "type": "function"
    },
    {
      "inputs": [],
      "name": "owner",
      "outputs": [
        {
          "internalType": "address",
          "name": "",
          "type": "address"
        }
      ],
      "stateMutability": "view",
      "type": "function"
    },
    {
      "inputs": [],
      "name": "pause",
      "outputs": [],
      "stateMutability": "nonpayable",
      "type": "function"
    },
    {
      "inputs": [],
      "name": "paused",
      "outputs": [
        {
          "internalType": "bool",
          "name": "",
          "type": "bool"
        }
      ],
      "stateMutability": "view",
      "type": "function"
    },
    {
      "inputs": [],
      "name": "renounceOwnership",
      "outputs": [],
      "stateMutability": "nonpayable",
      "type": "function"
    },
    {
      "inputs": [
        {
          "internalType": "bool",
          "name": "_creatorIFOLock",
          "type": "bool"
        }
      ],
      "name": "setCreatorIFOLock",
      "outputs": [],
      "stateMutability": "nonpayable",
      "type": "function"
    },
    {
      "inputs": [
        {
          "internalType": "address",
          "name": "_creatorUtilityContract",
          "type": "address"
        }
      ],
      "name": "setCreatorUtilityContract",
      "outputs": [],
      "stateMutability": "nonpayable",
      "type": "function"
    },
    {
      "inputs": [
        {
          "internalType": "address payable",
          "name": "_feeReceiver",
          "type": "address"
        }
      ],
      "name": "setFeeReceiver",
      "outputs": [],
      "stateMutability": "nonpayable",
      "type": "function"
    },
    {
      "inputs": [
        {
          "internalType": "uint256",
          "name": "_governanceFee",
          "type": "uint256"
        }
      ],
      "name": "setGovernanceFee",
      "outputs": [],
      "stateMutability": "nonpayable",
      "type": "function"
    },
    {
      "inputs": [
        {
          "internalType": "uint256",
          "name": "_maximumDuration",
          "type": "uint256"
        }
      ],
      "name": "setMaximumDuration",
      "outputs": [],
      "stateMutability": "nonpayable",
      "type": "function"
    },
    {
      "inputs": [
        {
          "internalType": "uint256",
          "name": "_minimumDuration",
          "type": "uint256"
        }
      ],
      "name": "setMinimumDuration",
      "outputs": [],
      "stateMutability": "nonpayable",
      "type": "function"
    },
    {
      "inputs": [
        {
          "internalType": "address",
          "name": "newOwner",
          "type": "address"
        }
      ],
      "name": "transferOwnership",
      "outputs": [],
      "stateMutability": "nonpayable",
      "type": "function"
    },
    {
      "inputs": [],
      "name": "unpause",
      "outputs": [],
      "stateMutability": "nonpayable",
      "type": "function"
    },
    {
      "inputs": [
        {
          "internalType": "address",
          "name": "newChildImplementation",
          "type": "address"
        }
      ],
      "name": "upgradeChildTo",
      "outputs": [],
      "stateMutability": "nonpayable",
      "type": "function"
    }
  ],
  "transactionHash": "0x28170c02fac383d670a82846685e670a0683889805090bf03051f4a6b9d0198b",
  "args": [],
  "numDeployments": 1,
  "solcInputHash": "961fec123a75984f6857e077cf799290",
  "bytecode": "0x608060405234801561001057600080fd5b50614275806100206000396000f3fe60806040523480156200001157600080fd5b5060043610620001925760003560e01c8063715018a611620000f0578063d451bd1d11620000a3578063e8eb87bd116200007a578063e8eb87bd1462000351578063ed5ec648146200035b578063efdcd9741462000372578063f2fde38b146200038957600080fd5b8063d451bd1d1462000316578063d609a54c146200032b578063da525716146200033f57600080fd5b8063715018a614620002ae5780638456cb5914620002b85780638da5cb5b14620002c25780638fa82de114620002d4578063a104466f14620002eb578063b3f00674146200030257600080fd5b806332a69330116200014957806332a69330146200024a5780633e3ee5a214620002615780633f4ba83a146200026b578063401efc19146200027557806353384ff6146200028c5780635c975abb146200029657600080fd5b80630ea90a12146200019757806310d25c5114620001b45780631cd6dab114620001cd5780631e25aa8c14620001e45780631f1713fc14620001ee5780633154782f1462000205575b600080fd5b620001a1609b5481565b6040519081526020015b60405180910390f35b620001cb620001c53660046200106f565b620003a0565b005b620001cb620001de366004620010a5565b6200041d565b620001a1609c5481565b620001cb620001ff3660046200106f565b620004ba565b62000231620002163660046200106f565b6098602052600090815260409020546001600160a01b031681565b6040516001600160a01b039091168152602001620001ab565b620001cb6200025b366004620010c5565b620004f5565b620001a1609d5481565b620001cb62000587565b620001cb62000286366004620010c5565b620005c0565b620001a16103e881565b60655460ff165b6040519015158152602001620001ab565b620001cb62000652565b620001cb6200068b565b6033546001600160a01b031662000231565b62000231620002e5366004620010df565b620006c2565b620001cb620002fc3660046200106f565b62000948565b609a5462000231906001600160a01b031681565b609a546200029d90600160a01b900460ff1681565b60995462000231906001600160a01b031681565b6097546001600160a01b031662000231565b620001cb620009de565b620001cb6200036c366004620010c5565b62000abd565b620001cb620003833660046200106f565b62000b4f565b620001cb6200039a3660046200106f565b62000c0d565b6000620003ae600162000cac565b90508015620003c7576000805461ff0019166101001790555b620003d28262000d3c565b801562000419576000805461ff0019169055604051600181527f7f26b83ff96e1f2b6a682f133852f6798a09c465da95921460cefb38474024989060200160405180910390a15b5050565b6033546001600160a01b03163314620004535760405162461bcd60e51b81526004016200044a9062001142565b60405180910390fd5b609a5460408051600160a01b90920460ff161515825282151560208301527f061726d7014cedab859c85272e29d6cdc6e46de64d8eb0f85dac0d741f7532f7910160405180910390a1609a8054911515600160a01b0260ff60a01b19909216919091179055565b6033546001600160a01b03163314620004e75760405162461bcd60e51b81526004016200044a9062001142565b620004f28162000d3c565b50565b6033546001600160a01b03163314620005225760405162461bcd60e51b81526004016200044a9062001142565b6103e8811115620005465760405163cd4e616760e01b815260040160405180910390fd5b609b5460408051918252602082018390527f6cc13fbc24770524febbf53335bfc5c276fbb6e63c362425817f3d9014e28ead910160405180910390a1609b55565b6033546001600160a01b03163314620005b45760405162461bcd60e51b81526004016200044a9062001142565b620005be62000e05565b565b6033546001600160a01b03163314620005ed5760405162461bcd60e51b81526004016200044a9062001142565b80609d5411156200061157604051637616640160e01b815260040160405180910390fd5b609c5460408051918252602082018390527f143b8bba8449a9522f7624949217c17ba7f8c9aaf8a893f3365ddee7957e34b4910160405180910390a1609c55565b6033546001600160a01b031633146200067f5760405162461bcd60e51b81526004016200044a9062001142565b620005be600062000e9a565b6033546001600160a01b03163314620006b85760405162461bcd60e51b81526004016200044a9062001142565b620005be62000eec565b6000620006d160655460ff1690565b15620007135760405162461bcd60e51b815260206004820152601060248201526f14185d5cd8589b194e881c185d5cd95960821b60448201526064016200044a565b604080513360248201526001600160a01b0389166044820152606481018890526084810187905260a4810186905260c4810185905283151560e4808301919091528251808303909101815261010490910182526020810180516001600160e01b0316639bf8dbb560e01b17905290516000903090839062000794906200103d565b620007a192919062001177565b604051809103906000f080158015620007be573d6000803e3d6000fd5b506001600160a01b038a81166000818152609860205260409081902080546001600160a01b0319169385169390931790925590516370a0823160e01b8152336004820181905292935090916323b872dd91849084906370a0823190602401602060405180830381865afa1580156200083a573d6000803e3d6000fd5b505050506040513d601f19601f82011682018060405250810190620008609190620011df565b6040516001600160e01b031960e086901b1681526001600160a01b03938416600482015292909116602483015260448201526064016020604051808303816000875af1158015620008b5573d6000803e3d6000fd5b505050506040513d601f19601f82011682018060405250810190620008db9190620011f9565b5060408051898152602081018990529081018790526060810186905284151560808201526001600160a01b03808b1691908316907f1bb72b46985d7a3abad1d345d856e8576c1d4842b34a5373f3533a4c729703529060a00160405180910390a398975050505050505050565b6033546001600160a01b03163314620009755760405162461bcd60e51b81526004016200044a9062001142565b609954604080516001600160a01b03928316815291831660208301527fb64f850d07871ceb0fd0b59f3ca27dd860676cc26f59a4039b8e9f0b268e7ae8910160405180910390a1609980546001600160a01b0319166001600160a01b0392909216919091179055565b6000620009ec600162000cac565b9050801562000a05576000805461ff0019166101001790555b62000a0f62000f6a565b62000a1962000f9e565b62000a4f60405162000a2b906200104b565b604051809103906000f08015801562000a48573d6000803e3d6000fd5b50620003a0565b609a80546001600160a01b0319163317905560c8609b556276a700609c5562015180609d558015620004f2576000805461ff0019169055604051600181527f7f26b83ff96e1f2b6a682f133852f6798a09c465da95921460cefb38474024989060200160405180910390a150565b6033546001600160a01b0316331462000aea5760405162461bcd60e51b81526004016200044a9062001142565b609c5481111562000b0e57604051637616640160e01b815260040160405180910390fd5b609d5460408051918252602082018390527f01ea62fcba6f97563c2899e4e9fe2b7640cb133b77e839d4bed7884431c9294b910160405180910390a1609d55565b6033546001600160a01b0316331462000b7c5760405162461bcd60e51b81526004016200044a9062001142565b6001600160a01b03811662000ba45760405163d92e233d60e01b815260040160405180910390fd5b609a54604080516001600160a01b03928316815291831660208301527fa92ff4390fe6943f0b30e8fe715dde86f85ab79b2b2c640a10fc094cc4036cc8910160405180910390a1609a80546001600160a01b0319166001600160a01b0392909216919091179055565b6033546001600160a01b0316331462000c3a5760405162461bcd60e51b81526004016200044a9062001142565b6001600160a01b03811662000ca15760405162461bcd60e51b815260206004820152602660248201527f4f776e61626c653a206e6577206f776e657220697320746865207a65726f206160448201526564647265737360d01b60648201526084016200044a565b620004f28162000e9a565b60008054610100900460ff161562000cf8578160ff16600114801562000cd15750303b155b62000cf05760405162461bcd60e51b81526004016200044a9062001219565b506000919050565b60005460ff80841691161062000d225760405162461bcd60e51b81526004016200044a9062001219565b506000805460ff191660ff92909216919091179055600190565b6001600160a01b0381163b62000dbb5760405162461bcd60e51b815260206004820152603960248201527f5570677261646561626c65426561636f6e3a206368696c6420696d706c656d6560448201527f6e746174696f6e206973206e6f74206120636f6e74726163740000000000000060648201526084016200044a565b609780546001600160a01b0319166001600160a01b0383169081179091556040517fbc7cd75a20ee27fd9adebab32041f755214dbc6bffa90cc0225b39da2e5c2d3b90600090a250565b60655460ff1662000e505760405162461bcd60e51b815260206004820152601460248201527314185d5cd8589b194e881b9bdd081c185d5cd95960621b60448201526064016200044a565b6065805460ff191690557f5db9ee0a495bf2e6ff9c91a7834c1ba4fdd244a5e8aa4e537bd38aeae4b073aa335b6040516001600160a01b03909116815260200160405180910390a1565b603380546001600160a01b038381166001600160a01b0319831681179093556040519116919082907f8be0079c531659141344cd1fd0a4f28419497f9722a3daafe3b4186f6b6457e090600090a35050565b60655460ff161562000f345760405162461bcd60e51b815260206004820152601060248201526f14185d5cd8589b194e881c185d5cd95960821b60448201526064016200044a565b6065805460ff191660011790557f62e78cea01bee320cd4e420270b5ea74000d11b0c9f74754ebdbfc544b05a25862000e7d3390565b600054610100900460ff1662000f945760405162461bcd60e51b81526004016200044a9062001267565b620005be62000fd2565b600054610100900460ff1662000fc85760405162461bcd60e51b81526004016200044a9062001267565b620005be62001007565b600054610100900460ff1662000ffc5760405162461bcd60e51b81526004016200044a9062001267565b620005be3362000e9a565b600054610100900460ff16620010315760405162461bcd60e51b81526004016200044a9062001267565b6065805460ff19169055565b6108c680620012b383390190565b6126c78062001b7983390190565b6001600160a01b0381168114620004f257600080fd5b6000602082840312156200108257600080fd5b81356200108f8162001059565b9392505050565b8015158114620004f257600080fd5b600060208284031215620010b857600080fd5b81356200108f8162001096565b600060208284031215620010d857600080fd5b5035919050565b60008060008060008060c08789031215620010f957600080fd5b8635620011068162001059565b95506020870135945060408701359350606087013592506080870135915060a0870135620011348162001096565b809150509295509295509295565b6020808252818101527f4f776e61626c653a2063616c6c6572206973206e6f7420746865206f776e6572604082015260600190565b60018060a01b038316815260006020604081840152835180604085015260005b81811015620011b55785810183015185820160600152820162001197565b81811115620011c8576000606083870101525b50601f01601f191692909201606001949350505050565b600060208284031215620011f257600080fd5b5051919050565b6000602082840312156200120c57600080fd5b81516200108f8162001096565b6020808252602e908201527f496e697469616c697a61626c653a20636f6e747261637420697320616c72656160408201526d191e481a5b9a5d1a585b1a5e995960921b606082015260800190565b6020808252602b908201527f496e697469616c697a61626c653a20636f6e7472616374206973206e6f74206960408201526a6e697469616c697a696e6760a81b60608201526080019056fe60806040526040516108c63803806108c68339810160408190526100229161042a565b61004d60017fa3f0ad74e5423aebfd80d3ef4346578335a9a72aeaee59ff6cb3582b35133d516104ea565b600080516020610885833981519152146100695761006961050f565b610073828261007a565b505061058f565b61008d8261022660201b6100291760201c565b6100ec5760405162461bcd60e51b815260206004820152602560248201527f426561636f6e50726f78793a20626561636f6e206973206e6f74206120636f6e6044820152641d1c9858dd60da1b60648201526084015b60405180910390fd5b610160826001600160a01b031663da5257166040518163ffffffff1660e01b8152600401602060405180830381865afa15801561012d573d6000803e3d6000fd5b505050506040513d601f19601f820116820180604052508101906101519190610525565b61022660201b6100291760201c565b6101d25760405162461bcd60e51b815260206004820152603460248201527f426561636f6e50726f78793a20626561636f6e20696d706c656d656e7461746960448201527f6f6e206973206e6f74206120636f6e747261637400000000000000000000000060648201526084016100e3565b6000805160206108858339815191528281558151156102215761021f6101f6610235565b836040518060600160405280602181526020016108a5602191396102b360201b6100381760201c565b505b505050565b6001600160a01b03163b151590565b600061024d6000805160206108858339815191525490565b6001600160a01b031663da5257166040518163ffffffff1660e01b8152600401602060405180830381865afa15801561028a573d6000803e3d6000fd5b505050506040513d601f19601f820116820180604052508101906102ae9190610525565b905090565b60606001600160a01b0384163b61031b5760405162461bcd60e51b815260206004820152602660248201527f416464726573733a2064656c65676174652063616c6c20746f206e6f6e2d636f6044820152651b9d1c9858dd60d21b60648201526084016100e3565b600080856001600160a01b0316856040516103369190610540565b600060405180830381855af49150503d8060008114610371576040519150601f19603f3d011682016040523d82523d6000602084013e610376565b606091505b509092509050610387828286610393565b925050505b9392505050565b606083156103a257508161038c565b8251156103b25782518084602001fd5b8160405162461bcd60e51b81526004016100e3919061055c565b80516001600160a01b03811681146103e357600080fd5b919050565b634e487b7160e01b600052604160045260246000fd5b60005b83811015610419578181015183820152602001610401565b8381111561021f5750506000910152565b6000806040838503121561043d57600080fd5b610446836103cc565b60208401519092506001600160401b038082111561046357600080fd5b818501915085601f83011261047757600080fd5b815181811115610489576104896103e8565b604051601f8201601f19908116603f011681019083821181831017156104b1576104b16103e8565b816040528281528860208487010111156104ca57600080fd5b6104db8360208301602088016103fe565b80955050505050509250929050565b60008282101561050a57634e487b7160e01b600052601160045260246000fd5b500390565b634e487b7160e01b600052600160045260246000fd5b60006020828403121561053757600080fd5b61038c826103cc565b600082516105528184602087016103fe565b9190910192915050565b602081526000825180602084015261057b8160408501602087016103fe565b601f01601f19169190910160400192915050565b6102e78061059e6000396000f3fe60806040523661001357610011610017565b005b6100115b61002761002261011c565b6101ac565b565b6001600160a01b03163b151590565b60606001600160a01b0384163b6100a55760405162461bcd60e51b815260206004820152602660248201527f416464726573733a2064656c65676174652063616c6c20746f206e6f6e2d636f6044820152651b9d1c9858dd60d21b60648201526084015b60405180910390fd5b600080856001600160a01b0316856040516100c09190610239565b600060405180830381855af49150503d80600081146100fb576040519150601f19603f3d011682016040523d82523d6000602084013e610100565b606091505b50915091506101108282866101d0565b925050505b9392505050565b60006101467fa3f0ad74e5423aebfd80d3ef4346578335a9a72aeaee59ff6cb3582b35133d505490565b6001600160a01b031663da5257166040518163ffffffff1660e01b8152600401602060405180830381865afa158015610183573d6000803e3d6000fd5b505050506040513d601f19601f820116820180604052508101906101a79190610255565b905090565b3660008037600080366000845af43d6000803e8080156101cb573d6000f35b3d6000fd5b606083156101df575081610115565b8251156101ef5782518084602001fd5b8160405162461bcd60e51b815260040161009c919061027e565b60005b8381101561022457818101518382015260200161020c565b83811115610233576000848401525b50505050565b6000825161024b818460208701610209565b9190910192915050565b60006020828403121561026757600080fd5b81516001600160a01b038116811461011557600080fd5b602081526000825180602084015261029d816040850160208701610209565b601f01601f1916919091016040019291505056fea2646970667358221220f8229659447c762e7a87e74215956d58f6e585f6775523d0543037f8a20f99c664736f6c634300080d0033a3f0ad74e5423aebfd80d3ef4346578335a9a72aeaee59ff6cb3582b35133d50426561636f6e50726f78793a2066756e6374696f6e2063616c6c206661696c6564608060405234801561001057600080fd5b506126a7806100206000396000f3fe6080604052600436106101f95760003560e01c80639bf8dbb51161010d578063ca5c7b91116100a0578063dff136f21161006f578063dff136f21461054f578063e66f53b71461056f578063efbe1c1c1461058f578063f80f5dd5146105a4578063fb81a8b5146105c457600080fd5b8063ca5c7b91146104e1578063d0e30db0146104f7578063d7c2f7b0146104ff578063d936547e1461051f57600080fd5b8063c26c9004116100dc578063c26c900414610469578063c45a01551461047e578063c4ae3168146104b6578063c5c4744c146104cb57600080fd5b80639bf8dbb5146104095780639ea9fc4a14610429578063a035b1fe1461043e578063be9a65551461045457600080fd5b80632e8e282f116101905780636727b0da1161015f5780636727b0da1461039357806378c8cda7146103a85780637f6b8ec7146103c85780638473e55f146103dd5780639106d7ba146103f357600080fd5b80632e8e282f14610330578063355274ea1461034657806348cd4cb11461035c5780635c975abb1461037257600080fd5b806312fa6feb116101cc57806312fa6feb146102855780631959a002146102a65780631f2698ab146102ef57806322bb5cf01461031057600080fd5b806309d6e8b0146101fe5780630df7a9aa146102345780630fb5a6b41461025857806312424e3f1461026e575b600080fd5b34801561020a57600080fd5b5060055461021f90600160a01b900460ff1681565b60405190151581526020015b60405180910390f35b34801561024057600080fd5b5061024a600c5481565b60405190815260200161022b565b34801561026457600080fd5b5061024a60085481565b34801561027a57600080fd5b506102836105e4565b005b34801561029157600080fd5b5060055461021f90600160b01b900460ff1681565b3480156102b257600080fd5b506102da6102c1366004612298565b6001602081905260009182526040909120805491015482565b6040805192835260208301919091520161022b565b3480156102fb57600080fd5b5060055461021f90600160a81b900460ff1681565b34801561031c57600080fd5b5061024a61032b366004612298565b610793565b34801561033c57600080fd5b5061024a600a5481565b34801561035257600080fd5b5061024a60075481565b34801561036857600080fd5b5061024a600d5481565b34801561037e57600080fd5b5060055461021f90600160b81b900460ff1681565b34801561039f57600080fd5b5061021f6107da565b3480156103b457600080fd5b506102836103c3366004612298565b6107e9565b3480156103d457600080fd5b5061028361085f565b3480156103e957600080fd5b5061024a60065481565b3480156103ff57600080fd5b5061024a600f5481565b34801561041557600080fd5b506102836104243660046122c3565b610975565b34801561043557600080fd5b50610283610fce565b34801561044a57600080fd5b5061024a600b5481565b34801561046057600080fd5b506102836112c8565b34801561047557600080fd5b5061028361153b565b34801561048a57600080fd5b5060035461049e906001600160a01b031681565b6040516001600160a01b03909116815260200161022b565b3480156104c257600080fd5b5061021f611715565b3480156104d757600080fd5b5061024a600e5481565b3480156104ed57600080fd5b5061024a60095481565b61028361188c565b34801561050b57600080fd5b5061028361051a366004612335565b611c91565b34801561052b57600080fd5b5061021f61053a366004612298565b60026020526000908152604090205460ff1681565b34801561055b57600080fd5b5061028361056a366004612298565b611d71565b34801561057b57600080fd5b5060055461049e906001600160a01b031681565b34801561059b57600080fd5b50610283611e62565b3480156105b057600080fd5b506102836105bf366004612298565b61207a565b3480156105d057600080fd5b5060045461049e906001600160a01b031681565b6005546001600160a01b0316331461060f576040516356b381a560e01b815260040160405180910390fd5b60035460408051633582695360e21b815290516000926001600160a01b03169163d609a54c9160048083019260209291908290030181865afa158015610659573d6000803e3d6000fd5b505050506040513d601f19601f8201168201806040525081019061067d91906123aa565b90506001600160a01b0381166106a65760405163d92e233d60e01b815260040160405180910390fd5b60048054604080516318160ddd60e01b815290516001600160a01b0390921692839263095ea7b392869285926318160ddd92808301926020929182900301816000875af11580156106fb573d6000803e3d6000fd5b505050506040513d601f19601f8201168201806040525081019061071f91906123c7565b6040516001600160e01b031960e085901b1681526001600160a01b03909216600483015260248201526044016020604051808303816000875af115801561076a573d6000803e3d6000fd5b505050506040513d601f19601f8201168201806040525081019061078e91906123e0565b505050565b6001600160a01b0381166000908152600160208181526040808420815180830190925280548083529301549181019190915260075490916107d391612413565b9392505050565b60006107e46120f3565b905090565b6005546001600160a01b03163314610814576040516356b381a560e01b815260040160405180910390fd5b600554600160a01b900460ff1661083e5760405163787fa53160e01b815260040160405180910390fd5b6001600160a01b03166000908152600260205260409020805460ff19169055565b600854600d5461086f919061242a565b4311801561087e575060085415155b80156108945750600554600160b01b900460ff16155b156108a1576108a1611e62565b6005546001600160a01b031633146108cc576040516356b381a560e01b815260040160405180910390fd5b600554600160b01b900460ff166108f65760405163f1d2165f60e01b815260040160405180910390fd5b600c54600003610919576040516371cd57f760e11b815260040160405180910390fd5b600c8054600090915561092c3382612161565b600454604080516001600160a01b039092168252602082018390527f398eec65078415b3f15ccb9e37049f5762827d5bf71db8302dd77c595a11155d910160405180910390a150565b600061098160016121ef565b90508015610999576000805461ff0019166101001790555b6001600160a01b0388166109c05760405163d92e233d60e01b815260040160405180910390fd5b6001600160a01b0387166109e75760405163d92e233d60e01b815260040160405180910390fd5b6040516370a0823160e01b81526001600160a01b03898116600483015288916000918316906370a08231906024016020604051808303816000875af1158015610a34573d6000803e3d6000fd5b505050506040513d601f19601f82011682018060405250810190610a5891906123c7565b90506000826001600160a01b03166318160ddd6040518163ffffffff1660e01b81526004016020604051808303816000875af1158015610a9c573d6000803e3d6000fd5b505050506040513d601f19601f82011682018060405250810190610ac091906123c7565b6040516301ffc9a760e01b8152632db6e07160e21b600482015290915033906001600160a01b038c16906301ffc9a790602401602060405180830381865afa158015610b10573d6000803e3d6000fd5b505050506040513d601f19601f82011682018060405250810190610b3491906123e0565b15610c655781831015610b5a576040516374d9e0b960e01b815260040160405180910390fd5b8a6001600160a01b031663e6fd29826040518163ffffffff1660e01b81526004016020604051808303816000875af1158015610b9a573d6000803e3d6000fd5b505050506040513d601f19601f82011682018060405250810190610bbe91906123c7565b846001600160a01b031663313ce5676040518163ffffffff1660e01b81526004016020604051808303816000875af1158015610bfe573d6000803e3d6000fd5b505050506040513d601f19601f82011682018060405250810190610c229190612442565b610c2d90600a61254b565b610c37848c61255a565b610c419190612579565b1115610c605760405163fb33f9b560e01b815260040160405180910390fd5b610c99565b811580610c7b5750610c78600283612579565b83105b15610c99576040516374d9e0b960e01b815260040160405180910390fd5b891580610ca55750828a115b15610cc35760405163376278f160e01b815260040160405180910390fd5b871580610ccf57508188115b15610ced5760405163195bab4d60e31b815260040160405180910390fd5b8615801590610dc65750806001600160a01b0316633e3ee5a26040518163ffffffff1660e01b8152600401602060405180830381865afa158015610d35573d6000803e3d6000fd5b505050506040513d601f19601f82011682018060405250810190610d5991906123c7565b871080610dc65750806001600160a01b0316631e25aa8c6040518163ffffffff1660e01b8152600401602060405180830381865afa158015610d9f573d6000803e3d6000fd5b505050506040513d601f19601f82011682018060405250810190610dc391906123c7565b87115b15610de457604051637616640160e01b815260040160405180910390fd5b80600360006101000a8154816001600160a01b0302191690836001600160a01b031602179055508b600560006101000a8154816001600160a01b0302191690836001600160a01b031602179055508960068190555088600b819055508760078190555085600560146101000a81548160ff0219169083151502179055508660088190555083600460006101000a8154816001600160a01b0302191690836001600160a01b031602179055506000336001600160a01b031663d609a54c6040518163ffffffff1660e01b8152600401602060405180830381865afa158015610ecf573d6000803e3d6000fd5b505050506040513d601f19601f82011682018060405250810190610ef391906123aa565b90506001600160a01b03811615610f795760405163095ea7b360e01b81526001600160a01b0382811660048301526024820185905286169063095ea7b3906044016020604051808303816000875af1158015610f53573d6000803e3d6000fd5b505050506040513d601f19601f82011682018060405250810190610f7791906123e0565b505b50505050508015610fc4576000805461ff0019169055604051600181527f7f26b83ff96e1f2b6a682f133852f6798a09c465da95921460cefb38474024989060200160405180910390a15b5050505050505050565b600854600d54610fde919061242a565b43118015610fed575060085415155b80156110035750600554600160b01b900460ff16155b1561101057611010611e62565b6005546001600160a01b0316331461103b576040516356b381a560e01b815260040160405180910390fd5b600554600160b01b900460ff166110655760405163f1d2165f60e01b815260040160405180910390fd5b600480546040516301ffc9a760e01b8152632db6e07160e21b928101929092526001600160a01b03169081906301ffc9a790602401602060405180830381865afa1580156110b7573d6000803e3d6000fd5b505050506040513d601f19601f820116820180604052508101906110db91906123e0565b801561115c57506002816001600160a01b0316637fb450996040518163ffffffff1660e01b81526004016020604051808303816000875af1158015611124573d6000803e3d6000fd5b505050506040513d601f19601f8201168201806040525081019061114891906125b1565b60038111156111595761115961259b565b14155b801561116b575061116b6120f3565b1561118957604051630c01c97360e11b815260040160405180910390fd5b6040516370a0823160e01b81523060048201526000906001600160a01b038316906370a08231906024016020604051808303816000875af11580156111d2573d6000803e3d6000fd5b505050506040513d601f19601f820116820180604052508101906111f691906123c7565b9050806009600082825461120a9190612413565b909155505060405163a9059cbb60e01b8152336004820152602481018290526001600160a01b0383169063a9059cbb906044016020604051808303816000875af115801561125c573d6000803e3d6000fd5b505050506040513d601f19601f8201168201806040525081019061128091906123e0565b50604080516001600160a01b0384168152602081018390527f5b4b9baea57a11b7abb1e9c49f01847dd34ce20e041b4e5d5f41f358fb130f1a91015b60405180910390a15050565b6005546001600160a01b031633146112f3576040516356b381a560e01b815260040160405180910390fd5b600554600160a81b900460ff161561131e5760405163291659fd60e11b815260040160405180910390fd5b600554600160b01b900460ff161561134957604051637ce54feb60e11b815260040160405180910390fd5b600480546040516370a0823160e01b815230928101929092526001600160a01b03169060009082906370a08231906024016020604051808303816000875af1158015611399573d6000803e3d6000fd5b505050506040513d601f19601f820116820180604052508101906113bd91906123c7565b90506000826001600160a01b03166318160ddd6040518163ffffffff1660e01b81526004016020604051808303816000875af1158015611401573d6000803e3d6000fd5b505050506040513d601f19601f8201168201806040525081019061142591906123c7565b6040516301ffc9a760e01b8152632db6e07160e21b60048201529091506001600160a01b038416906301ffc9a790602401602060405180830381865afa158015611473573d6000803e3d6000fd5b505050506040513d601f19601f8201168201806040525081019061149791906123e0565b156114c257808210156114bd576040516374d9e0b960e01b815260040160405180910390fd5b6114f6565b8015806114d857506114d5600282612579565b82105b156114f6576040516374d9e0b960e01b815260040160405180910390fd5b43600d556005805460ff60a81b1916600160a81b1790556040517f912ee23dde46ec889d6748212cce445d667f7041597691dc89e8549ad8bc0acb90600090a1505050565b600360009054906101000a90046001600160a01b03166001600160a01b0316638da5cb5b6040518163ffffffff1660e01b8152600401602060405180830381865afa15801561158e573d6000803e3d6000fd5b505050506040513d601f19601f820116820180604052508101906115b291906123aa565b6001600160a01b0316336001600160a01b0316146115e35760405163b577c1f760e01b815260040160405180910390fd5b600480546040516370a0823160e01b815230928101929092526001600160a01b03169060009082906370a08231906024016020604051808303816000875af1158015611633573d6000803e3d6000fd5b505050506040513d601f19601f8201168201806040525081019061165791906123c7565b600060095560055460405163a9059cbb60e01b81526001600160a01b0391821660048201526024810183905291925083169063a9059cbb906044016020604051808303816000875af11580156116b1573d6000803e3d6000fd5b505050506040513d601f19601f820116820180604052508101906116d591906123e0565b50604080516001600160a01b0384168152602081018390527fe6a3066a93ee603dcf934b7b47b68770d6b017bc9d965e817606f0bca49e651891016112bc565b6005546000906001600160a01b03163314611743576040516356b381a560e01b815260040160405180910390fd5b600854600d54611753919061242a565b43118015611762575060085415155b80156117785750600554600160b01b900460ff16155b1561178557611785611e62565b600554600160a81b900460ff166117af5760405163e74d0e3360e01b815260040160405180910390fd5b600554600160b01b900460ff16156117da57604051637ce54feb60e11b815260040160405180910390fd5b600554600160b81b900460ff161561182157600a546117f99043612413565b6008600082825461180a919061242a565b90915550506005805460ff60b81b19169055611839565b43600a556005805460ff60b81b1916600160b81b1790555b600554604051600160b81b90910460ff16151581527fda88b5dfaac55549d4ddddd43a09d4b911233df354952ebc9ac2041aa18534369060200160405180910390a150600554600160b81b900460ff1690565b600554600160b81b900460ff16156118b75760405163ab35696f60e01b815260040160405180910390fd5b600854600d546118c7919061242a565b431180156118d6575060085415155b80156118ec5750600554600160b01b900460ff16155b156118f9576118f9611e62565b600554600160a81b900460ff166119235760405163e74d0e3360e01b815260040160405180910390fd5b600554600160b01b900460ff161561194e57604051637ce54feb60e11b815260040160405180910390fd5b600554600160a01b900460ff1615611990573360009081526002602052604090205460ff1661199057604051630b094f2760e31b815260040160405180910390fd5b33600090815260016020908152604080832060048054600b54845163313ce56760e01b8152945193966001600160a01b039092169591949093869363313ce567938382019390929190829003018188875af11580156119f3573d6000803e3d6000fd5b505050506040513d601f19601f82011682018060405250810190611a179190612442565b611a2290600a61254b565b611a2c903461255a565b611a369190612579565b9050600754818460000154611a4b919061242a565b1115611a6a5760405163b92612ed60e01b815260040160405180910390fd5b80600f6000828254611a7c919061242a565b909155505060035460408051632cfc019d60e21b815290516001600160a01b0390921691600091839163b3f00674916004808201926020929091908290030181865afa158015611ad0573d6000803e3d6000fd5b505050506040513d601f19601f82011682018060405250810190611af491906123aa565b90506000826001600160a01b0316630ea90a126040518163ffffffff1660e01b8152600401602060405180830381865afa158015611b36573d6000803e3d6000fd5b505050506040513d601f19601f82011682018060405250810190611b5a91906123c7565b90506000612710611b6b348461255a565b611b759190612579565b90506000611b838234612413565b905085886000016000828254611b99919061242a565b9250508190555034600e6000828254611bb2919061242a565b9250508190555080600c6000828254611bcb919061242a565b909155505060405163a9059cbb60e01b8152336004820152602481018790526001600160a01b0388169063a9059cbb906044016020604051808303816000875af1158015611c1d573d6000803e3d6000fd5b505050506040513d601f19601f82011682018060405250810190611c4191906123e0565b50611c4c8483612161565b604080513481526020810188905233917f71758c75945455cd578bd8afa60a5794ef93f635b87f3b4439f97ca9cafc7318910160405180910390a25050505050505050565b6005546001600160a01b03163314611cbc576040516356b381a560e01b815260040160405180910390fd5b600554600160a01b900460ff16611ce65760405163787fa53160e01b815260040160405180910390fd5b61014d811115611d09576040516368844d6d60e11b815260040160405180910390fd5b60005b8181101561078e57600160026000858585818110611d2c57611d2c6125d2565b9050602002016020810190611d419190612298565b6001600160a01b031681526020810191909152604001600020805460ff1916911515919091179055600101611d0c565b600360009054906101000a90046001600160a01b03166001600160a01b0316638da5cb5b6040518163ffffffff1660e01b8152600401602060405180830381865afa158015611dc4573d6000803e3d6000fd5b505050506040513d601f19601f82011682018060405250810190611de891906123aa565b6001600160a01b0316336001600160a01b031614611e195760405163b577c1f760e01b815260040160405180910390fd5b6001600160a01b038116611e405760405163d92e233d60e01b815260040160405180910390fd5b600480546001600160a01b0319166001600160a01b0392909216919091179055565b6005546001600160a01b03163314611e8d576040516356b381a560e01b815260040160405180910390fd5b600554600160b81b900460ff1615611eb85760405163ab35696f60e01b815260040160405180910390fd5b600554600160a81b900460ff16611ee25760405163e74d0e3360e01b815260040160405180910390fd5b600854600d54611ef2919061242a565b43111580611f815750600360009054906101000a90046001600160a01b03166001600160a01b0316633e3ee5a26040518163ffffffff1660e01b8152600401602060405180830381865afa158015611f4e573d6000803e3d6000fd5b505050506040513d601f19601f82011682018060405250810190611f7291906123c7565b600d54611f7f9043612413565b105b15611f9f576040516325cec3a560e01b815260040160405180910390fd5b600554600160b01b900460ff1615611fca57604051637ce54feb60e11b815260040160405180910390fd5b6005805460ff60b01b1916600160b01b179055600480546040516370a0823160e01b815230928101929092526001600160a01b0316906370a08231906024016020604051808303816000875af1158015612028573d6000803e3d6000fd5b505050506040513d601f19601f8201168201806040525081019061204c91906123c7565b6009556040517f0bd8a3eb532e5fbcd3f5b00335f0fb42fdc11969e9af0fab7c9e71a36ae0d31a90600090a1565b6005546001600160a01b031633146120a5576040516356b381a560e01b815260040160405180910390fd5b600554600160a01b900460ff166120cf5760405163787fa53160e01b815260040160405180910390fd5b6001600160a01b03166000908152600260205260409020805460ff19166001179055565b6003546040805163d451bd1d60e01b815290516000926001600160a01b03169163d451bd1d9160048083019260209291908290030181865afa15801561213d573d6000803e3d6000fd5b505050506040513d601f19601f820116820180604052508101906107e491906123e0565b604080516000808252602082019092526001600160a01b03841690839060405161218b91906125e8565b60006040518083038185875af1925050503d80600081146121c8576040519150601f19603f3d011682016040523d82523d6000602084013e6121cd565b606091505b505090508061078e57604051632b96f51360e01b815260040160405180910390fd5b60008054610100900460ff161561223f578160ff1660011480156122125750303b155b6122375760405162461bcd60e51b815260040161222e90612623565b60405180910390fd5b506000919050565b60005460ff8084169116106122665760405162461bcd60e51b815260040161222e90612623565b506000805460ff191660ff92909216919091179055600190565b6001600160a01b038116811461229557600080fd5b50565b6000602082840312156122aa57600080fd5b81356107d381612280565b801515811461229557600080fd5b600080600080600080600060e0888a0312156122de57600080fd5b87356122e981612280565b965060208801356122f981612280565b955060408801359450606088013593506080880135925060a0880135915060c0880135612325816122b5565b8091505092959891949750929550565b6000806020838503121561234857600080fd5b823567ffffffffffffffff8082111561236057600080fd5b818501915085601f83011261237457600080fd5b81358181111561238357600080fd5b8660208260051b850101111561239857600080fd5b60209290920196919550909350505050565b6000602082840312156123bc57600080fd5b81516107d381612280565b6000602082840312156123d957600080fd5b5051919050565b6000602082840312156123f257600080fd5b81516107d3816122b5565b634e487b7160e01b600052601160045260246000fd5b600082821015612425576124256123fd565b500390565b6000821982111561243d5761243d6123fd565b500190565b60006020828403121561245457600080fd5b815160ff811681146107d357600080fd5b600181815b808511156124a0578160001904821115612486576124866123fd565b8085161561249357918102915b93841c939080029061246a565b509250929050565b6000826124b757506001612545565b816124c457506000612545565b81600181146124da57600281146124e457612500565b6001915050612545565b60ff8411156124f5576124f56123fd565b50506001821b612545565b5060208310610133831016604e8410600b8410161715612523575081810a612545565b61252d8383612465565b8060001904821115612541576125416123fd565b0290505b92915050565b60006107d360ff8416836124a8565b6000816000190483118215151615612574576125746123fd565b500290565b60008261259657634e487b7160e01b600052601260045260246000fd5b500490565b634e487b7160e01b600052602160045260246000fd5b6000602082840312156125c357600080fd5b8151600481106107d357600080fd5b634e487b7160e01b600052603260045260246000fd5b6000825160005b8181101561260957602081860181015185830152016125ef565b81811115612618576000828501525b509190910192915050565b6020808252602e908201527f496e697469616c697a61626c653a20636f6e747261637420697320616c72656160408201526d191e481a5b9a5d1a585b1a5e995960921b60608201526080019056fea26469706673582212204a79e67ed6ffe8661bcaed958672ec821260ac6d77e113dc82d912c70841145664736f6c634300080d0033a264697066735822122010d0595bbdabfcbdcd14e3f13d34fed8fc3c0d148af586f6559221826e9d7b2f64736f6c634300080d0033",
  "devdoc": {
    "kind": "dev",
    "methods": {
      "childImplementation()": {
        "details": "Returns the current child implementation address."
      },
      "create(address,uint256,uint256,uint256,uint256,bool)": {
        "params": {
          "_allowWhitelisting": "if IFO should be governed by whitelists",
          "_amountForSale": "the amount of FNFT for sale in IFO",
          "_cap": "the maximum amount an account can buy",
          "_fnft": "the ERC20 token address of the FNFT",
          "_price": "the price of each FNFT token"
        },
        "returns": {
          "_0": "IFO address"
        }
      },
      "owner()": {
        "details": "Returns the address of the current owner."
      },
      "paused()": {
        "details": "Returns true if the contract is paused, and false otherwise."
      },
      "renounceOwnership()": {
        "details": "Leaves the contract without owner. It will not be possible to call `onlyOwner` functions anymore. Can only be called by the current owner. NOTE: Renouncing ownership will leave the contract without an owner, thereby removing any functionality that is only available to the owner."
      },
      "transferOwnership(address)": {
        "details": "Transfers ownership of the contract to a new account (`newOwner`). Can only be called by the current owner."
      },
      "upgradeChildTo(address)": {
        "details": "Upgrades the beacon to a new implementation. Emits an {Upgraded} event. Requirements: - msg.sender must be the owner of the contract. - `newChildImplementation` must be a contract."
      }
    },
    "version": 1
  },
  "userdoc": {
    "kind": "user",
    "methods": {
      "MAX_GOV_FEE()": {
        "notice": "10% fee is max"
      },
      "create(address,uint256,uint256,uint256,uint256,bool)": {
        "notice": "the function to create an IFO"
      },
      "creatorIFOLock()": {
        "notice": "the boolean whether creator should have access to the creator's FNFT shares after IFO"
      },
      "feeReceiver()": {
        "notice": "the address who receives ifo fees"
      },
      "ifos(address)": {
        "notice": "the mapping of FNFT to IFO address"
      }
    },
    "version": 1
  },
  "storageLayout": {
    "storage": [
      {
        "astId": 274,
        "contract": "src/contracts/IFOFactory.sol:IFOFactory",
        "label": "_initialized",
        "offset": 0,
        "slot": "0",
        "type": "t_uint8"
      },
      {
        "astId": 277,
        "contract": "src/contracts/IFOFactory.sol:IFOFactory",
        "label": "_initializing",
        "offset": 1,
        "slot": "0",
        "type": "t_bool"
      },
      {
        "astId": 2270,
        "contract": "src/contracts/IFOFactory.sol:IFOFactory",
        "label": "__gap",
        "offset": 0,
        "slot": "1",
        "type": "t_array(t_uint256)50_storage"
      },
      {
        "astId": 10,
        "contract": "src/contracts/IFOFactory.sol:IFOFactory",
        "label": "_owner",
        "offset": 0,
        "slot": "51",
        "type": "t_address"
      },
      {
        "astId": 122,
        "contract": "src/contracts/IFOFactory.sol:IFOFactory",
        "label": "__gap",
        "offset": 0,
        "slot": "52",
        "type": "t_array(t_uint256)49_storage"
      },
      {
        "astId": 430,
        "contract": "src/contracts/IFOFactory.sol:IFOFactory",
        "label": "_paused",
        "offset": 0,
        "slot": "101",
        "type": "t_bool"
      },
      {
        "astId": 519,
        "contract": "src/contracts/IFOFactory.sol:IFOFactory",
        "label": "__gap",
        "offset": 0,
        "slot": "102",
        "type": "t_array(t_uint256)49_storage"
      },
      {
        "astId": 26709,
        "contract": "src/contracts/IFOFactory.sol:IFOFactory",
        "label": "_childImplementation",
        "offset": 0,
        "slot": "151",
        "type": "t_address"
      },
      {
        "astId": 15597,
        "contract": "src/contracts/IFOFactory.sol:IFOFactory",
        "label": "ifos",
        "offset": 0,
        "slot": "152",
        "type": "t_mapping(t_address,t_address)"
      },
      {
        "astId": 15600,
        "contract": "src/contracts/IFOFactory.sol:IFOFactory",
        "label": "creatorUtilityContract",
        "offset": 0,
        "slot": "153",
        "type": "t_address"
      },
      {
        "astId": 15604,
        "contract": "src/contracts/IFOFactory.sol:IFOFactory",
        "label": "feeReceiver",
        "offset": 0,
        "slot": "154",
        "type": "t_address_payable"
      },
      {
        "astId": 15608,
        "contract": "src/contracts/IFOFactory.sol:IFOFactory",
        "label": "creatorIFOLock",
        "offset": 20,
        "slot": "154",
        "type": "t_bool"
      },
      {
        "astId": 15611,
        "contract": "src/contracts/IFOFactory.sol:IFOFactory",
        "label": "governanceFee",
        "offset": 0,
        "slot": "155",
        "type": "t_uint256"
      },
      {
        "astId": 15614,
        "contract": "src/contracts/IFOFactory.sol:IFOFactory",
        "label": "maximumDuration",
        "offset": 0,
        "slot": "156",
        "type": "t_uint256"
      },
      {
        "astId": 15617,
        "contract": "src/contracts/IFOFactory.sol:IFOFactory",
        "label": "minimumDuration",
        "offset": 0,
        "slot": "157",
        "type": "t_uint256"
      }
    ],
    "types": {
      "t_address": {
        "encoding": "inplace",
        "label": "address",
        "numberOfBytes": "20"
      },
      "t_address_payable": {
        "encoding": "inplace",
        "label": "address payable",
        "numberOfBytes": "20"
      },
      "t_array(t_uint256)49_storage": {
        "base": "t_uint256",
        "encoding": "inplace",
        "label": "uint256[49]",
        "numberOfBytes": "1568"
      },
      "t_array(t_uint256)50_storage": {
        "base": "t_uint256",
        "encoding": "inplace",
        "label": "uint256[50]",
        "numberOfBytes": "1600"
      },
      "t_bool": {
        "encoding": "inplace",
        "label": "bool",
        "numberOfBytes": "1"
      },
      "t_mapping(t_address,t_address)": {
        "encoding": "mapping",
        "key": "t_address",
        "label": "mapping(address => address)",
        "numberOfBytes": "32",
        "value": "t_address"
      },
      "t_uint256": {
        "encoding": "inplace",
        "label": "uint256",
        "numberOfBytes": "32"
      },
      "t_uint8": {
        "encoding": "inplace",
        "label": "uint8",
        "numberOfBytes": "1"
      }
    }
  }
}