{
  "address": "0xD5724171C2b7f0AA717a324626050BD05767e2C6",
  "abi": [
    {
      "inputs": [
        {
          "internalType": "address",
          "name": "_factory",
          "type": "address"
        },
        {
          "internalType": "address",
          "name": "_weth",
          "type": "address"
        }
      ],
      "stateMutability": "nonpayable",
      "type": "constructor"
    },
    {
      "inputs": [],
      "name": "InvalidToken",
      "type": "error"
    },
    {
      "inputs": [],
      "name": "NotEnoughUpdates",
      "type": "error"
    },
    {
      "inputs": [],
      "name": "PairInfoAlreadyExists",
      "type": "error"
    },
    {
      "inputs": [],
      "name": "PairInfoDoesNotExist",
      "type": "error"
    },
    {
      "anonymous": false,
      "inputs": [
        {
          "indexed": false,
          "internalType": "uint8",
          "name": "version",
          "type": "uint8"
        }
      ],
      "name": "Initialized",
      "type": "event"
    },
    {
      "anonymous": false,
      "inputs": [
        {
          "indexed": false,
          "internalType": "uint256",
          "name": "oldMinimumPairInfoUpdate",
          "type": "uint256"
        },
        {
          "indexed": false,
          "internalType": "uint256",
          "name": "newMinimumPairInfoUpdate",
          "type": "uint256"
        }
      ],
      "name": "MinimumPairInfoUpdateUpdated",
      "type": "event"
    },
    {
      "anonymous": false,
      "inputs": [
        {
          "indexed": true,
          "internalType": "address",
          "name": "previousOwner",
          "type": "address"
        },
        {
          "indexed": true,
          "internalType": "address",
          "name": "newOwner",
          "type": "address"
        }
      ],
      "name": "OwnershipTransferred",
      "type": "event"
    },
    {
      "anonymous": false,
      "inputs": [
        {
          "indexed": false,
          "internalType": "uint256",
          "name": "oldPeriod",
          "type": "uint256"
        },
        {
          "indexed": false,
          "internalType": "uint256",
          "name": "newPeriod",
          "type": "uint256"
        }
      ],
      "name": "PeriodUpdated",
      "type": "event"
    },
    {
      "inputs": [],
      "name": "WETH",
      "outputs": [
        {
          "internalType": "address",
          "name": "",
          "type": "address"
        }
      ],
      "stateMutability": "view",
      "type": "function"
    },
    {
      "inputs": [],
      "name": "__PriceOracle_init",
      "outputs": [],
      "stateMutability": "nonpayable",
      "type": "function"
    },
    {
      "inputs": [
        {
          "internalType": "address",
          "name": "_token",
          "type": "address"
        },
        {
          "internalType": "address",
          "name": "_pair",
          "type": "address"
        },
        {
          "internalType": "uint256",
          "name": "_amountIn",
          "type": "uint256"
        }
      ],
      "name": "consult",
      "outputs": [
        {
          "internalType": "uint256",
          "name": "amountOut",
          "type": "uint256"
        }
      ],
      "stateMutability": "view",
      "type": "function"
    },
    {
      "inputs": [
        {
          "internalType": "address",
          "name": "_token0",
          "type": "address"
        }
      ],
      "name": "createFNFTPair",
      "outputs": [
        {
          "internalType": "address",
          "name": "",
          "type": "address"
        }
      ],
      "stateMutability": "nonpayable",
      "type": "function"
    },
    {
      "inputs": [],
      "name": "factory",
      "outputs": [
        {
          "internalType": "contract IUniswapV2Factory",
          "name": "",
          "type": "address"
        }
      ],
      "stateMutability": "view",
      "type": "function"
    },
    {
      "inputs": [
        {
          "internalType": "address",
          "name": "_fnft",
          "type": "address"
        },
        {
          "internalType": "uint256",
          "name": "_amountIn",
          "type": "uint256"
        }
      ],
      "name": "getFNFTPriceETH",
      "outputs": [
        {
          "internalType": "uint256",
          "name": "amountOut",
          "type": "uint256"
        }
      ],
      "stateMutability": "view",
      "type": "function"
    },
    {
      "inputs": [
        {
          "internalType": "address",
          "name": "_token0",
          "type": "address"
        },
        {
          "internalType": "address",
          "name": "_token1",
          "type": "address"
        }
      ],
      "name": "getPairAddress",
      "outputs": [
        {
          "internalType": "address",
          "name": "",
          "type": "address"
        }
      ],
      "stateMutability": "view",
      "type": "function"
    },
    {
      "inputs": [
        {
          "internalType": "address",
          "name": "_token0",
          "type": "address"
        },
        {
          "internalType": "address",
          "name": "_token1",
          "type": "address"
        }
      ],
      "name": "getPairInfo",
      "outputs": [
        {
          "components": [
            {
              "internalType": "address",
              "name": "token0",
              "type": "address"
            },
            {
              "internalType": "address",
              "name": "token1",
              "type": "address"
            },
            {
              "internalType": "uint256",
              "name": "price0CumulativeLast",
              "type": "uint256"
            },
            {
              "internalType": "uint256",
              "name": "price1CumulativeLast",
              "type": "uint256"
            },
            {
              "components": [
                {
                  "internalType": "uint224",
                  "name": "_x",
                  "type": "uint224"
                }
              ],
              "internalType": "struct FixedPoint.uq112x112",
              "name": "price0Average",
              "type": "tuple"
            },
            {
              "components": [
                {
                  "internalType": "uint224",
                  "name": "_x",
                  "type": "uint224"
                }
              ],
              "internalType": "struct FixedPoint.uq112x112",
              "name": "price1Average",
              "type": "tuple"
            },
            {
              "internalType": "uint216",
              "name": "totalUpdates",
              "type": "uint216"
            },
            {
              "internalType": "uint32",
              "name": "blockTimestampLast",
              "type": "uint32"
            },
            {
              "internalType": "bool",
              "name": "exists",
              "type": "bool"
            }
          ],
          "internalType": "struct IPriceOracle.PairInfo",
          "name": "pairInfo",
          "type": "tuple"
        }
      ],
      "stateMutability": "view",
      "type": "function"
    },
    {
      "inputs": [
        {
          "internalType": "address",
          "name": "_pair",
          "type": "address"
        }
      ],
      "name": "getPairInfo",
      "outputs": [
        {
          "components": [
            {
              "internalType": "address",
              "name": "token0",
              "type": "address"
            },
            {
              "internalType": "address",
              "name": "token1",
              "type": "address"
            },
            {
              "internalType": "uint256",
              "name": "price0CumulativeLast",
              "type": "uint256"
            },
            {
              "internalType": "uint256",
              "name": "price1CumulativeLast",
              "type": "uint256"
            },
            {
              "components": [
                {
                  "internalType": "uint224",
                  "name": "_x",
                  "type": "uint224"
                }
              ],
              "internalType": "struct FixedPoint.uq112x112",
              "name": "price0Average",
              "type": "tuple"
            },
            {
              "components": [
                {
                  "internalType": "uint224",
                  "name": "_x",
                  "type": "uint224"
                }
              ],
              "internalType": "struct FixedPoint.uq112x112",
              "name": "price1Average",
              "type": "tuple"
            },
            {
              "internalType": "uint216",
              "name": "totalUpdates",
              "type": "uint216"
            },
            {
              "internalType": "uint32",
              "name": "blockTimestampLast",
              "type": "uint32"
            },
            {
              "internalType": "bool",
              "name": "exists",
              "type": "bool"
            }
          ],
          "internalType": "struct IPriceOracle.PairInfo",
          "name": "pairInfo",
          "type": "tuple"
        }
      ],
      "stateMutability": "view",
      "type": "function"
    },
    {
      "inputs": [],
      "name": "minimumPairInfoUpdate",
      "outputs": [
        {
          "internalType": "uint256",
          "name": "",
          "type": "uint256"
        }
      ],
      "stateMutability": "view",
      "type": "function"
    },
    {
      "inputs": [],
      "name": "owner",
      "outputs": [
        {
          "internalType": "address",
          "name": "",
          "type": "address"
        }
      ],
      "stateMutability": "view",
      "type": "function"
    },
    {
      "inputs": [],
      "name": "period",
      "outputs": [
        {
          "internalType": "uint256",
          "name": "",
          "type": "uint256"
        }
      ],
      "stateMutability": "view",
      "type": "function"
    },
    {
      "inputs": [],
      "name": "renounceOwnership",
      "outputs": [],
      "stateMutability": "nonpayable",
      "type": "function"
    },
    {
      "inputs": [
        {
          "internalType": "uint256",
          "name": "_minimumPairInfoUpdate",
          "type": "uint256"
        }
      ],
      "name": "setMinimumPairInfoUpdate",
      "outputs": [],
      "stateMutability": "nonpayable",
      "type": "function"
    },
    {
      "inputs": [
        {
          "internalType": "uint256",
          "name": "_period",
          "type": "uint256"
        }
      ],
      "name": "setPeriod",
      "outputs": [],
      "stateMutability": "nonpayable",
      "type": "function"
    },
    {
      "inputs": [
        {
          "internalType": "address",
          "name": "newOwner",
          "type": "address"
        }
      ],
      "name": "transferOwnership",
      "outputs": [],
      "stateMutability": "nonpayable",
      "type": "function"
    },
    {
      "inputs": [
        {
          "internalType": "address",
          "name": "_fnft",
          "type": "address"
        }
      ],
      "name": "updateFNFTPairInfo",
      "outputs": [],
      "stateMutability": "nonpayable",
      "type": "function"
    },
    {
      "inputs": [
        {
          "internalType": "address",
          "name": "_token0",
          "type": "address"
        },
        {
          "internalType": "address",
          "name": "_token1",
          "type": "address"
        }
      ],
      "name": "updatePairInfo",
      "outputs": [],
      "stateMutability": "nonpayable",
      "type": "function"
    }
  ],
  "transactionHash": "0x836833fc7f1c52bfdfad8c34522439e86a5d61bdacff4900c2b716ccbfacca2b",
  "args": [
    "0x5C69bEe701ef814a2B6a3EDD4B1652CB9cc5aA6f",
    "0xC9BdeEd33CD01541e1eeD10f90519d2C06Fe3feB"
  ],
  "numDeployments": 1,
  "solcInputHash": "961fec123a75984f6857e077cf799290",
  "bytecode": "0x60c06040523480156200001157600080fd5b506040516200198d3803806200198d833981016040819052620000349162000069565b6001600160a01b039182166080521660a052620000a1565b80516001600160a01b03811681146200006457600080fd5b919050565b600080604083850312156200007d57600080fd5b62000088836200004c565b915062000098602084016200004c565b90509250929050565b60805160a0516118a3620000ea600039600081816102090152818161055401528181610638015261066b015260008181610256015281816109500152610d6e01526118a36000f3fe608060405234801561001057600080fd5b50600436106101165760003560e01c8063a0cbb062116100a2578063b4f69a2f11610071578063b4f69a2f1461023e578063c45a015514610251578063d4ff73f714610278578063ef78d4fd1461028b578063f2fde38b1461029457600080fd5b8063a0cbb062146101e8578063abf21e44146101fb578063ad5c464814610204578063b42be42b1461022b57600080fd5b80636f0f4fdf116100e95780636f0f4fdf1461018d578063715018a6146101a05780638cb30149146101a85780638da5cb5b146101b057806394b26a1b146101d557600080fd5b80630f3a9f651461011b578063400f7a1e146101305780634ff615b714610159578063636cfa0c1461016c575b600080fd5b61012e610129366004611415565b6102a7565b005b61014361013e366004611443565b61031b565b604051610150919061147c565b60405180910390f35b61012e610167366004611415565b6103f1565b61017f61017a36600461152e565b61045c565b604051908152602001610150565b61012e61019b36600461156f565b61054e565b61012e61057b565b61012e6105b1565b6033546001600160a01b03165b6040516001600160a01b039091168152602001610150565b6101bd6101e336600461156f565b610630565b61017f6101f636600461158c565b610662565b61017f60665481565b6101bd7f000000000000000000000000000000000000000000000000000000000000000081565b61012e610239366004611443565b6107a7565b6101bd61024c366004611443565b6107b5565b6101bd7f000000000000000000000000000000000000000000000000000000000000000081565b61014361028636600461156f565b6107c8565b61017f60675481565b61012e6102a236600461156f565b61088e565b6033546001600160a01b031633146102da5760405162461bcd60e51b81526004016102d1906115b8565b60405180910390fd5b60675460408051918252602082018390527f5b873fc01d45058fe77f3883a91020f46d5a7385baac6ceab19748d1d0ae464a910160405180910390a1606755565b6103236113b4565b600061032f8484610926565b6001600160a01b03908116600090815260656020908152604091829020825161012081018452815485168152600182015490941684830152600281015484840152600381015460608501528251808301845260048201546001600160e01b039081168252608086019190915283519283019093526005810154909216815260a0830152600601546001600160d81b03811660c0830152600160d81b810463ffffffff1660e0830152600160f81b900460ff161515610100820152949350505050565b6033546001600160a01b0316331461041b5760405162461bcd60e51b81526004016102d1906115b8565b60665460408051918252602082018390527f05c6144bfed9f2471c3de6f59bd591c7276daeac7b813b7fea4aef03a4473934910160405180910390a1606655565b6001600160a01b038281166000908152606560209081526040808320815161012081018352815486168152600182015490951685840152600281015485830152600381015460608601528151808401835260048201546001600160e01b039081168252608087019190915282519384019092526005810154909116825260a0840191909152600601546001600160d81b03811660c0840152600160d81b810463ffffffff1660e0840152600160f81b900460ff161515610100830181905290919061053a5760405163617dac3760e01b815260040160405180910390fd5b6105458584836109bd565b95945050505050565b610578817f0000000000000000000000000000000000000000000000000000000000000000610a60565b50565b6033546001600160a01b031633146105a55760405162461bcd60e51b81526004016102d1906115b8565b6105af6000610c36565b565b60006105bd6001610c88565b905080156105d5576000805461ff0019166101001790555b6105dd610d15565b610258606755600a6066558015610578576000805461ff0019169055604051600181527f7f26b83ff96e1f2b6a682f133852f6798a09c465da95921460cefb38474024989060200160405180910390a150565b600061065c827f0000000000000000000000000000000000000000000000000000000000000000610d44565b92915050565b60008061068f847f0000000000000000000000000000000000000000000000000000000000000000610926565b6001600160a01b03818116600090815260656020908152604091829020825161012081018452815485168152600182015490941684830152600281015484840152600381015460608501528251808301845260048201546001600160e01b039081168252608086019190915283519283019093526005810154909216815260a0830152600601546001600160d81b03811660c0830152600160d81b810463ffffffff1660e0830152600160f81b900460ff16151561010082018190529192509061076c5760405163617dac3760e01b815260040160405180910390fd5b6066548160c001516001600160d81b0316101561079c57604051632ec65bab60e11b815260040160405180910390fd5b6105458585836109bd565b6107b18282610a60565b5050565b60006107c18383610926565b9392505050565b6107d06113b4565b506001600160a01b03908116600090815260656020908152604091829020825161012081018452815485168152600182015490941684830152600281015484840152600381015460608501528251808301845260048201546001600160e01b039081168252608086019190915283519283019093526005810154909216815260a0830152600601546001600160d81b03811660c0830152600160d81b810463ffffffff1660e0830152600160f81b900460ff16151561010082015290565b6033546001600160a01b031633146108b85760405162461bcd60e51b81526004016102d1906115b8565b6001600160a01b03811661091d5760405162461bcd60e51b815260206004820152602660248201527f4f776e61626c653a206e6577206f776e657220697320746865207a65726f206160448201526564647265737360d01b60648201526084016102d1565b61057881610c36565b60405163e6a4390560e01b81526001600160a01b03838116600483015282811660248301526000917f00000000000000000000000000000000000000000000000000000000000000009091169063e6a4390590604401602060405180830381865afa158015610999573d6000803e3d6000fd5b505050506040513d601f19601f820116820180604052508101906107c191906115ed565b600081600001516001600160a01b0316846001600160a01b031603610a065760808201516109f6906109ef9085610db9565b5160701c90565b6001600160901b031690506107c1565b81602001516001600160a01b0316846001600160a01b031614610a3c5760405163c1ab6dc160e01b815260040160405180910390fd5b60a0820151610a4f906109ef9085610db9565b6001600160901b0316949350505050565b6000610a6c8383610926565b90506001600160a01b03811615610c31576001600160a01b03811660009081526065602052604090206006810154600160f81b900460ff1615610c25576000806000610ab785610e57565b92509250925082600014158015610acd57508115155b15610c1d576006840154600090610af190600160d81b900463ffffffff1683611620565b90506067548163ffffffff1610610c1b57600060405180602001604052808363ffffffff16886002015488610b269190611645565b610b309190611672565b6001600160e01b03168152509050600060405180602001604052808463ffffffff16896003015488610b629190611645565b610b6c9190611672565b6001600160e01b03908116909152835160048a0180549183166001600160e01b0319928316179055825160058b018054919093169116179055600288018790556003880186905560068801805463ffffffff8716600160d81b0263ffffffff60d81b198216811783559293509091600091610bf4916001600160d81b03908116911617611686565b91906101000a8154816001600160d81b0302191690836001600160d81b0316021790555050505b505b505050610c2f565b610c2f8484611067565b505b505050565b603380546001600160a01b038381166001600160a01b0319831681179093556040519116919082907f8be0079c531659141344cd1fd0a4f28419497f9722a3daafe3b4186f6b6457e090600090a35050565b60008054610100900460ff1615610ccf578160ff166001148015610cab5750303b155b610cc75760405162461bcd60e51b81526004016102d1906116b4565b506000919050565b60005460ff808416911610610cf65760405162461bcd60e51b81526004016102d1906116b4565b506000805460ff191660ff92909216919091179055600190565b919050565b600054610100900460ff16610d3c5760405162461bcd60e51b81526004016102d190611702565b6105af611340565b6040516364e329cb60e11b81526001600160a01b03838116600483015282811660248301526000917f00000000000000000000000000000000000000000000000000000000000000009091169063c9c65396906044016020604051808303816000875af1158015610999573d6000803e3d6000fd5b6040805160208101909152600081526000821580610df6575083516001600160e01b031683610de8818361174d565b9250610df49083611672565b145b610e425760405162461bcd60e51b815260206004820152601960248201527f4669786564506f696e743a3a6d756c3a206f766572666c6f770000000000000060448201526064016102d1565b60408051602081019091529081529392505050565b6000806000610e64611370565b9050836001600160a01b0316635909c0d56040518163ffffffff1660e01b8152600401602060405180830381865afa158015610ea4573d6000803e3d6000fd5b505050506040513d601f19601f82011682018060405250810190610ec8919061176c565b9250836001600160a01b0316635a3d54936040518163ffffffff1660e01b8152600401602060405180830381865afa158015610f08573d6000803e3d6000fd5b505050506040513d601f19601f82011682018060405250810190610f2c919061176c565b91506000806000866001600160a01b0316630902f1ac6040518163ffffffff1660e01b8152600401606060405180830381865afa158015610f71573d6000803e3d6000fd5b505050506040513d601f19601f82011682018060405250810190610f95919061179c565b9250925092508363ffffffff168163ffffffff1614158015610fbf57506001600160701b03831615155b8015610fd357506001600160701b03821615155b1561105d576000610fe48286611620565b90508063ffffffff1661100985610ffa86611386565b6001600160e01b03169061139f565b6001600160e01b031661101c919061174d565b61102690886117ec565b96508063ffffffff1661103c84610ffa87611386565b6001600160e01b031661104f919061174d565b61105990876117ec565b9550505b5050509193909250565b60006110738383610926565b6001600160a01b0381166000908152606560205260409020600681015491925090600160f81b900460ff16156110bc5760405163202c6ac160e11b815260040160405180910390fd5b60008290506000816001600160a01b0316630902f1ac6040518163ffffffff1660e01b8152600401606060405180830381865afa158015611101573d6000803e3d6000fd5b505050506040513d601f19601f82011682018060405250810190611125919061179c565b92505050816001600160a01b0316630dfe16816040518163ffffffff1660e01b8152600401602060405180830381865afa158015611167573d6000803e3d6000fd5b505050506040513d601f19601f8201168201806040525081019061118b91906115ed565b83546001600160a01b0319166001600160a01b039182161784556040805163d21220a760e01b815290519184169163d21220a7916004808201926020929091908290030181865afa1580156111e4573d6000803e3d6000fd5b505050506040513d601f19601f8201168201806040525081019061120891906115ed565b8360010160006101000a8154816001600160a01b0302191690836001600160a01b03160217905550816001600160a01b0316635909c0d56040518163ffffffff1660e01b8152600401602060405180830381865afa15801561126e573d6000803e3d6000fd5b505050506040513d601f19601f82011682018060405250810190611292919061176c565b8360020181905550816001600160a01b0316635a3d54936040518163ffffffff1660e01b8152600401602060405180830381865afa1580156112d8573d6000803e3d6000fd5b505050506040513d601f19601f820116820180604052508101906112fc919061176c565b6003840155600690920180546001600160f81b0363ffffffff909416600160d81b02939093166001600160d81b0390931692909217600160f81b1790915550505050565b600054610100900460ff166113675760405162461bcd60e51b81526004016102d190611702565b6105af33610c36565b600061138164010000000042611804565b905090565b600061065c600160701b6001600160701b038416611818565b60006107c16001600160701b03831684611847565b60408051610120810182526000808252602080830182905282840182905260608301829052835180820185528281526080840152835190810190935280835260a082019290925260c0810182905260e0810182905261010081019190915290565b60006020828403121561142757600080fd5b5035919050565b6001600160a01b038116811461057857600080fd5b6000806040838503121561145657600080fd5b82356114618161142e565b915060208301356114718161142e565b809150509250929050565b81516001600160a01b0390811682526020808401519091169082015260408083015190820152606080830151908201526080808301516101208301916114cd90840182516001600160e01b03169052565b5060a08301516114e960a0840182516001600160e01b03169052565b5060c083015161150460c08401826001600160d81b03169052565b5060e083015161151c60e084018263ffffffff169052565b50610100928301511515919092015290565b60008060006060848603121561154357600080fd5b833561154e8161142e565b9250602084013561155e8161142e565b929592945050506040919091013590565b60006020828403121561158157600080fd5b81356107c18161142e565b6000806040838503121561159f57600080fd5b82356115aa8161142e565b946020939093013593505050565b6020808252818101527f4f776e61626c653a2063616c6c6572206973206e6f7420746865206f776e6572604082015260600190565b6000602082840312156115ff57600080fd5b81516107c18161142e565b634e487b7160e01b600052601160045260246000fd5b600063ffffffff8381169083168181101561163d5761163d61160a565b039392505050565b6000828210156116575761165761160a565b500390565b634e487b7160e01b600052601260045260246000fd5b6000826116815761168161165c565b500490565b60006001600160d81b038281166002600160d81b031981016116aa576116aa61160a565b6001019392505050565b6020808252602e908201527f496e697469616c697a61626c653a20636f6e747261637420697320616c72656160408201526d191e481a5b9a5d1a585b1a5e995960921b606082015260800190565b6020808252602b908201527f496e697469616c697a61626c653a20636f6e7472616374206973206e6f74206960408201526a6e697469616c697a696e6760a81b606082015260800190565b60008160001904831182151516156117675761176761160a565b500290565b60006020828403121561177e57600080fd5b5051919050565b80516001600160701b0381168114610d1057600080fd5b6000806000606084860312156117b157600080fd5b6117ba84611785565b92506117c860208501611785565b9150604084015163ffffffff811681146117e157600080fd5b809150509250925092565b600082198211156117ff576117ff61160a565b500190565b6000826118135761181361165c565b500690565b60006001600160e01b038281168482168115158284048211161561183e5761183e61160a565b02949350505050565b60006001600160e01b03838116806118615761186161165c565b9216919091049291505056fea2646970667358221220222b01e634989746ab9f9edcf26948184c69162ea27ca2382bad9c5a81f35db764736f6c634300080d0033",
  "devdoc": {
    "kind": "dev",
    "methods": {
      "owner()": {
        "details": "Returns the address of the current owner."
      },
      "renounceOwnership()": {
        "details": "Leaves the contract without owner. It will not be possible to call `onlyOwner` functions anymore. Can only be called by the current owner. NOTE: Renouncing ownership will leave the contract without an owner, thereby removing any functionality that is only available to the owner."
      },
      "transferOwnership(address)": {
        "details": "Transfers ownership of the contract to a new account (`newOwner`). Can only be called by the current owner."
      }
    },
    "version": 1
  },
  "userdoc": {
    "kind": "user",
    "methods": {},
    "notice": "1. Store cumulative prices for each pair in the pool 2. Update to calculate twap and update for each pair",
    "version": 1
  },
  "storageLayout": {
    "storage": [
      {
        "astId": 274,
        "contract": "src/contracts/PriceOracle.sol:PriceOracle",
        "label": "_initialized",
        "offset": 0,
        "slot": "0",
        "type": "t_uint8"
      },
      {
        "astId": 277,
        "contract": "src/contracts/PriceOracle.sol:PriceOracle",
        "label": "_initializing",
        "offset": 1,
        "slot": "0",
        "type": "t_bool"
      },
      {
        "astId": 2270,
        "contract": "src/contracts/PriceOracle.sol:PriceOracle",
        "label": "__gap",
        "offset": 0,
        "slot": "1",
        "type": "t_array(t_uint256)50_storage"
      },
      {
        "astId": 10,
        "contract": "src/contracts/PriceOracle.sol:PriceOracle",
        "label": "_owner",
        "offset": 0,
        "slot": "51",
        "type": "t_address"
      },
      {
        "astId": 122,
        "contract": "src/contracts/PriceOracle.sol:PriceOracle",
        "label": "__gap",
        "offset": 0,
        "slot": "52",
        "type": "t_array(t_uint256)49_storage"
      },
      {
        "astId": 17964,
        "contract": "src/contracts/PriceOracle.sol:PriceOracle",
        "label": "_getTwap",
        "offset": 0,
        "slot": "101",
        "type": "t_mapping(t_address,t_struct(PairInfo)22162_storage)"
      },
      {
        "astId": 17967,
        "contract": "src/contracts/PriceOracle.sol:PriceOracle",
        "label": "minimumPairInfoUpdate",
        "offset": 0,
        "slot": "102",
        "type": "t_uint256"
      },
      {
        "astId": 17970,
        "contract": "src/contracts/PriceOracle.sol:PriceOracle",
        "label": "period",
        "offset": 0,
        "slot": "103",
        "type": "t_uint256"
      }
    ],
    "types": {
      "t_address": {
        "encoding": "inplace",
        "label": "address",
        "numberOfBytes": "20"
      },
      "t_array(t_uint256)49_storage": {
        "base": "t_uint256",
        "encoding": "inplace",
        "label": "uint256[49]",
        "numberOfBytes": "1568"
      },
      "t_array(t_uint256)50_storage": {
        "base": "t_uint256",
        "encoding": "inplace",
        "label": "uint256[50]",
        "numberOfBytes": "1600"
      },
      "t_bool": {
        "encoding": "inplace",
        "label": "bool",
        "numberOfBytes": "1"
      },
      "t_mapping(t_address,t_struct(PairInfo)22162_storage)": {
        "encoding": "mapping",
        "key": "t_address",
        "label": "mapping(address => struct IPriceOracle.PairInfo)",
        "numberOfBytes": "32",
        "value": "t_struct(PairInfo)22162_storage"
      },
      "t_struct(PairInfo)22162_storage": {
        "encoding": "inplace",
        "label": "struct IPriceOracle.PairInfo",
        "members": [
          {
            "astId": 22143,
            "contract": "src/contracts/PriceOracle.sol:PriceOracle",
            "label": "token0",
            "offset": 0,
            "slot": "0",
            "type": "t_address"
          },
          {
            "astId": 22145,
            "contract": "src/contracts/PriceOracle.sol:PriceOracle",
            "label": "token1",
            "offset": 0,
            "slot": "1",
            "type": "t_address"
          },
          {
            "astId": 22147,
            "contract": "src/contracts/PriceOracle.sol:PriceOracle",
            "label": "price0CumulativeLast",
            "offset": 0,
            "slot": "2",
            "type": "t_uint256"
          },
          {
            "astId": 22149,
            "contract": "src/contracts/PriceOracle.sol:PriceOracle",
            "label": "price1CumulativeLast",
            "offset": 0,
            "slot": "3",
            "type": "t_uint256"
          },
          {
            "astId": 22152,
            "contract": "src/contracts/PriceOracle.sol:PriceOracle",
            "label": "price0Average",
            "offset": 0,
            "slot": "4",
            "type": "t_struct(uq112x112)24442_storage"
          },
          {
            "astId": 22155,
            "contract": "src/contracts/PriceOracle.sol:PriceOracle",
            "label": "price1Average",
            "offset": 0,
            "slot": "5",
            "type": "t_struct(uq112x112)24442_storage"
          },
          {
            "astId": 22157,
            "contract": "src/contracts/PriceOracle.sol:PriceOracle",
            "label": "totalUpdates",
            "offset": 0,
            "slot": "6",
            "type": "t_uint216"
          },
          {
            "astId": 22159,
            "contract": "src/contracts/PriceOracle.sol:PriceOracle",
            "label": "blockTimestampLast",
            "offset": 27,
            "slot": "6",
            "type": "t_uint32"
          },
          {
            "astId": 22161,
            "contract": "src/contracts/PriceOracle.sol:PriceOracle",
            "label": "exists",
            "offset": 31,
            "slot": "6",
            "type": "t_bool"
          }
        ],
        "numberOfBytes": "224"
      },
      "t_struct(uq112x112)24442_storage": {
        "encoding": "inplace",
        "label": "struct FixedPoint.uq112x112",
        "members": [
          {
            "astId": 24441,
            "contract": "src/contracts/PriceOracle.sol:PriceOracle",
            "label": "_x",
            "offset": 0,
            "slot": "0",
            "type": "t_uint224"
          }
        ],
        "numberOfBytes": "32"
      },
      "t_uint216": {
        "encoding": "inplace",
        "label": "uint216",
        "numberOfBytes": "27"
      },
      "t_uint224": {
        "encoding": "inplace",
        "label": "uint224",
        "numberOfBytes": "28"
      },
      "t_uint256": {
        "encoding": "inplace",
        "label": "uint256",
        "numberOfBytes": "32"
      },
      "t_uint32": {
        "encoding": "inplace",
        "label": "uint32",
        "numberOfBytes": "4"
      },
      "t_uint8": {
        "encoding": "inplace",
        "label": "uint8",
        "numberOfBytes": "1"
      }
    }
  }
}